:020000022000DC
:1070000000000420757302005D7302005F730200CC
:1070100061730200637302006573020000000000E8
:107020000000000000000000000000006773020084
:1070300069730200000000006B7302006D730200B0
:10704000319302006F7302003D9602006F730200DD
:107050006F7302006F730200C19402006F7302002D
:107060006F7302006F7302006F7302006F73020090
:107070006F7302006F7302006F7302006F73020080
:107080006F730200158502006F7302006F730200B8
:107090006F7302006F730200F1B402006F7302009D
:1070A0006F7302006F7302006F7302006F73020050
:1070B0006F7302006F730200000000000000000008
:1070C0006F7302006F7302006F7302006F73020030
:1070D0007DA002006F7302006F7302006F730200E5
:1070E0006F7302006F7302006F73020000000000F4
:1070F000000000006F730200000000006F730200C8
:10710000000000000000000000000000000000007F
:10711000000000000000000000000000000000006F
:10712000000000000000000000000000000000005F
:10713000000000000000000000000000000000004F
:10714000000000000000000000000000000000003F
:10715000000000000000000000000000000000002F
:10716000000000000000000000000000000000001F
:10717000000000000000000000000000000000000F
:1071800000000000000000000000000000000000FF
:1071900000000000000000000000000000000000EF
:1071A00000000000000000000000000000000000DF
:1071B00000000000000000000000000000000000CF
:1071C00000000000000000000000000000000000BF
:1071D00000000000000000000000000000000000AF
:1071E000000000000000000000000000000000009F
:1071F000000000000000000000000000000000008F
:10720000354936480A1A02D0072291438D4634493F
:1072100034480A1A06D00722914381F309880222D2
:1072200082F3148830483149314A00F044F831483B
:107230003149324A00F03FF831483249324A00F0D1
:107240003AF832483249334A00F035F83248334987
:10725000334A00F030F833483349344A00F02BF811
:1072600033483449344A00F026F83448344900227F
:1072700000F02CF833483449002200F027F8334856
:107280003349091A082902DB002202604160314AB1
:1072900090471F481F49884205D00268043003B454
:1072A000904703BCF7E700208646EC46002000210B
:1072B000294A9047FEE7884207D0521A05D0037842
:1072C00001300B700131013AF9D17047884202D088
:1072D00002700130FAE770470000042000E003204C
:1072E00000000420000004204CC80200D037002019
:1072F00044380020D0730200D07302004CB9020061
:107300004CC80200D0370020D037002060BA0200FD
:1073100060BA020060BA020060BA020060BA0200FD
:1073200060BA020060BA020060BA02004CC80200F3
:10733000C0C80200443800204438002044380020EF
:10734000F8410020F8410020F8410020F8410020D9
:10735000F86100209D730200D5A20200FEE7FEE75F
:10736000FEE7FEE7FEE7FEE7FEE7FEE7FEE7FEE7F5
:1073700000F002B8FFF7FCBF0F484FF00701884349
:1073800085460E4880470E48016841F4700101604F
:10739000BFF34F8FBFF36F8FFFF732BF09480A4922
:1073A0000A4A884207D0521A05D0037801300B7080
:1073B0000131013AF9D1704700000420618E0200CA
:1073C00088ED00E060BA0200D0370020D0370020FE
:1073D000F0B595B01D46164608460C4601F048FC2F
:1073E0001A9B0D93CDE9086500252B46082205A9B7
:1073F00020460A958DF82C500C9501F055FC079B02
:107400000293069B03939DF814308DF8115003F0FE
:107410000302012A1DD1BDF81420059DC3F3C20348
:10742000C2F383168DF81030B20008230EA920464F
:1074300001F03AFCC5F3952508AB0093324602AB48
:107440000EA9284600F0AEFB204601F015FC15B051
:10745000F0BD022AF8D1BDF81650C3F3C203C5F33C
:1074600089158DF810300827082D2E4628BF0826CC
:107470003B4632460EA9204601F016FCAD1B08AB78
:1074800002AA31460EA8374400F0F0FB002DEBD1E4
:10749000DAE70000014B01221A707047853800209E
:1074A0007047000070B50E4D06460FCD88B06C4693
:1074B0000FC495E80F00002E84E80F00094A0A481F
:1074C0004FF0060308BF00226946009301F0B8FEA2
:1074D00008B100F06DFC054B1E7008B070BD00BF18
:1074E00060BA020095740200D037002044380020B2
:1074F00007B5044B0093044A4023FFF769FF03B02C
:107500005DF804FB0D7502004538002038B50D48C4
:107510000D4C0E4D002323700378EB5CD2B263B1A7
:10752000043002F055FD08B100F042FC084B1A7817
:1075300012B12378002BFBD038BD0C3002F0D8FA02
:10754000F1E700BFD037002085380020F83E00204A
:107550004438002008B50848084A0378D35C3BB19A
:10756000043002F0A5FCBDE808400020FFF79ABFF8
:107570000C3002F055FAF6E7D0370020F83E002034
:107580000120FFF78FBF000008B5FFF7F9FF04489F
:10759000042100F071FA034B01225A7108BD00BFAB
:1075A00050BA0200E4370020037813F0040216D02A
:1075B00003F00303012B03D0022B09D001207047F5
:1075C0000A6800880232C0F3831002440A60F5E7BB
:1075D0000B684288023303EB92130B60EEE7104610
:1075E000704700002DE9F04FDFF81CA187B00F466F
:1075F00000230446861C0DF1070015468DF8073060
:1076000000F01AFEDAF804203A60DAF8083003F5E0
:1076100080739B1A0AF21C470AF583690AF2144820
:10762000B3421AD30020002D69D004F00F039B0150
:1076300043F0050363F30F00DAF80430DAB20332E3
:1076400033444AF822009DF80700CAF8043000F0DD
:1076500017FE012007B0BDE8F08F0121384601F088
:1076600036F8484601F04BF8404601F048F8DAF8A1
:1076700008000290C0B203300AEB800002A9FFF7B5
:1076800093FF029B30BBDAB20AEB8202D16803910E
:107690009A1C0133DBB20AEB83030292D3F80CB0DD
:1076A00001F00303012B22D0022B15D08346404664
:1076B00001F028F810B1029BCAF808305946384644
:1076C00001F005F8DAF80830DAF8042003F58073E1
:1076D0009B1AA5E7D8B2CEE7BDF80E30C3F38913E5
:1076E00003334FEA1B4B02EB93030293DFE7BDF832
:1076F0000C30C3F383134FEA1B4B1344F5E7A40587
:1077000044F0060098E700BF58390020064B0748B0
:1077100010B500221A7001F064FA044610B904484A
:1077200001F00CFB204610BD58390020B4B902000E
:10773000B4BA020030B50A4C71B10A4A0A49121BA8
:10774000D20800239A4201D1002030BD31F82350E5
:10775000854202D00133F5E7034654F83300F4E7DD
:10776000C8B9020050BA0200D0370020094B0139D5
:1077700003EBC000032909D8DFE801F00A02040680
:1077800004207047007970474079704700207047A7
:1077900002207047C8B9020070470000034BD3E9CC
:1077A0000130C31A58425841704700BF5839002071
:1077B0002DE9F04186B0FFF7F1FF0546002840F0C3
:1077C000ED80774CC4F81804BFF34F8FA368029381
:1077D000DBB2033304EB830002A9FFF7E5FE029B53
:1077E00018B1D4F81824002A5AD0DAB2991C0133FF
:1077F00004EB8202DBB204EB8303D268DB68049300
:1078000002F00303022B0392029154D1BDF80E3013
:107810006448C3F38917502F3E4628BF502606F10F
:10782000080166F38F13C1F30901ADF80E3001F0C2
:10783000F0F90546002800F09C8001F019FA0023B9
:10784000082203A9284601F025FA0299CB43DBB2AE
:107850000133C9B20331B6EB830F4FEA830204EB65
:10786000810125D95FFA82F80823A6EB080628468D
:1078700001F010FAF6B208F108034B4903F0FC03DB
:107880003246284601F006FA029B033703EB9707BE
:107890000297D4F81834002B43D1D4F8106453E085
:1078A00062689A4294D8A260284606B0BDE8F0818A
:1078B00008233246E5E7012B5BD1BDF80C3039488F
:1078C000C3F38311062928BF062161F3891302310E
:1078D00001F00F018900ADF80C3001F09AF905466E
:1078E000002846D001F0C4F90023082203A9284645
:1078F00001F0D0F90026BDF80C20C2F38312B300CA
:10790000964203F10803C4D202994A1CC9B203315A
:10791000029204EB81010422284601F0BBF90136F2
:10792000E9E7284601F0A8F9FFF738FF80F00100E9
:10793000C5B2B9E7F3685B7923B1336829461B68A0
:1079400030469847F3681E68002EF3D1284601F0B0
:1079500093F90DF107008DF8076000F06DFCD4F885
:1079600018340BB9029BA3609DF8070000F088FC57
:10797000DAE7D4F8104454B90C4B0D480D49C01A3D
:10798000C008000440F0020000F05EF8CCE7236875
:1079900020469B689847E3681C68ECE7002583E76E
:1079A00058390020B4B9020064390020C8B9020077
:1079B00000BA02009DBA02002DE9F34704460E46C4
:1079C000924601A9012218469946FFF70BFE1C4F6B
:1079D00010B3019D4FF00008AA1CC84508EB020136
:1079E00025D11848002100F043FE80F31000000468
:1079F00040EA1440E4006B1C04F03804DBB2EDB242
:107A000044F0010407EB8303033544EA881444EA95
:107A10008624D86047F825403B781BB1FFF7C8FEA5
:107A20000028FBD1FFF7B8FE02B0BDE8F087C9B26D
:107A300007EB81015AF82830CB6008F10108CCE748
:107A400058390020743D002000231A46FFF7B4BFC8
:107A500007B50123019201AAFFF7AEFF03B05DF85D
:107A600004FB07B5CDE9002302236A46FFF7A4FF14
:107A700003B05DF804FB000030B50F4CD4F81024BF
:107A800003460020114631B9D96808714AB9C4F8D3
:107A900010340A6030BDC9680D79854206D0096886
:107AA000F1E7D26814680C601360F3E701300A282C
:107AB000E8D14FF0FF30EDE75839002038B5084BDA
:107AC0000125D3F810441D7004B938BDE3685D7119
:107AD000236820465B689847E3681C68F4E700BFAA
:107AE0005839002030B5C38885B004460D4633B1FF
:107AF000144A00921449154A284600F066FE217A7D
:107B000005291DD0637A4BB1A088FFF72FFE104BDB
:107B1000104953F82020284600F057FE227A0E4BD9
:107B2000A08853F8222003920021FFF703FE039A56
:107B30000A490346284605B0BDE8304000F045BE7E
:107B400005B030BDE0BA0200C8BA0200C0BA0200F7
:107B500054BB0200E5BA020078BB0200E8BA02009A
:107B600007B503460846197A052911D05B7A2BB16F
:107B7000094A0A49019000F028FE0198084901903D
:107B800000F023FE019803B05DF804EB00F012BE94
:107B9000002AF8D0F2E700BFE0BA0200E5BA02001E
:107BA000DDBA02002DE9F04385B01F460C9D00238D
:107BB00095F80C902B7306460C469046294638469D
:107BC000FFF790FFB8F1060F09D8DFE808F00412BC
:107BD000181F283340003146284600F0F6FD0022E9
:107BE00029463846FFF7BCFF85F80C9005B0BDE884
:107BF000F08322683146284600F0E7FDEFE7D4E93C
:107C000000233146284600F0E0FDE8E7A368009332
:107C10003146D4E90023284600F0D7FDDFE7E368CA
:107C20000193A36800933146D4E90023284600F06D
:107C3000CCFDD4E723690293E3680193A368009322
:107C40003146D4E90023284600F0BFFDC7E7636949
:107C5000039323690293E3680193A3680093314679
:107C6000D4E90023284600F0B0FDB8E708292DE943
:107C7000F74F80460E4617461C463DD800251B7B15
:107C80002573214610460193FFF72CFFDFF88CA0E7
:107C9000DFF88CB0AE4232D918F80520594620469C
:107CA00000F093FD0135082DF4D11B49DFF874A0D5
:107CB000DFF874B0204600F088FD4FF000094E4513
:107CC00024D918F809507E2D1ED8284603F0ACFDA3
:107CD000002814BF2A462E225946204600F075FD82
:107CE00009F10109B9F1080FE9D10122214638460D
:107CF000FFF736FF019B237303B0BDE8F08F5146B9
:107D0000204600F062FDCDE72E22E5E751462046F1
:107D100000F05BFDE4E700BFFCBA0200F8BA020025
:107D2000F2BA0200FABA0200FEBA020070B5084DBB
:107D3000084E00242B789C4201D3002070BD33688C
:107D4000012113F8340001F04BFB0134F2E700BFCE
:107D5000103E0020203E002073B5114D114E00242E
:107D60002B789C4215D300230DF107008DF80730C6
:107D700000F062FA0C4B00210020C3E900019DF8DD
:107D8000070000F07DFA094802B0BDE8704000F03D
:107D900049B9336813F8340001F070FB0134DFE7B0
:107DA000103E0020203E0020183E0020F03700202A
:107DB0001FB50021039001AA44F20100CDE9011191
:107DC00000F004F805B05DF804FB000008B572B6D9
:107DD000FFF774FEFFF7ECFC0028FBD1084BD3F84B
:107DE000F020D20700D500BEBFF34F8FD968054AF7
:107DF00001F4E0610A43DA60BFF34F8F00BFFDE793
:107E000000ED00E00400FA0510B5D0E90243D1E925
:107E10000202A04272EB03032CBF0120002010BD20
:107E200008B50A4800F05FFB094AD2E90031C018E2
:107E3000084BD3E9002341F10001904271EB0303A9
:107E400003D210F1807041F1000108BD103800200C
:107E5000283E0020A03E002037B505460C460A48C3
:107E600001A900F074FB60B10570446001A90648E7
:107E700000F097FB18B1054800F03AFB002003B072
:107E800030BD0420FBE700BF8C3E002010380020EE
:107E9000294B73B51E7804461EB90026304602B041
:107EA00070BD0028F9D0FFF7BBFFD4E90223904250
:107EB000994139D300230DF107008DF8073000F008
:107EC000BBF923692BB94FF0FF324FF0FF33C4E900
:107ED00002239DF8070000F0D3F9D4E90530984754
:107EE00000250DF107008DF8075000F0A5F9236972
:107EF000C3B1D4E90212B2F1FF3F08BFB1F1FF3FB5
:107F000005D05B1842F10002C4E9023235469DF803
:107F1000070000F0B5F9002DBFD00848214600F059
:107F20002CFFBBE71D46F2E7B3F1FF3F08BFB2F1FC
:107F3000FF3FB2D0F1E700BF303E0020A8BB0200F7
:107F400013B5114B114918680190082310485822A5
:107F500000F0EAFA044698B90E4A0F4801A900F069
:107F6000B3F9044660B90C48012100F09FFA0123DF
:107F70000A4A0948194600F001FA094B01221A7011
:107F8000204602B010BD00BFA2BB0200343E00205C
:107F90008C3E00208180020010380020FFFF7F000F
:107FA000303E002030B56AB103684FF0FF344FF027
:107FB000FF355A614A1E5142C3E9024551411961D8
:107FC000002030BD0720FCE7F7B5044600250DF181
:107FD000070017460E468DF8075000F02DF9D4E93A
:107FE0000223B3F1FF3F08BFB2F1FF3F07D1FFF714
:107FF00017FF301841F10001C4E9020101259DF885
:10800000070000F03DF955B12369A76103B126616E
:108010002146002003B0BDE8F040FFF71DBF284611
:1080200003B0F0BD37B5054600240DF107008DF80B
:10803000074000F001F9D5E90223B3F1FF3F08BF83
:10804000B2F1FF3F1FBF4FF0FF324FF0FF33C5E9E2
:10805000022301249DF8070000F012F934B12946EB
:10806000012003B0BDE83040FFF7F6BE204603B064
:1080700030BD0000014800F036BA00BF10380020C3
:108080002DE9F743064600F019FA40B1624AD2E9F9
:10809000003113F1807341F10001C2E90031002188
:1080A000304600F01AFA38B15C4C236823B12068DE
:1080B000FFF7EEFE002323600121304600F00DFAA9
:1080C00020B1FFF7ADFE564BC3E900015548534CB4
:1080D00001A900F076FA4FF0FF384FF0FF39A0B950
:1080E000DFF844814D4D404600F05DFE002800F071
:1080F0008580D0E90223B3F1FF3F08BFB2F1FF3F13
:1081000032D1404600F049FEEDE70378012B20D044
:10811000022B08D1444D284600F03FFE002877D0BE
:10812000C0E90289F7E75BB94168D1E90223B3F1FD
:10813000FF3F08BFB2F1FF3F02D03B4800F01DFEF9
:1081400001A9384800F068FA01A9364800F039FA68
:10815000C5E741682368994202D100232360EFE715
:10816000314800F023FEEBE7296891B12968D1E995
:10817000020182428B412FD22B68D3E90223B3F153
:10818000FF3F08BFB2F1FF3F03D02968404600F02F
:10819000F4FD404600F001FED0E902490746FFF732
:1081A0003FFE201A69EB0109012879F1000318DB71
:1081B000B0F5350F13D3FFF75DFF1C4A02441C488E
:1081C0004FF49603002100F0F9F890B92B6813B929
:1081D000304600F0CBF82F6003B0BDE8F0832246B4
:1081E000EDE71348002100F06EF93846FFF750FE26
:1081F00001E00D28F9D000232B6074E7074B1B68C2
:10820000002BE9D1304603B0BDE8F04300F0B2B82E
:10821000084B01221A7093E7283E0020A83E002058
:10822000A03E00208C3E0020A8BB0200FFFFB4004F
:1082300010380020303E002070B5EFF3108672B683
:108240000C4A946801239CB993600B4B0B4DD3F8F7
:10825000801029401160C3F88050D3F88410516019
:108260004FF0FF32C3F88420047006B962B670BDC7
:108270000370FAE7AC3E002000E100E0FC06FFBD21
:10828000084B9A6810B55AB150B9EFF3108172B625
:10829000054A1C6814605C685460986001B962B655
:1082A00010BD00BFAC3E002000E100E0435882B0AA
:1082B0003BB10023435043580193019B012002B07E
:1082C00070471846FBE70000F8B5204B4479204E74
:1082D00043F824201F4A204B06EBC4049B1A227942
:1082E000DB081B0432B143F002001C49FFF7ACFB72
:1082F0000820F8BD02680C88C2F8084590F90450BF
:108300008A7804795201002DD2B219DB14494F1931
:1083100087F8002301226D0904F01F0402FA04F417
:1083200041F82540427906EBC201012446F83200AB
:108330000C7143F003000B49FFF786FB0020D8E7E0
:10834000094904F00F040A55ECE700BFC03E0020C5
:10835000B83E0020C8B9020010BA0200B4BB020047
:1083600000E100E0D6BB020014ED00E0036801224A
:108370001A607047036801225A60704773B501F1B3
:108380005005AD000068ADB24FF480348C4000263B
:10839000C0F80843C0F84843465101F5A871455953
:1083A000019522F07F42019D40F82120C0F844430E
:1083B0000BB1C0F8044302B070BD00002DE9F74FC7
:1083C0000D4622F07F4402684FF4803705F15006D5
:1083D0008F408046B60002EB8500C2F84873B6B203
:1083E000C2F80873D2F8041599464FF0000BD0F884
:1083F0004035C0F8401542F806B05B1A9259009219
:1084000023F07F43012B009A4FEA850A0CD1264BBB
:108410004FF4806043F001039847D8F8003043F8E8
:1084200006B09B590193019BD8F80010D1F8046560
:10843000C1F84473A31B23F07F43012B1CD11A4BBB
:1084400005F5A875013443F0010341F825404FF4C8
:1084500080609847D8F80030D3F804359E4209D19F
:10846000D8F800300020C3F84473C3F8047303B095
:10847000BDE8F08F0D20FAE78A44C9F1FF13CAF86E
:108480004045D1F80405221A013A22F07F4203F553
:108490007F439342EED3002AE2D10134CAF840452B
:1084A000D1F804359842DAE7F0BB020003680222F3
:1084B000C3F8442309B1C3F80423704700684FF49C
:1084C0008271FFF7F3BE4FF4803303FA01F10368C2
:1084D000C3F84813C3F80813704750318900006887
:1084E00089B2FFF7E3BE0368D3F8040570470000C4
:1084F00090F90430002B09DB5A09012103F01F0316
:1085000001FA03F34032024941F82230704700BFBC
:1085100000E100E0024B034A1B681068184700BFE7
:10852000C03E0020B83E002010B561B1B2FBF3F4AC
:1085300003FB1424A4B244B9C0E90014846082810E
:10854000C381204610BD0E20FCE70920FAE737B5AD
:1085500050E8013F9DB2C48925448489A54228BFC3
:108560002D1B0489A54202BFBFF32F8F002207E015
:10857000C5EA030540E80154002CE9D14FF001029F
:108580008DF803200193019A0A609DF8031001F011
:10859000FF0321B1006810FA82F003B030BD184625
:1085A000FBE70A884B889A4209D150E8012FC2EABA
:1085B000024240E80123002BF7D101207047002040
:1085C000704737B550E8023F1FFAA3F5C488A542AB
:1085D00002BFBFF32F8F00220DE0C4892544848998
:1085E000A54228BF2D1BC3EA054540E80254002CD4
:1085F000E8D14FF001028DF803200193019A0A603F
:108600009DF8031001F0FF0321B1006800EB124058
:1086100003B030BD1846FBE70A884B889A4209D15F
:1086200050E8022FC2EA224240E80223002BF7D191
:10863000012070470020704701F01F024B09012103
:10864000914000EB830000F01EB801F01F030122EF
:108650009A404B0900EB8300D14300F02CB84B0942
:1086600001F01F0150F82300C84000F001007047DE
:1086700010B5034653E8000F0A4643E8002494F07F
:10868000000FF7D110BD10B5034653E8002F42EAA2
:10869000010043E8000494F0000FF6D110BD10B5BE
:1086A000034653E8000F00EA010243E8002494F077
:1086B000000FF6D110BD10B5034653E8002F02EAB3
:1086C000010043E8000494F0000FF6D110BD10B58E
:1086D000034653E8002F02EB010043E8000494F046
:1086E000000FF6D110BD10B5034653E8002FA2EBE2
:1086F000010043E8000494F0000FF6D110BD012101
:10870000FFF7C1BF0021FFF7CABF10B590B1D0E994
:10871000012301689B1ADBB20A60013BDBB2FF2B2D
:10872000026802D10020107110BD11684C1C146049
:108730000B70F2E70E20F7E737B5054600240DF180
:1087400007008DF80740FFF777FD2A686B6811680E
:1087500099420ED9481E106011F8013CEC68298A34
:1087600001FB0344AB6811791B1ADBB2994238BF95
:1087700013719DF80700FFF783FD204603B030BD5D
:1087800037B5054600230DF107000C468DF807307C
:10879000FFF752FD2A681368591C1160E968641AD2
:1087A000298AB4FBF1F41C709DF80700FFF768FDFF
:1087B00003B030BD826810B504462AB14369016830
:1087C000006998470023A36010BD0EB403B5039958
:1087D00021B104AB01AA019300F076F802B05DF874
:1087E00004EB03B070470A2938B504460D4602D1A0
:1087F0000D21FFF7F8FFA3682268591CA160D5542A
:10880000D4E901329A4204D32046BDE83840FFF74C
:10881000D1BF38BD2DE9F84F9846DDE90A4315462A
:1088200082460F460A464FF00109AA420FD2C145BF
:1088300038BFC14613F0010B01D16CB900240126E9
:10884000B8F1010F1BD908F1FF386E43F8E709F1C1
:108850000109B2FBF5F2E8E79B070ED5B8F1000F6E
:108860000CBF30262026A145E9D2013C31465046B6
:10887000FFF7B9FF002CF6D1E0E72026F3E7B7FBBE
:10888000F6F39D42E1D9DFF83C80B7FBF6F35046A2
:1088900018F8031006FB1377FFF7A5FF3346AB422A
:1088A000B6FBF5F6F1D2BBF1000F02D00CB1A14539
:1088B00001D3BDE8F88F20215046013CFFF793FF1C
:1088C000F4E700BFF6BB02002DE9F74F0546174657
:1088D0008846002900F03E8118F8011B49B92B7B1E
:1088E000002B00F03781284603B0BDE8F04FFFF7BA
:1088F00061BF252940F0B780002698F800302D2B65
:10890000424608F1010823D0302B24D02B2B25D050
:1089100000242A2B02F1010123D13B681A1D1B6898
:108920003A601C440A4613782E2B26D101324FF0B0
:10893000000A104610F8011BA1F1300CBCF1090F20
:108940001DD80A2303FB0A13A3F1300A0246F0E7FD
:1089500046F00106D1E746F00206CEE746F00406EF
:10896000CBE711F8013CA3F130000928DBD80A223B
:1089700002FB0434303C0A46CBE74FF0000A12F801
:10898000011B01F0FB0068289046F8D0782909D82F
:108990006F290CD8632962D022D8252963D05829A1
:1089A00000F0888098F80030002B95D197E7703957
:1089B0000829F7D801A353F821F000BF2F8B02003C
:1089C000A5890200A5890200C58A0200A5890200C6
:1089D000A38A0200A5890200A5890200B58A0200C7
:1089E000642901D06929DDD13A68D2F80090111DBF
:1089F00089EAE9723960A2EBE9724FF0010B092AAA
:108A000035DCD34538BFD3462CB1B9F1000F01DBBB
:108A1000720700D5013CB30702D5BAF1000F03D0AD
:108A2000F00701D44CBB0024B9F1000F2DDAC9F1D5
:108A300000092D212846FFF7D6FE06F00302022A80
:108A400004D1BAF1000F01D11CBB0024CDE90046CE
:108A500053460A2249462846FFF7DCFEA2E73B6858
:108A60001A1D19783A602846FFF7BDFE9AE70A23D7
:108A70000BF1010BB2FBF3F2C1E7A345D4D22021E5
:108A80002846013CFFF7AFFECCE77107D5D52B2177
:108A9000D0E7A345DAD230212846013CFFF7A3FEF8
:108AA000D2E73968CDE900460A1D3A6053460A22EA
:108AB0000968D0E739680A1D3A60CDE90046534697
:108AC0001022F5E73B681A1D3A6016F00106D3F84C
:108AD000009024D1B9F1000F03D0484602F005FF01
:108AE0000646B4421DD809F1FF3919F8011F0029C3
:108AF0003FF458AF2846FFF776FEF6E728460136E2
:108B0000FFF771FE19F806100029F7D1A642BFF44D
:108B100049AF20212846013CFFF765FEF6E7002615
:108B2000F0E720212846013CFFF75DFED9E73B68CE
:108B30001A1D3A60302128461C68FFF754FE782140
:108B40002846FFF750FE00220823CDE900322146D7
:108B5000102280E703B0BDE8F08F00BF2DE9F84F89
:108B6000B0F806A04579D2F800B09DF828900AFB2D
:108B700005F5043D88460BEB0301A94203F104040B
:108B800088BFA5EB030BB4FBFAF607460AFB1644B5
:108B9000C2F800B04EB9AAEB04055D4528BF5D469A
:108BA000BBF1000F04D1BDE8F88F3F68013EF1E74B
:108BB000043408EB06003C442A46B9F1000F0DD0FE
:108BC0002146ABEB050B02F034FEDA452E443F683C
:108BD00055464FF0000428BF5D46E1E701462046B8
:108BE000EFE7FFF792BDF8B546790146721E0546DC
:108BF000002393422D6803D30024A64202D8F8BD77
:108C00000133F6E70F682846FFF7BAFD013439460D
:108C1000F3E72DE9F843068ACD1C0746FFF78CFDE4
:108C2000043E35440446B5FBF6F5F0B14FF48073CD
:108C3000EDB28380C680013D076081464FF0000899
:108C4000A84512D23846FFF777FD064648B163794A
:108C50000133637108F10108C9F80000076081461B
:108C6000EEE72046FFF7BFFF34462046BDE8F88315
:108C700001210430FFF72BBD10B50121044604305B
:108C8000FFF731FDC0B220B92046BDE81040FFF724
:108C9000AABF10BD1FB503920022009203AAFFF7DE
:108CA0005DFF05B05DF804FB1FB503920122009241
:108CB00003AAFFF753FF05B05DF804FB41DF7047DF
:108CC000064B10B500241C70054B1C60BFF35F8F72
:108CD0000449054800F03BF8204610BDCC3E00207A
:108CE000D03E002010BC0200C43E002007B5002387
:108CF0000DF107008DF80730FFF79EFAF1EE103AFC
:108D000023F09F03E1EE103ABFF35F8F0A4B40223E
:108D1000C3F884219DF80700FFF7B2FA02F0CEFBFA
:108D200020B103B05DF804EBFFF7C8BF20BF40BF20
:108D300020BF03B05DF804FB00E100E0836800227F
:108D40005A60C3E904229A60DA601A6070470B68BF
:108D50004A684360934208BF0023016008BF436034
:108D60007047436843B10268916852680B4493426C
:108D7000436004BF00234360704770B544680646F3
:108D80000D46206818B1B3682946984718B923687A
:108D90002B60256070BD2468F3E74368186808B14C
:108DA00002681A607047436818687047436818681B
:108DB00000B97047884203D102681A6001207047E9
:108DC00003460068F4E7000010B50D49A1F5947260
:108DD000914201D800200FE08C1AE30F03EBE4036B
:108DE0005B1002EBC30452F83330834205D802D241
:108DF00004F10802ECE7606810BD2146E8E700BF17
:108E00001CC1020008B5FFF7DFFF024B002808BFB6
:108E1000184608BDDFBF02004FF08053D3F8300181
:108E2000A0F1080358425841704700004FF08053AA
:108E3000D3F83021082A06D1D3F83431052B02D8D3
:108E4000024AD05C70470020704700BF22C1020078
:108E5000024AD2F80034002BFBD0704700E00140FA
:108E600010B5FFF7D9FF40B14FF080430022C3F89F
:108E70000C21C3F81021C3F83825FFF7CDFF0028D7
:108E800046D04FF08052654BD2F80414C3F8201539
:108E9000D2F80814C3F82415D2F80C14C3F8281516
:108EA000D2F81014C3F82C15D2F81414C3F83015E6
:108EB000D2F81814C3F83415D2F81C14C3F84015AE
:108EC000D2F82014C3F84415D2F82414C3F8481576
:108ED000D2F82814C3F84C15D2F82C14C3F8501546
:108EE000D2F83014C3F85415D2F83414C3F860150E
:108EF000D2F83814C3F86415D2F83C14C3F86815D6
:108F0000D2F84014C3F86C15D2F84424C3F8702585
:108F1000FFF78CFF18B1424B424AC3F88C26FFF78B
:108F200085FF18B1404BFB22C3F81825FFF77EFFE1
:108F300070B14FF080414FF08053D1F8E42ED3F858
:108F4000583222F00F0203F00F031343C1F8E43E3E
:108F5000FFF76CFF20B1354B4FF40072C3F8402689
:108F6000FFF75AFF48B14FF08043D3F80024D207EF
:108F700044BF6FF00102C3F800242D4AD2F88830B4
:108F800043F47003C2F88830BFF34F8FBFF36F8F85
:108F90004FF08053D3F83021082A0ED1D3F8343162
:108FA000052B02D8234AD35C3BB14FF01023D3F8F2
:108FB00008224FF08043C3F858254FF01023D3F810
:108FC0000022002A03DBD3F80432002B22DA1A49EC
:108FD00001234FF01020C1F804351224FFF738FFA9
:108FE000C0F80042FFF734FFC0F80442FFF730FF3B
:108FF0000023C1F80435FFF72BFFBFF34F8F0C4957
:109000000E4BCA6802F4E0621343CB60BFF34F8F8C
:1090100000BFFDE70A4B0B4A1A6010BD00C00040BC
:10902000005000404881030000F0004000900240E2
:1090300000ED00E01CC1020000E001400400FA0560
:10904000183800200090D003074B1B5C1F2B86BFF5
:10905000064903F01F034FF0A041012202FA03F377
:10906000C1F80C35704700BF28C102000003005052
:10907000074B1B5C1F2B86BF064903F01F034FF0F5
:10908000A041012202FA03F3C1F80835704700BF7E
:1090900028C102000003005038B5074C051E04F13A
:1090A000080318BF1C4623682BB11A6822605B684E
:1090B00028469847F7E738BDDC3E002020B9054B2D
:1090C00001225A70FFF7E8BF012802D1014A9070CF
:1090D000F8E77047D43E002020B9034B01225A70B4
:1090E000FFF7DABF704700BFD43E002038B50E4C02
:1090F0002378B3B90D486360A3602361E36000F097
:10910000E7F8054602F0DAF908B900F0EDF80123B6
:109110002370074BD3F800340BB10123A37028460A
:1091200038BD8525F5E700BFD43E0020BD90020084
:109130000000014037B50D4C00230DF107008DF8FC
:109140000730FFF779F8E368013BE360E36833B980
:10915000074BD3F8005415B900F0D8F8A5709DF866
:109160000700FFF78DF803B030BD00BFD43E0020EC
:1091700000000140012813B50CD0032820D038B9D5
:10918000134B0122C3F88020BFF34F8FBFF36F8FC3
:1091900002B010BD0F4C00230DF107008DF8073011
:1091A000FFF74AF823780BB9FFF7A0FFE3689DF8B3
:1091B00007000133E3600123A370FFF761F8E7E7DD
:1091C00000F092F802B0BDE81040FFF7B3BF00BF57
:1091D00000E100E0D43E00201FB503788DF8003098
:1091E0004368019383688DF80830C368054A039388
:1091F000054B684653F8213052F82110984705B0C6
:109200005DF804FBE83E0020F03E00201FB5037827
:109210008DF800304368019383688DF80830C36887
:10922000054A0393054B684653F8213052F8211044
:10923000984705B05DF804FBE83E0020F03E0020B2
:10924000F0B5194B90F800C0DFF86CE043F82C2023
:10925000164B16460A6943F82C204B7F0EF80C304B
:109260000C4607460FCC89B06D460FC594E80F0039
:1092700085E80F003B78CDF810C01EF803304BB1E5
:10928000002E0B4A694608BF3246381D00F034FDF7
:1092900009B0F0BD002E074A694608BF324607F103
:1092A0000C0000F0EDFAF3E7F03E0020E83E00206D
:1092B000D99102000D920200F83E002000F180409A
:1092C000002382B0036003680193019B02B07047E2
:1092D000044A137923B90121106091801846704720
:1092E00085207047FC3E0020074B1A68D20704D443
:1092F000C02283F8002301221A604FF0804301222C
:10930000C3F81825704700BF00E100E04FF080422D
:1093100008B50223C2F808334FF48270FFF7CEFF7E
:109320000123D360D2F81834DB03FBD408BD00005E
:109330004FF0804110B5D1F8003163B14FF4807027
:10934000FFF7BCFF0D4B58790122C1F8082310B973
:109350005A711B6898474FF08042D2F8043163B1CC
:109360004FF48270FFF7AAFF0223C2F80833034BC1
:10937000BDE810401B680120184710BDFC3E0020CE
:1093800000F1804000F5C040002382B00360036814
:109390000193019B02B0704703681F2B83BF03F04A
:1093A0001F03036001484FF0A040704700030050C6
:1093B00007B5019001A8FFF7EFFF019B00EB8300C9
:1093C000D0F8003723F44033C0F80037D0F8003726
:1093D00043EA0141C0F8001703B05DF804FB000048
:1093E00073B5244D2E18044696F93020072A1DDD4A
:1093F000083A45FA82F595F860309B09032B10D1A5
:10940000019001A8FFF7C8FF019BD0F81015D940C3
:1094100001F001010231204602B0BDE87040FFF7C3
:10942000C7BF012B0CBF02210321F4E7D3B2072BE6
:109430001DD8930003F1804303F5C043D3F8100512
:1094400040F00100C3F8100502F1400040B2800076
:1094500080B2FFF795FF51B196F9303055F82330BF
:109460002BB1012303FA02F2034BC3F8042302B029
:1094700070BD00BF043F0020006000400E4B03445D
:1094800093F93020072A02DD0021FFF791BFD3B204
:10949000072B10D8930003F1804303F5C043D3F8A2
:1094A000101521F00101C3F81015012303FA02F28F
:1094B000024BC3F808237047043F002000600040BF
:1094C0002DE9FF470024CDE90244584D4FF4807246
:1094D000012102F1804303F5C04390B21B68012BC8
:1094E00006D1D5F804330B4202D0FFF749FF0C43F5
:1094F0000432B2F5907F4FEA4101EAD14B4BD3F8E9
:109500007C31012B11D14FF4BE70FFF739FF4FF0C2
:10951000A04344F00044D3F820250292C3F820254C
:10952000D3F820280392C3F82028E3B2D3B1404FE8
:1095300000250126344210D0AB0003F1804303F52F
:10954000C043D3F81005D3F8101557F8253023B1D0
:10955000C1F30141C0F3052098470135082D4FEABA
:109560004606E7D1002C59DA314D324C324E4FF0DD
:109570000008012716F9013B5A1C3CD0C3F3C20175
:1095800004A801445FFA83F911F8081C03F03F02B4
:1095900003F0070307FA03F319422CD001A8019244
:1095A000FFF7FAFE019B03F5E07350F82330C3F395
:1095B000014ABAF1020F0CBF032102211046FFF746
:1095C000F7FE01A80192FFF7E7FE019B07FA03F3FC
:1095D000C0F82035AB1893F9303055F8233053B12B
:1095E0004FEA9911032904D0BAF1020F19D10129C8
:1095F00001D11046984708F10108B8F1040FB9D11C
:109600004FF0A043D3F820250292C3F82025D4F8C8
:1096100020350393C4F820351343A7D104B0BDE827
:10962000F087BAF1030FE6D10229E1E700600040BC
:10963000043F002000030050643F0020014B1B68E2
:10964000184700BF703F00200E4B984237B50C46BC
:1096500002D0002003B030BD00230DF107008DF8CB
:109660000730FEF7E9FD084B1D7915B901221C6092
:109670001A719DF80700FEF703FE002DE9D01120B6
:10968000E8E700BF00200040703F0020034B9842F5
:1096900001BF034B00221A601A717047002000407E
:1096A000703F00200023435082B043580193019B38
:1096B00002B070470A4610B54FF48E71FFF7F2FF03
:1096C000136A9168C95C136A01331362C0F81C15F0
:1096D00010BD8B690A4610B54FF4847123B9FFF7AA
:1096E000E1FFD0F8183510BDFFF7DCFF536AD168F1
:1096F000D0F81805C854536A01335362F3E70000E9
:109700001FB501238DF80030044BCDE90110D3E9DA
:1097100000126846904705B05DF804FB783F0020D2
:1097200030B54D4DD5F804339A0585B051D5D5F8EF
:109730002431002B4DD04FF492712846FFF7B2FF31
:109740004FF40173C5F80833444B93F829200AB944
:1097500001226A60404902228DF80020D1F880245D
:10976000C1F8802403929A690292DA680192002279
:10977000C3E906226846D3E9001290473648D0F87C
:109780001C315BB1354A5169136A99424DD992F83F
:109790002830002B49D11146FFF78CFF2E48D0F816
:1097A0004431002B56D04FF4A271FFF77BFF2B4BB7
:1097B00093F829200AB1012202609A69002A49D04F
:1097C000586AD96800229A6105B0BDE83040FFF7B9
:1097D00097BFD5F804335B07D0D5D5F80831002BF7
:1097E000CCD01E4C1C482146FFF773FF636AA26968
:1097F0009A42C3D1E369E1684BB1A3612369E36095
:109800000023606AE3616362FFF77AFFB6E794F8CA
:1098100029300BB901236B600F4B4FF40172C3F871
:1098200008230023606AA361EEE70B484FF48E71B2
:10983000FFF738FF5369002BB0D051690291002324
:1098400091688DF80030019153616846D2E90013A8
:109850009847A3E705B030BD00200040783F0020C6
:109860001F2886BF00F01F00044B4FF0A04300F5F7
:10987000E070022243F82020704700BF0003005030
:109880002DE9F843604D90F804802C2303FB085326
:10989000064693F82A300C469146002B40F0AF80E4
:1098A0005A490068FFF7D0FE0746002840F0A9801B
:1098B0002268531C10D01F2A87BF554902F01F038E
:1098C00013464FF0A0410120984003F5E073C1F822
:1098D0000805032041F823006168481C0DD01F29AA
:1098E0008BBF01F01F030B4649484FF0A04003F522
:1098F000E0734FF0000C40F823C03068A369C0F853
:10990000243594F814C0637DBCF1010F4CEA0303C5
:10991000C0F86C35C0F81415C0F80C252BD1A3681D
:10992000591C0DD01F2B8BBF03F01F021A4638495C
:109930004FF0A04102F5E0724FF0000C41F822C058
:10994000E1684A1C13D01F2987BF314A01F01F0C60
:109950008C464FF0A0424FF0010E0EFA0CFE0CF5B3
:10996000E07CC2F808E54FF0030E42F82CE0C0F8A6
:109970000815C0F810352C2202FB08F2AB18C3F80A
:1099800004902369AB50B9F1000F20D04FF48E71D1
:10999000247FFFF787FE4FF4A2713068FFF782FE45
:1099A00032681C4BC2F80433130B42F307326101D7
:1099B000002AC9B21EDB1848841884F8001301215C
:1099C000520903F01F0301FA03F340F82230336811
:1099D0000422C3F800252C2303FB08530022C3E90B
:1099E000062283F829205A61012283F82A2038466A
:1099F000BDE8F883094A03F00F03D154E7E70827CD
:109A0000F5E71127F3E700BF783F00202197020018
:109A1000000300508000020000E100E014ED00E0CF
:109A20002DE9F04103680579284C0022C3F8002590
:109A30002C2202FB054201465268A2B1244AC3F817
:109A400008231A0B43F30733002B0CDB02F01F0033
:109A50005B090122824020331E4840F82320BFF3D7
:109A60004F8FBFF36F8F0B68D3F80C05D3F81485B5
:109A7000D3F80865D3F810754FF0FF329042C3F861
:109A80001425C3F80C25C3F80825C3F8102501D008
:109A9000FFF7E6FEB8F1FF3F02D04046FFF7E0FED9
:109AA0007A1C02D03846FFF7DBFE731C02D030462A
:109AB000FFF7D6FE0868FFF7E9FD2C2303FB0544FA
:109AC000002384F82A306360BDE8F081783F0020ED
:109AD0008402020000E100E00279044B2C2101FB2A
:109AE00002335869003818BF01207047783F0020C2
:109AF0002DE9F84F064690F8048089469246FFF714
:109B0000EBFF044600283CD1204F2C2508FB057BA9
:109B10004FF48E71CBF814A0CBF80890CBF820004E
:109B20008BF828003068FFF7BDFD306801238360A3
:109B30005946FFF7BFFDDBF804305D461BBB3068BC
:109B4000DBF814402B6A9C4211D83368D3F81C21EF
:109B5000002AFBD00122DA6000202C2303FB0877C7
:109B600000237B61BDE8F88F95F828303BB9D0F829
:109B70001C31002BF8D05946FFF79CFDE2E70F207F
:109B8000EBE71120EEE72046ECE700BF783F00202E
:109B90000023435082B043580193019B02B07047A9
:109BA0001FB501238DF80030044BCDE90110D3E936
:109BB00000126846904705B05DF804FBA43F002002
:109BC0007FB5434AD2F82461002E60D010464FF48E
:109BD0009271FFF7DDFF02238DF80030D2F8803458
:109BE000C2F880340393D2F83C350293394BDA68DB
:109BF00001920022C3E906226846D3E90012904789
:109C00003348D0F8443173B14FF4A271FFF7C0FF6D
:109C1000304B9A693AB10022C3E90622D968D0F8DC
:109C20003C05FFF7BDFF2A48D0F82031ABB14FF417
:109C30009071FFF7ADFF0123C360264B5A6962B1F3
:109C4000D0F84C150291002299688DF800200191FE
:109C50005A616846D3E9001290471D48D0F8583140
:109C60009BB14FF4AC71FFF793FF1A4B5A6962B185
:109C7000D0F84C150291002299688DF800200191CE
:109C80005A616846D3E90012904704B070BDD2F81B
:109C90001031002BB4D04FF488711046FFF778FFD5
:109CA0000C4BD2F83C0599698842A9D1DC69D96886
:109CB00064B1D2F8005225F02005C2F800521A69AA
:109CC0009C61DA60DE61FFF76BFF99E79C61FAE760
:109CD00000200040A43F00201F2886BF00F01F0086
:109CE000044B4FF0A04300F5E070022243F820201F
:109CF000704700BF000300502DE9F843664E90F80E
:109D00000480242303FB0863044693F820300D46A7
:109D10009146002B40F0BC8060490068FFF794FC3E
:109D20000746002840F0B68029684B1C10D01F2938
:109D300087BF5B4A01F01F030B464FF0A042012092
:109D4000984003F5E073C2F80805032042F82300A9
:109D50006A68501C0DD01F2A8BBF02F01F031346E8
:109D60004F484FF0A04003F5E0734FF0000C40F86F
:109D700023C02068AB69C0F8243595F814C06B7D0A
:109D8000BCF1010F4CEA0303C0F86C35C0F80C15A8
:109D9000C0F814252BD1AB68591C0DD01F2B8BBFDD
:109DA00003F01F021A463E494FF0A04102F5E0724F
:109DB0004FF0000C41F822C0E9684A1C13D01F295B
:109DC00087BF374A01F01F0C8C464FF0A0424FF07E
:109DD000010E0EFA0CFE0CF5E07CC2F808E54FF01F
:109DE000030E42F82CE0C0F80815C0F81035242204
:109DF00002FB08F2B318C3F804902B69B350B9F111
:109E0000000F2FD04FF488712A7FFFF7C1FE206822
:109E10004FF49071FFF7BCFE20684FF49271FFF78A
:109E2000B7FE20684FF4A271FFF7B2FE4FF4AC7199
:109E30002068FFF7ADFE23681A49C3F80413190B15
:109E400043F307335201002BD2B21CDB1648C5186E
:109E500085F8002301225B0901F01F0102FA01F1DC
:109E600040F8231023680822C3F80025242303FBAD
:109E700008660023C6E906337361012386F82030A3
:109E80003846BDE8F883094B01F00F015A54E9E761
:109E90000827F5E71127F3E7A43F0020C19B020044
:109EA000000300501003420000E100E014ED00E068
:109EB0002DE9F0413D4D06790468242303FB065348
:109EC00002465B68ABB13A4BC4F8083344F307333E
:109ED000002B4FEA14310CDB01F01F005B0901215C
:109EE00081402033334840F82310BFF34F8FBFF336
:109EF0006F8FD4F8003223F02003C4F800322423FB
:109F000003FB06539B6933B14FF4A2712046FFF760
:109F10003FFE012363604FF4AC712046FFF738FE2B
:109F20000123E360242303FB0653D4F858110029CE
:109F3000FBD0996919B1D4F844110029F5D0002358
:109F4000C4F800351368D3F80C05D3F81485D3F89A
:109F50000815D3F810754FF0FF329042C3F80C2566
:109F6000C3F81425C3F80825C3F8102501D0FFF75E
:109F7000B3FEB8F1FF3F02D04046FFF7ADFE7A1CBA
:109F800002D03846FFF7A8FE4B1C02D00846FFF768
:109F9000A3FE2046FFF77AFB242303FB065500238C
:109FA00085F820306B60BDE8F08100BFA43F002041
:109FB0001003420000E100E00279044B242101FB80
:109FC00002335869003818BF01207047A43F0020B1
:109FD00001F06043B3F1005F2DE9F0470646884683
:109FE00092463BD190F80490FFF7E6FF0446002824
:109FF00036D11D4F3068242505FB09754FF490714B
:10A00000C5F814A0C5F80880FFF7C2FD4FF4AC7185
:10A010003068FFF7BDFD33686A69A968C3F8441565
:10A02000C3F8482501229A606A68DAB9D3F820217A
:10A03000D3F858011AB90028F8D00F2007E00028FB
:10A04000FBD10122DA60D3F85821002AFBD0242367
:10A0500003FB097700237B61BDE8F0871020FBE755
:10A060001120F9E72046F7E7A43F002000234350E2
:10A0700082B043580193019B02B070472DE9F04133
:10A08000224E234FDFF88C8000244FF48035D7F820
:10A090000433A6F580412B4289B20CD0336853B10A
:10A0A000C7F848533846C7F80853FFF7DFFFD8F81A
:10A0B0000030E0B298470134042C4FEA450506F120
:10A0C0000406E4D11248D0F80433DA070AD5D0F8F0
:10A0D00000313BB14FF48071FFF7C8FF0D4B2046B4
:10A0E0001B6898470A48D0F804339B070CD5D0F872
:10A0F00004314BB14FF48271FFF7B8FF054BBDE857
:10A10000F0411B6805201847BDE8F081404102403E
:10A1100000400240C83F002072DF704773DF704785
:10A1200076DF70477ADF70477CDF70477FDF7047EC
:10A130008FDF7047B1DF7047FDF73ABE08B5064BB9
:10A1400001211878FFF7EAFF08B1FDF731FEBDE8FD
:10A1500008400020FEF778BF2C3800200388212B10
:10A1600073B5044672D007D8112B45D0132B66D097
:10A17000102B0CD002B070BD522B75D0562B01D0D5
:10A180003B2BF7D1A0881321FFF7CAFF49E000F06D
:10A19000E9FD394BA2883949054639481B1ADB08C5
:10A1A0001B0443F00300FDF753FC364A002310461E
:10A1B0004FF6FF7156888E4218D10C22A18802FBFF
:10A1C000030001F00DF808B1FDF7F2FDFDF7AEFD5B
:10A1D00008B1FDF7EDFD0120FEF736FF042D29D172
:10A1E000002002B0BDE87040FEF742BF0133042BEF
:10A1F00002F10C02DED1E9E700F0B4FD1E4D237A36
:10A20000A288214906461E482D1AED082D0445F066
:10A210000300FDF726FC5EB90120FEF729FFFDF7DC
:10A220009BFD0028A6D002B0BDE87040FDF7C0BD80
:10A23000032E9FD102B0BDE87040FFF77FBF00231F
:10A240001A4685218088FFF771FFEAE7002380889E
:10A250008DF8043001A98DF80530FFF769FF00285B
:10A2600088D0FDF7A5FD85E700231A4619468088AA
:10A27000FFF760FFD5E700BF00BA020057C1020038
:10A28000C8B90200504000207EC1020038B50C4C15
:10A290000C4BE41AE4082404054644F003040220AD
:10A2A00042B1FEF7D1FE08492A462046BDE83840B3
:10A2B000FDF7CEBBFEF7DCFE04492A46F5E700BFFA
:10A2C00000BA0200C8B90200B2C10200D2C1020045
:10A2D000FDF76EBD00B54FF48041A7B00020FDF73B
:10A2E00015FA08B1FDF764FDFDF74EF9FDF728FEFC
:10A2F00008B1FDF75DFDFEF7E3FC08B1FDF758FD81
:10A3000001F09EF808B1FDF753FD002317A90120C5
:10A31000179301F021F908B1FDF74AFD17A801F0E4
:10A32000BDF908B1FDF744FD112357498DF82030E0
:10A330000D2208A8FFF7F8FE08B1FDF739FD00234C
:10A34000ADF860305023ADF85C30A023ADF85E303E
:10A3500017A84FF4C873ADF86230FFF7E3FE08B1F9
:10A36000FDF726FD4948002100F016FE08B1FDF773
:10A370001FFD474B474D1793002417A9284600F0AF
:10A380001DFF08B1FDF714FD0134042C05F10C0587
:10A39000F3D1414B4148089308A900F099FF08B157
:10A3A000FDF706FD00F0DCFC41F22353ADF804306C
:10A3B0003A4B3B4C9B7C8DF806303C22002108A890
:10A3C00001F060FA02238DF820303C2240F2016354
:10A3D000002117A8ADF8223001F054FA22460123DB
:10A3E000ADF86C3052F8041B01AB08A81C9300F0C8
:10A3F000DFF808B1FDF7DCFC2A4AA16817A800F0D5
:10A40000D7F808B1FDF7D4FC1822002102A801F00A
:10A4100039FA4023049322492348012302AA8DF8E4
:10A4200008308DF81D30FFF777FE08B1FDF7C0FC4E
:10A430001822002117A801F025FA4FF4A0334FF499
:10A44000A022CDE9182303238DF8683001238DF86D
:10A450006C3017A8154B1D9300F07EFB08B1FDF77B
:10A46000A7FC134B13481449C01AC008000440F05D
:10A470000300FDF7E9FAFFF761FEFDF799F90028FF
:10A48000FBD1FEF733FCF8E7F3C102000C400020DB
:10A4900039A10200504000208DA202003840002067
:10A4A0001C380020283800202C380020D1A20200BF
:10A4B000C8B9020000BA020001C202006DDF704795
:10A4C00079DF70477DDF704764DF70472DE9F04F1B
:10A4D00085B000250E9CBDF83CB0B4F800A00191F9
:10A4E000074690461E46A9463A884A450DDC45B1C6
:10A4F0002388013BA3EB0A039BB2FF2B3AD806F853
:10A500000A30002005B0BDE8F08F7A6852F82900C3
:10A51000039000220DF10B0103A8FFF7D5FF0028DF
:10A52000F0D19DF80B20424521D12288002D14BF87
:10A530000020022002EB0801014459451ADC3DB914
:10A54000013292B2019B2280B354228801322280D0
:10A5500022880DF10B01324403A8FFF7B5FF002854
:10A56000D0D121889DF80B200A442280012509F1D1
:10A570000109B9E70C20C5E72DE9F341089FBDF8B3
:10A5800024801546CDE90078022204461E46FFF7D6
:10A590009DFF50B93346102229462046CDE9087860
:10A5A00002B0BDE8F041FFF791BF02B0BDE8F08115
:10A5B0002DE9F04F00231788138090F82D3085B0D7
:10A5C00006460D4614465BB3082F01D80C2028E13F
:10A5D00002A8FFF773FF002840F023812388DDF8ED
:10A5E00009100822EA54238801339BB21B222380DE
:10A5F000EA54238801339BB2EA182380E950BDF85E
:10A600000D30938023889DF8082006339BB212F00A
:10A61000FE0218BF01222380EA54238801332380DD
:10A62000B378FBB123880433BB42CFD802A8FFF72D
:10A6300047FF002840F0F58023880322EA5423884E
:10A6400001339BB219222380EA542388BDF80820E5
:10A6500001339BB2E9182380EA54120A4A70238816
:10A6600002332380F2789AB12388D91CB942ADD83D
:10A670000221E954238801339BB201212380E9544C
:10A6800023880B449BB22380EA5423880B44238005
:10A690007268AAB12388D91CB94297D8022192F9CD
:10A6A0000020E954238801339BB20A212380E95416
:10A6B000238801339BB22380EA542388013323800B
:10A6C0003389002B40F0A180338A5BB1CDE900478C
:10A6D0002B460722032106F11000FFF74DFF00284B
:10A6E00040F09F80338B5BB1CDE900472B461522AC
:10A6F000142106F11800FFF73FFF002840F0918079
:10A70000326A002A40F09080D6F82480B8F1000F19
:10A7100030D0B8F804302188981C8A1C0244BA4210
:10A720003FF654AFFE283FF651AF03336B542388F6
:10A7300001339BB2FF222380EA54238801339BB26A
:10A740002380B8F80020EA54E918120A4A702088D9
:10A75000023080B22080B8F804205AB1D8F808102E
:10A7600000296BD0284401F064F82388B8F804204D
:10A770001344238096F82C30002B40F098803078DA
:10A7800000284ED03388012B58D0228802F1020CC9
:10A79000BC453FF61BAF012805D173780233134443
:10A7A0009F42FFF413AF023FBF1ABFB202A905EBED
:10A7B0000C00ADF80870FFF785FE90BB3178BDF84E
:10A7C0000830022900F0B98072789A4202D39F4281
:10A7D00080F0B180012940F0B280974293B2C0F07E
:10A7E000AE80ADF808300821BDF80830FE2B3FF6EA
:10A7F000EDAE22880133AB542288013292B222801E
:10A80000A9542288134423800BE0CDE900472B464E
:10A810000622022106F10800FFF7AEFE00283FF4F1
:10A8200053AF05B0BDE8F08FB4F800C00CF10603DB
:10A83000BB423FF6CBAE1188052901D80720F0E7CF
:10A840006FF4486E01EB0E039BB24FF27D3E7345F1
:10A85000F4D95388052BF1D96FF44860181880B2E9
:10A860007045EBD94FF6FF70814201D09942E5D88F
:10A87000052305F80C30238801339BB21221238075
:10A88000E954238801339BB223801188E954E818E6
:10A89000090A4170238802339BB223805288EA540C
:10A8A000E918120A4A702388023323802CE7B36A1E
:10A8B000002BC3D04FF000084FF00C0A4FF0160BDE
:10A8C000B16A5FFA88F20AFB02F201EB0209B9F8F9
:10A8D0000430981CFE283FF679AE208803332B54B1
:10A8E000238801339BB2238005F803B0238801330A
:10A8F0009BB223808A5AEA54E918120A4A702088C7
:10A90000023080B22080B9F804205AB1D9F808107A
:10A91000002993D0284400F08CFF2388B9F8042044
:10A920001344238096F82C2008F101085FFA88F37D
:10A930009A42C5D823E7092156E79F42FBD2ADF8DA
:10A94000087050E775DF704776DF70477ADF704731
:10A950007BDF7047074B30B50022142404FB02F163
:10A96000CD5A854201D1581830BD0132042AF5D1A3
:10A970000020F9E79C400020024B9B6903B1184777
:10A98000704700BF8040002073B585B22846FFF7AE
:10A99000E1FF044638B3174E027A337B9A420CD259
:10A9A00000F10A012846FFF7CDFFF0B111281AD0B7
:10A9B00002B0BDE87040FFF7DFBF00230372337CB5
:10A9C00043B13B212846FFF7BFFF30F0080301D019
:10A9D000FFF7D2FF736933B100228DF80420ADF880
:10A9E000065001A8984702B070BD237A0133237244
:10A9F000F9E700BF8040002037B50B46497A0F4A7F
:10AA000079B9D2E901141D7A0246002D18BF2146FA
:10AA10005868FDF7D9FA78B103B0BDE83040FFF7C8
:10AA2000ABBF00211972536933B10122ADF80600A2
:10AA30008DF8042001A8984703B030BD8040002065
:10AA40004B8802889A4212D842889A420FD3808853
:10AA50008B8840F2F311884294BF021A421A9A423C
:10AA600005D80844984234BF0020012070470020D8
:10AA7000704700000388122B70B504465AD004D8E2
:10AA8000102B1ED0112B45D070BD502BFCD1304B5C
:10AA9000C288DB899A42F7D1038A022BF4D18688D7
:10AAA0003046FFF757FF05460028EDD004F11200AD
:10AAB00000F081F940BB6868FDF7B4FA0028E3D0E4
:10AAC00009E0C37B012BDFD14FF6FF70FFF742FF98
:10AAD000054620B90420BDE87040FFF74DBF1D4A70
:10AAE000A6880680002303721368C0F80A305368F2
:10AAF000C0F80E3004F110010A30FFF7A1FF144B2B
:10AB00006872DB89002BBFD129463046BDE8704012
:10AB1000FFF772BF8088FFF71DFF04460028B3D0FF
:10AB20004068FDF77FFA08B1FFF726FF4FF6FF7385
:10AB30002380A9E786883046FFF70CFF05460028EA
:10AB4000A2D004F108010A30FFF77AFF6872DBE750
:10AB500080400020EC4000202DE9F041064698B3EB
:10AB600005460FCD1A4F3C460FC495E8070084E810
:10AB700007003068174C3C60F8B1FFF7E7FE08BBF0
:10AB800032681368236053686360134C134EDFF818
:10AB9000508000254FF6FF7720462780424640F838
:10ABA000046F0021FDF7FEF980B90135042D04F191
:10ABB000140406F12006EFD104E02046FFF7C8FE9A
:10ABC0000028E2D0BDE8F0810E20FBE70320F9E782
:10ABD00080400020EC4000209C400020F8400020F5
:10ABE00089A902000AB1FDF727BDFDF72EBD0000BF
:10ABF00002487C22002100F045BE00BF78410020C1
:10AC000073B50191019C06466CB100252C4629467E
:10AC100001A8FDF724FD18B106EB440301349D8023
:10AC20000135142DF3D13046346002B070BD000000
:10AC30002DE9F04703888488103B8CB005460A2B29
:10AC400021D8DFE803F006402020202020202065C6
:10AC50004700DFF8E880D8F80830DB430093D8F8E5
:10AC600004106846FDF727FD009901A8FFF7C8FF0B
:10AC70000DF108090027019B9F4207D3132C12D91D
:10AC80000420FDF795F80CB0BDE8F08739F802AB69
:10AC900000260136514608EB8600FDF7D6FC1E2E35
:10ACA000F7D10137E7E71F482146FDF7C5FC1E48ED
:10ACB0002146FDF7C1FCEB7B022BE4D11B4821466A
:10ACC000FDF7BAFCDFE7174821460CB0BDE8F047B6
:10ACD000FDF7BBBC027A16483F2A4FEA12152146FF
:10ACE00094BF00220122FFF77DFF022D94BF0022B6
:10ACF000012210482146FFF775FF012D0E4894BF31
:10AD00000022012221460CB0BDE8F047FFF76ABFE0
:10AD1000037A002BB7D1427A0548C2F3C00221461C
:10AD2000F1E700BF804100207C41002084410020E9
:10AD3000904100208C410020884100207841002073
:10AD400037B5002401902546214601A8FDF787FC70
:10AD500000B101350134142CF6D1284603B030BDC2
:10AD6000FFF746BF07B5074AD368DB4301939168F5
:10AD700001A8FDF7A0FC0198FFF7E2FF03B05DF822
:10AD800004FB00BF78410020AADF70470023013890
:10AD90000B70042806D8DFE800F00306080A0C0050
:10ADA00011230B7070472123FBE73123F9E71223AE
:10ADB000F7E72223F5E7008800F001007047F0B5BF
:10ADC0008B7891B00C46012B38BF012300278DF8FA
:10ADD0000E3005460B88607CADF80C306946ADF846
:10ADE00000708DF80270FFF7D1FFA07C0DF101011A
:10ADF000FFF7CCFF1646237BE27B217D43EAC203AB
:10AE0000227C43EA02139DF80220B94222F0190283
:10AE100003F0190314BF02210121134361F342031C
:10AE20001C22394609A88DF8023000F02BFD637B07
:10AE300013F0300F14D00DF10901E07CADF808706B
:10AE40008DF80A70FFF7A2FF11238DF808309DF8E6
:10AE50000A30012102AA61F342038DF80A300E92F2
:10AE6000637B8DF82430A37B8DF825300023CDE95A
:10AE70000633089303AB0493A388ADF81C30A36892
:10AE8000CDF814D01BB1E288ADF818200893A3695F
:10AE900073B301A90022ADF804208A701A88ADF8B6
:10AEA0002C205A88ADF82E205A680D91187B0A92F2
:10AEB000FFF76CFFA3690DF10501587BFFF766FFF3
:10AEC000A3699A7A197A41EAC201DA7A9B7B41EA4C
:10AED00002119DF80620002B01F0190122F0190241
:10AEE00014BF02230123114363F342018DF80610BE
:10AEF000E36903B10C93334604AA09A92846FFF776
:10AF000043FF11B0F0BD90DF7047A5DF7047B5DF9C
:10AF1000704700007FB50023ADF80810ADF80A10A7
:10AF20006A4602A90646ADF80C30ADF80E30009323
:10AF3000ADF80430FFF7E7FF054600B3114B124CA4
:10AF4000E41AE408FDF75EFF240444F0010403461C
:10AF50000E4932462046FCF784FDBDF80020BDF8BE
:10AF6000023052EA030103D009492046FCF779FD7B
:10AF7000BDF804201AB107492046FCF769FD2846B0
:10AF800004B070BDC8B9020020BA020022C202009B
:10AF90006CC20200ABC2020010B5A0B14FF0171393
:10AFA00003601B238162037100F12004172100223A
:10AFB000C18001818272C272037343730830A04260
:10AFC000F6D1002010BD0E20FCE70000F7B5858803
:10AFD000032D0C461AD80388242B4FEAC50700F02E
:10AFE000A18015D8112B79D0232B00F0AE80102B27
:10AFF00042D03C44A37A4BB1E1882846FFF785FF55
:10B00000002840F0A9804FF48073638103B0F0BD45
:10B010003A2B6BD0552BECD1C388CE19172BF18866
:10B0200038BF17238B4228BF0B4633810023B372EE
:10B030002846FFF76CFF60B1FDF7E4FE504B514925
:10B04000024651481B1ADB081B0443F00100FCF7C1
:10B05000FFFCF37A002BCCD1A36A002BC9D040F6B9
:10B060007722ADF800203289ADF80250ADF8042007
:10B07000694620469847BCE7C37B0A79CE19012B65
:10B08000327313D0022B14D0F18833898B4205D24E
:10B090002846FFF73AFF70B90123F372317B737BC7
:10B0A0008B42A6D22846FFF735FFA2E70B88F38034
:10B0B000EAE74B88FBE7112802D10123B372EDE7E1
:10B0C000FDF7A0FE2E4B314902462F481B1ADB0824
:10B0D0001B0443F00100FCF7BBFCDFE7CB19172290
:10B0E000DA809A6041F61B329A8182E7CE19438951
:10B0F000F288934228BF1346172B8A6A38BF17235A
:10B10000338162B1F17A51B140F67721ADF8001088
:10B11000ADF80250ADF80430694620469047002350
:10B12000738166E7CB19027A5A738B6A002B3FF45E
:10B1300060AF00218DF805104DF67A21ADF80010B2
:10B14000ADF802508DF8042092E7CB19017A1B7BF1
:10B15000994228BF1946A5E711283FF457AFFDF7DC
:10B1600051FE074B0949024607481B1ADB081B041E
:10B1700043F0010003B0BDE8F040FCF769BC00BF3C
:10B1800020BA020032C30200C8B9020001C30200A3
:10B19000B0DF704766DF704710B500210446408875
:10B1A000FFF7F8FF034608B9237210BD112801D13B
:10B1B0000123F9E76368BDE81040184760B159B151
:10B1C0000378DE2B0AD00B684360DE2303704FF652
:10B1D000FF734380002070470E207047082070479F
:10B1E00028B10378DE2B04D14180002070470E2067
:10B1F000704708207047F0B5054685B00C46002919
:10B2000042D0002840D00B78DE2B3DD182884B887D
:10B210009A4204D10B7A13B10846FFF7BDFF2B8881
:10B22000112B33D0512B0FD0012B2DD12B7A012B89
:10B230002AD1A9886288914226D12046237205B07E
:10B24000BDE8F040FFF7A8BFAE886388B3421BD1CA
:10B25000AF79022F18D1AD7B2B1F022B14D8002100
:10B260001022684600F00EFB052D18BF4FF4C07386
:10B270006946304618BFADF804308DF80070FFF70E
:10B2800087FF08B16368984705B0F0BD6388AA8856
:10B290009A4204BF4FF6FF736380F5E7A8DF70475B
:10B2A00062DF70470288502A10B40DD1C4884A88E2
:10B2B000944209D1028A012A06D14B6923B1827CCA
:10B2C0005DF8044B808818475DF8044B7047000018
:10B2D000F0B50B6843618FB0334B02AA044603F10B
:10B2E0001007164618685968154603C50833BB424F
:10B2F0002A46F7D104F112013046FFF7D1FF0028AA
:10B300004FD1A37C8DF80630224641F2235301A988
:10B310000120ADF80430FFF7C1FF002841D10146FC
:10B32000202206A800F0AEFA41F22453ADF81830FE
:10B33000A37C8DF81A309DF82530224623F01203A5
:10B3400001254FF0011643F0120332F80A0B07965D
:10B3500006A98DF825308DF829508DF82B50FFF770
:10B360002EFDF0B90146202206A800F08BFA41F22A
:10B370002553ADF81830A37C8DF81A309DF8253090
:10B380000796224623F00A0343F00A0332F8020B21
:10B390008DF8253006A98DF829508DF82A50FFF731
:10B3A0000EFD0FB0F0BD00BF6EC3020010DF70478E
:10B3B00013B5044609496846FDF7C9FC019808B968
:10B3C00002B010BDD0E900212046904718B1684670
:10B3D000FDF7C7FCF2E71120F2E700BF8CC30200C3
:10B3E00013B5044607496846FDF7B1FC019B0BB94C
:10B3F00002B010BD2046D3E9002190476846FDF712
:10B40000B0FCF3E7A4C302000B4991F816335A09C4
:10B41000EC231341DB0706D5084B9A683AB94FF481
:10B4200080030B60704742F20200FCF7C1BC1A684F
:10B4300042F480021A60704700E100E0AC3E002058
:10B44000F7B5194F3C7864BB184E0125204635707E
:10B45000FFF7AEFF112821D02046FFF7C1FF144BA4
:10B460008DF80340186801900DF10300FCF7E4FE2D
:10B47000104901A8FFF79AFF0446B0FA80F040098E
:10B4800038709DF80300FCF7FBFE3CB90A4B3470A2
:10B490001C70FFF7B9FF2846FFF7A2FF204603B054
:10B4A000F0BD0824FAE700BFF5410020F441002078
:10B4B00086C30200CD7D0200F6410020014B1878C2
:10B4C000704700BFF541002007B508496846FDF701
:10B4D0003EFC019B13B903B05DF804FBD3E90020E7
:10B4E00090476846FDF73DFCF3E700BF98C30200B4
:10B4F000FFF7EABF60DF704769DF704761DF7047C1
:10B5000030B5134B1B7891B0FBB1124D34240DF1C3
:10B51000020103A8ADF80240FFF7F0FF70B9294619
:10B5200001A8FDF714FC029B002BF0D003A8D3E97F
:10B530000021904701A8FDF714FCF4E7052804D08A
:10B5400011B0BDE83040FCF733BC11B030BD00BFD6
:10B55000F7410020E8C5020030B50C4685B000294F
:10B5600000F089800023CDE90133444A039304238A
:10B570000A608DF804008DF8063001A9062320200A
:10B58000ADF80830FFF7B8FF60B1FDF73BFC3C4B6E
:10B590003C4902463C481B1ADB081B0443F00100EF
:10B5A000FCF756FA0023CDE9013303930423226804
:10B5B0008DF805300DEB03014020FFF79DFF60B1D2
:10B5C000FDF720FC2E4B314902462F481B1ADB08A1
:10B5D0001B0443F00100FCF73BFA00230120226822
:10B5E000039301A9CDE901338DF80400FFF784FF2F
:10B5F00060B1FDF707FC224B2549024622481B1A81
:10B60000DB081B0443F00100FCF722FA0023CDE91C
:10B61000023322684FF4B06301A9A1200193FFF720
:10B620006BFF60B1FDF7EEFB154B1A490246164859
:10B630001B1ADB081B0443F00100FCF709FA002584
:10B640002268039501A9A020CDE90155FFF754FF19
:10B65000034668B1FDF7D6FB094B0F4902460A487D
:10B660001B1ADB081B0443F00100FCF7F1F92B4621
:10B67000184605B030BD0E23FAE700BFD0370020D2
:10B6800030BA0200B0C30200C8B90200F6C302001B
:10B6900042C402008EC40200DFC4020073B5054636
:10B6A0000668FFF727FF2B68B34204461DD91A48E6
:10B6B0001A4B1B491B1ADB081B0443F002000190C4
:10B6C000FCF7C2F92B68174901983246FCF7C9F913
:10B6D0004FF080532A68D3F80C31134901989B022C
:10B6E00003F100539A1AFCF7B3F92CB90F4B01225E
:10B6F0001A70204602B070BD2046FDF783FB074B51
:10B700000B49024604481B1ADB081B0443F00100E6
:10B71000FCF79EF9EDE700BFC8B9020030BA02009D
:10B7200032C5020061C5020092C50200F741002047
:10B73000BCC502004BDF70471FB50E4C01A8FFF7D8
:10B74000F9FF70B9214602A8FDF701FB039B002B0E
:10B75000F4D00198D3E90021904702A8FDF701FB3E
:10B76000F4E7052804D004B0BDE81040FCF720BB86
:10B7700004B010BD00C602007F2805D8034B185C3A
:10B78000034B5B5C184070470020704718C60200EE
:10B7900098C60200A0F16103192B98BF20387047AA
:10B7A000A0F14103192B98BF203070477F2805D89E
:10B7B000034B185C034B5B5C1840704700207047DC
:10B7C00018C6020098C60200A0F16103192B98BFA9
:10B7D00020387047A0F14103192B98BF20307047E3
:10B7E0007F299ABF017001206FF02E0070475AB177
:10B7F0000A787F2A0AD800B10260002119605960D6
:10B80000501A18BF01207047002070476FF02E00BB
:10B810007047000008B5034B5B689B681B6898473E
:10B8200008BD00BF3038002008B50921FFF7F2FF3E
:10B8300008BD844640EA010313F0030F18D1844683
:10B84000202A0BD32DE9F007B1E8F807A0E8F807A4
:10B85000A2F12002202AF7D2BDE8F007042A07D37C
:10B8600051F8043B40F8043BA2F10402042AF7D249
:10B87000002A05D011F8013B00F8013B013AF9D14B
:10B88000604670478446002A2DD010F0030F04D084
:10B8900000F8011B013A26D0F7E7C9B241EA0121BD
:10B8A00041EA0141202A12D3A2F120022DE9F0033E
:10B8B0000B460C460D460E460F4688468946A0E8C4
:10B8C000FA03203AFBD2BDE8F00320320BD0042A61
:10B8D00005D340F8041B043A05D0042AF9D200F835
:10B8E000011B013AFBD16046704700F1010110F0E5
:10B8F000030F11D010F8012B002A23D010F0030FF2
:10B900000AD010F8012B002A1CD010F0030F03D02E
:10B9100010F8012B002A15D02DE970004FF00132EC
:10B920004FF0803350F8044BA4EB020525EA0405E0
:10B930001D4000D1F6E7A0F1040070BC10F8012B07
:0CB94000002AFBD1A0EB010070470000C2
:08B94C00D99002000000000088
:10B9540031AC020000000000CDAF02000C4000201A
:10B9640075AA020000000000F7B102005040002058
:10B97400F7B102005C400020F7B1020068400020EB
:10B98400F7B1020074400020A5B202003840002044
:08B994005DA1020000000000AB
:08B99C0075910200000000009B
:10B9A40001B502000000000039B7020000000000E9
:10B9B4008838002050390020583900209038002061
:04B9C4001800000067
:10B9C80052C102000000030332C10200000000005F
:10B9D80038C10200000000003FC102000000000062
:10B9E8004EC102000000000043C102000000000038
:10B9F80048C1020000000000AEBA020000000303C4
:10BA08008CBB02000000000097BB02000000000091
:10BA18002CC102000000000061C302000000030303
:10BA28007EC3020000000303D9C50200000003031F
:10BA3800F4C502000000030306BC02000000000079
:08BA48001CBC0200000000001C
:10BA500080BA0200000000008CBA0200E437002027
:10BA6000FFFFFFFFFFFFFFFFFFFFFFFFFFFFFFFFE6
:10BA700000000000000000000000D60106010000E8
:10BA8000F174020055750200A174020075617274B0
:10BA90005F6C6F675F6261636B656E6400426163D8
:10BAA0006B656E647320666C7573686564006170A5
:10BAB00070000000783D00207F000000F83D00206D
:10BAC0001B5B313B33316D0025734C6F6773206412
:10BAD000726F70706564202825642925730D0A0033
:10BAE0001B5B306D002573003C25733E2025733AA7
:10BAF0002000202530327800202020007C002563A3
:10BB0000001B5B313B33306D001B5B313B33326DCF
:10BB1000001B5B313B33336D001B5B313B33346DBA
:10BB2000001B5B313B33356D001B5B313B33366DA6
:10BB3000001B5B313B33376D006572726F720077AB
:10BB400061726E696E6700696E666F00646562752A
:10BB500067000000E0BA020001BB0200C0BA0200A8
:10BB600009BB020011BB020019BB020021BB02008D
:10BB700029BB020031BB02000000000039BB0200FB
:10BB80003FBB020047BB02004CBB02006170705F0C
:10BB9000627574746F6E006170705F74696D657248
:10BBA000000001000600000000000000243E00200C
:10BBB000097E020052544320696E7374616E63659E
:10BBC00020616C726561647920696E697469616C69
:10BBD000697A65642E005254433A20696E6974692B
:10BBE000616C697A65642E000000000000000000AE
:10BBF0000338FDD870473031323334353637383971
:10BC00004142434445467077725F6D676D74000032
:10BC10009CB902009CB9020004000000736F7274AA
:10BC20006C697374004E52465F53554343455353FA
:10BC3000004E52465F4552524F525F5356435F4843
:10BC4000414E444C45525F4D495353494E47004E77
:10BC500052465F4552524F525F534F4654444556E9
:10BC60004943455F4E4F545F454E41424C45440069
:10BC70004E52465F4552524F525F494E5445524EC6
:10BC8000414C004E52465F4552524F525F4E4F5FFD
:10BC90004D454D004E52465F4552524F525F4E4FFA
:10BCA000545F464F554E44004E52465F4552524FE8
:10BCB000525F4E4F545F535550504F5254454400BD
:10BCC0004E52465F4552524F525F494E56414C4983
:10BCD000445F504152414D004E52465F4552524FD3
:10BCE000525F494E56414C49445F535441544500BC
:10BCF0004E52465F4552524F525F494E56414C4953
:10BD0000445F4C454E475448004E52465F455252A0
:10BD10004F525F494E56414C49445F464C41475350
:10BD2000004E52465F4552524F525F494E56414C6B
:10BD300049445F44415441004E52465F4552524F80
:10BD4000525F444154415F53495A45004E52465F49
:10BD50004552524F525F54494D454F5554004E5233
:10BD6000465F4552524F525F4E554C4C004E524624
:10BD70005F4552524F525F464F5242494444454EEE
:10BD8000004E52465F4552524F525F494E56414C0B
:10BD900049445F41444452004E52465F4552524F1F
:10BDA000525F42555359004E52465F4552524F52D0
:10BDB0005F434F4E4E5F434F554E54004E52465FC9
:10BDC0004552524F525F5245534F555243455300CF
:10BDD0004E52465F4552524F525F4D4F44554C456F
:10BDE0005F4E4F545F494E495449414C495A45446E
:10BDF000004E52465F4552524F525F4D5554455882
:10BE00005F494E49545F4641494C4544004E5246B5
:10BE10005F4552524F525F4D555445585F4C4F430A
:10BE20004B5F4641494C4544004E52465F45525295
:10BE30004F525F4D555445585F554E4C4F434B5FE5
:10BE40004641494C4544004E52465F4552524F527E
:10BE50005F4D555445585F434F4E445F494E4954DA
:10BE60005F4641494C4544004E52465F4552524F51
:10BE7000525F4D4F44554C455F414C5245414459EA
:10BE80005F494E495449414C495A4544004E524637
:10BE90005F4552524F525F53544F524147455F46A0
:10BEA000554C4C004E52465F4552524F525F4150E6
:10BEB000495F4E4F545F494D504C454D454E54459A
:10BEC00044004E52465F4552524F525F46454154E0
:10BED0005552455F4E4F545F454E41424C454400DC
:10BEE0004E52465F4552524F525F494F5F50454E4A
:10BEF00044494E47004E52465F4552524F525F44AE
:10BF000052565F5457495F4552525F4F5645525201
:10BF1000554E004E52465F4552524F525F44525664
:10BF20005F5457495F4552525F414E41434B004E6B
:10BF300052465F4552524F525F4452565F545749E2
:10BF40005F4552525F444E41434B004E52465F455F
:10BF500052524F525F424C455F495053505F5258C6
:10BF60005F504B545F5452554E4341544544004E2C
:10BF700052465F4552524F525F424C455F495053C3
:10BF8000505F4348414E4E454C5F414C5245414401
:10BF9000595F455849535453004E52465F455252DB
:10BFA0004F525F424C455F495053505F4C494E4B96
:10BFB0005F444953434F4E4E4543544544004E520F
:10BFC000465F4552524F525F424C455F4950535075
:10BFD0005F504545525F52454A45435445440055DC
:10BFE0006E6B6E6F776E206572726F7220636F6416
:10BFF000650000000000000025BC020001000000F8
:10C0000031BC0200020000004FBC0200030000002F
:10C0100070BC02000400000083BC020005000000A8
:10C0200094BC020006000000A8BC0200070000004B
:10C03000C0BC020008000000D8BC020009000000DB
:10C04000F0BC02000A00000009BD02000B00000065
:10C0500021BD02000C00000038BD02000D000000F0
:10C060004CBD02000E0000005EBD02000F0000008B
:10C070006DBD02001000000081BD02001100000033
:10C0800098BD020012000000A7BD020013000000CE
:10C09000BCBD020080000000D0BD02008100000095
:10C0A000F1BD0200820000000DBE0200830000000E
:10C0B00029BE02008400000047BE02008500000087
:10C0C00068BE0200860000008DBE020090000000E5
:10C0D000A4BE020091000000C2BE02009200000057
:10C0E000E0BE020000820000F5BE020001820000F6
:10C0F00013BF0200028200002FBF02000084000074
:10C100004BBF0200018400006FBF020002840000E8
:10C1100099BF020003840000BEBF020000000000BF
:10C1200001010100000000000D0E0F10636C6F6331
:10C130006B00434C4F434B004750494F5445005010
:10C1400052530055415254005541525445005254E7
:10C150004300414D544300436F6E6E656374696FD5
:10C160006E2077697468206C696E6B203078257852
:10C170002065737461626C69736865642E00436F37
:10C180006E6E656374696F6E203078257820686103
:10C1900073206265656E20646973636F6E6E65639C
:10C1A0007465642E20526561736F6E3A2030782575
:10C1B00058005265636569766564204C4544204F9C
:10C1C0004E2066726F6D206C696E6B20307825781A
:10C1D00021005265636569766564204C4544204FB3
:10C1E00046462066726F6D206C696E6B2030782534
:10C1F0007821004E6F726469635F426C696E6B797F
:10C20000004D756C74697065726970686572616CF7
:10C21000206578616D706C652073746172746564FB
:10C220002E0073645F626C655F6761705F64617448
:10C23000615F6C656E6774685F75706461746528B2
:10C240002920287265717565737429206F6E2063CB
:10C250006F6E6E656374696F6E203078257820721A
:10C26000657475726E65642025732E0054686520B0
:10C270007265717565737465642054582F52582027
:10C280007061636B6574206C656E67746820697398
:10C2900020746F6F206C6F6E672062792025752F78
:10C2A0002575206F63746574732E00546865207261
:10C2B000657175657374656420636F6D62696E6125
:10C2C00074696F6E206F6620545820616E6420522E
:10C2D00058207061636B6574206C656E6774687359
:10C2E00020697320746F6F206C6F6E6720627920F5
:10C2F0002575206D6963726F7365636F6E64732E4D
:10C300000073645F626C655F67617474635F657816
:10C310006368616E67655F6D74755F726571756581
:10C32000737428292072657475726E656420257394
:10C330002E0073645F626C655F67617474735F6520
:10C34000786368616E67655F6D74755F7265706C48
:10C350007928292072657475726E65642025732EA4
:10C36000006E72665F626C655F676174740023D1F2
:10C37000BCEA5F782315DEEF1212000000006E7237
:10C38000665F736468000100000700009CB902004A
:10C390009CB9020008000000A4B90200B4B9020070
:10C3A000080000009CB90200A4B9020008000000C7
:10C3B00073645F626C655F6366675F736574282989
:10C3C0002072657475726E656420257320776865C8
:10C3D0006E20617474656D7074696E6720746F206F
:10C3E00073657420424C455F434F4E4E5F43464752
:10C3F0005F4741502E0073645F626C655F636667E0
:10C400005F73657428292072657475726E65642087
:10C410002573207768656E20617474656D7074692A
:10C420006E6720746F2073657420424C455F4741EE
:10C43000505F4346475F524F4C455F434F554E5404
:10C440002E0073645F626C655F6366675F7365741B
:10C4500028292072657475726E65642025732077B3
:10C4600068656E20617474656D7074696E672074A0
:10C470006F2073657420424C455F434F4D4D4F4EC6
:10C480005F4346475F56535F555549442E007364DA
:10C490005F626C655F6366675F73657428292072ED
:10C4A000657475726E6564202573207768656E20EB
:10C4B000617474656D7074696E6720746F20736544
:10C4C0007420424C455F47415454535F4346475F95
:10C4D000415454525F5441425F53495A452E0073B0
:10C4E000645F626C655F6366675F736574282920AB
:10C4F00072657475726E6564202573207768656E49
:10C5000020617474656D7074696E6720746F207338
:10C51000657420424C455F47415454535F4346473E
:10C520005F534552564943455F4348414E47454452
:10C530002E00496E73756666696369656E74205274
:10C54000414D20616C6C6F636174656420666F722D
:10C550002074686520536F66744465766963652E40
:10C56000004368616E6765207468652052414D2004
:10C570007374617274206C6F636174696F6E20668E
:10C58000726F6D203078257820746F203078257890
:10C590002E004D6178696D756D2052414D20736993
:10C5A0007A6520666F72206170706C69636174696E
:10C5B0006F6E20697320307825782E0073645F6277
:10C5C0006C655F656E61626C6528292072657475A3
:10C5D000726E65642025732E006E72665F736468E8
:10C5E0005F626C650000000054B902009CB9020053
:10C5F000080000006E72665F7364685F736F6300AB
:10C600004CB9020054B902000800000043000000C9
:10C61000504F534958000000202020202020202087
:10C6200020682828282820202020202020202020A2
:10C630002020202020202020481010101010101042
:10C64000101010101010101084848484848484844A
:10C65000848410101010101010818181818181015B
:10C6600001010101010101010101010101010101BA
:10C670000101011010101010108282828282820249
:10C68000020202020202020202020202020202028A
:10C6900002020210101010200007032004170201EC
:10C6A00008571040800000000CC6020010C70200AE
:10C6B00024C8020053756E004D6F6E0054756500FE
:10C6C00057656400546875004672690053617400D0
:10C6D000000000004A616E00466562004D61720014
:10C6E000417072004D6179004A756E004A756C00A8
:10C6F00041756700536570004F6374004E6F76009C
:10C700004465630000000000414D00504D000000F2
:10C7100048C8020044C8020044C8020044C80200DD
:10C7200044C8020044C8020044C8020044C80200D1
:10C7300044C8020044C80200FFFFFFFFFFFFFFFFE5
:10C74000FFFFFFFFFFFF000084C70200B4C6020026
:10C75000C0C70200D4C6020008C7020068C70200B2
:10C7600018C8020074C70200256D2F25642F257993
:10C770000000000025612025622025652025542029
:10C780002559000053756E646179004D6F6E6461C8
:10C79000790054756573646179005765646E6573DB
:10C7A00064617900546875727364617900467269D6
:10C7B00064617900536174757264617900000000EE
:10C7C0004A616E756172790046656272756172794F
:10C7D000004D6172636800417072696C004D61794F
:10C7E000004A756E65004A756C790041756775730E
:10C7F000740053657074656D626572004F63746F89
:10C80000626572004E6F76656D62657200446563A5
:10C81000656D62657200000025483A254D3A255342
:10C820000000000079B7020095B70200A1B702002E
:10C83000ADB70200C9B70200D5B70200E1B70200E8
:0CC84000EFB70200000000002E00000016
:10C84C00000000000020004000000000002000401C
:10C85C000000000000000000FF00000000000000CD
:10C86C000000000000000000FFFFFFFFFFFFFFFFC4
:10C87C0000000000000000000000000000000000AC
:10C88C0000100140110004000090D003CC3F0020A8
:10C89C001F000000EB3F00201F000000FF00000005
:10C8AC00A8C60200A8C60200A8C60200A8C60200BC
:04C8BC00A8C6020008
:0400000320007375F1
:00000001FF
