:020000022000DC
:1070000000000420757302005D7302005F730200CC
:1070100061730200637302006573020000000000E8
:107020000000000000000000000000006773020084
:1070300069730200000000006B7302006D730200B0
:10704000AD0A03006F73020059E7020025F5020044
:107050006F7302006F730200DDE502006F730200C0
:107060006F7302006F7302006F7302006F73020090
:107070006F7302006F7302006F7302006F73020080
:107080006F730200F98E02006F7302006F730200CB
:107090006F7302006F730200413A03006F730200C6
:1070A0006F7302006F7302006F7302006F73020050
:1070B0006F7302006F730200000000000000000008
:1070C0006F7302006F7302006F7302006F73020030
:1070D0005DE802006F7302006F730200E9040300B1
:1070E0006F7302006F7302006F73020000000000F4
:1070F000000000006F730200000000006F730200C8
:10710000000000000000000000000000000000007F
:10711000000000000000000000000000000000006F
:10712000000000000000000000000000000000005F
:10713000000000000000000000000000000000004F
:10714000000000000000000000000000000000003F
:10715000000000000000000000000000000000002F
:10716000000000000000000000000000000000001F
:10717000000000000000000000000000000000000F
:1071800000000000000000000000000000000000FF
:1071900000000000000000000000000000000000EF
:1071A00000000000000000000000000000000000DF
:1071B00000000000000000000000000000000000CF
:1071C00000000000000000000000000000000000BF
:1071D00000000000000000000000000000000000AF
:1071E000000000000000000000000000000000009F
:1071F000000000000000000000000000000000008F
:10720000354936480A1A02D0072291438D4634493F
:1072100034480A1A06D00722914381F309880222D2
:1072200082F3148830483149314A00F044F831483B
:107230003149324A00F03FF831483249324A00F0D1
:107240003AF832483249334A00F035F83248334987
:10725000334A00F030F833483349344A00F02BF811
:1072600033483449344A00F026F83448344900227F
:1072700000F02CF833483449002200F027F8334856
:107280003349091A082902DB002202604160314AB1
:1072900090471F481F49884205D00268043003B454
:1072A000904703BCF7E700208646EC46002000210B
:1072B000294A9047FEE7884207D0521A05D0037842
:1072C00001300B700131013AF9D17047884202D088
:1072D00002700130FAE770470000042000E003204C
:1072E0000000042000000420187D0300B487002063
:1072F000048F0020D0730200D0730200E04B030023
:10730000187D0300B4870020B48700206850030074
:107310006850030068500300685003006850030081
:10732000685003006850030068500300187D030094
:1073300068840300048F0020048F0020048F002045
:1073400014EF002014EF002018EF002018EF0020A9
:10735000180F01209D730200E5190300FEE7FEE708
:10736000FEE7FEE7FEE7FEE7FEE7FEE7FEE7FEE7F5
:1073700000F002B8FFF7FCBF0F484FF00701884349
:1073800085460E4880470E48016841F4700101604F
:10739000BFF34F8FBFF36F8FFFF732BF09480A4922
:1073A0000A4A884207D0521A05D0037801300B7080
:1073B0000131013AF9D170470000042055DB020089
:1073C00088ED00E0F44E030040860020B4870020E2
:1073D000004870470CEF00207047000007B5044BD1
:1073E0000093044A402300F030F803B05DF804FB3A
:1073F000F9730200058F00202DE9F84388461446F2
:10740000B2B10F4B0F4E0325002743F0010922466E
:1074100008EB070100200AF03FFD0744241A48B991
:1074200033782BB14FF47A40C847013D02D1357013
:10743000BDE8F88301233370002CE8D1F8E700BFE2
:1074400070500300048F00207047F0B595B01D46C2
:10745000164608460C4604F07BFA1A9B0D93CDE9BC
:10746000086500252B46082205A920460A958DF8B7
:107470002C500C9504F088FA079B0293069B03930B
:107480009DF814308DF8115003F00302012A1DD12C
:10749000BDF81420059DC3F3C203C2F383168DF813
:1074A0001030B20008230EA9204604F06DFAC5F38F
:1074B000952508AB0093324602AB0EA9284600F092
:1074C000F9FE204604F048FA15B0F0BD022AF8D1C2
:1074D000BDF81650C3F3C203C5F389158DF81030FB
:1074E0000827082D2E4628BF08263B4632460EA9FF
:1074F000204604F049FAAD1B08AB02AA31460EA89B
:10750000374400F03BFF002DEBD1DAE7014B0122BD
:107510001A707047469300207047000070B50E4DFA
:1075200006460FCD88B06C460FC495E80F00002EBC
:1075300084E80F00094A0A484FF0060308BF0022FA
:107540006946009306F0E0FD08B101F015F9054B1E
:107550001E7008B070BD00BF845003000D7502009E
:10756000B4870020458F002007B5054B0093054ADE
:107570004FF48063FFF769FF03B05DF804FB00BFC1
:1075800089750200468F002038B50D480D4C0E4D10
:10759000002323700378EB5CD2B263B1043007F0B0
:1075A000D3FE08B101F0E8F8084B1A7812B123783D
:1075B000002BFBD038BD0C3007F0D4FBF1E700BF47
:1075C000B487002046930020C0DD0020458F0020B6
:1075D00008B50848084A0378D35C3BB1043007F08B
:1075E00023FEBDE808400020FFF798BF0C3007F0ED
:1075F00051FBF6E7B4870020C0DD002000230428FB
:10760000CB604B6098BF044B044A98BF53F82030BE
:107610008A600B60704700BFFC540300D85403001D
:10762000CB6800225A717047C368DB6800225A7128
:107630007047CB6801225A717047C368DB6801222A
:107640005A7170470D4A8A6070B50D4A0D4C00237F
:10765000121BCB604B600B6012091D469A4207D08B
:10766000E6683679FF2E05D0854202D1A3680B600B
:1076700070BD013501331034F0E700BF1055030031
:10768000F44E0300B44E03002DE9F3478368D3F8AA
:107690004831C3F340059B07074606D50022114633
:1076A00002B0BDE8F04703F04BBA144E144CDFF8BB
:1076B0005880DFF85890DFF858A0A41B2409A54291
:1076C00002D102B0BDE8F087F168B3680A79FF2AF9
:1076D00007D10C4A0821384602F0F4F9013510367A
:1076E000EDE74879002814BF41464946CDE900122C
:1076F00038465246082102F0E5F9EFE7B44E0300A0
:10770000F44E0300C1500300B0500300B850030012
:10771000E05003002DE9F74F154D164C9946641BB8
:1077200052F8043C06468846174624094FF0000BE1
:107730005C4507D1104A0221304603B0BDE8F04F46
:1077400002F0C0B9A968019318460CF0D5FEAA460C
:10775000019B103540B93B46424651463046CC4627
:1077600003B0BDE8F04F60470BF1010BE0E700BF4D
:10777000B44E0300F44E030001510300014BFFF728
:10778000C9BF00BF717B0200014BFFF7C3BF00BF41
:1077900021760200014BFFF7BDBF00BF3376020028
:1077A000014BFFF7B7BF00BF4D7C0200037813F019
:1077B000040216D003F00303012B03D0022B09D0DF
:1077C000012070470A6800880232C0F38310024427
:1077D0000A60F5E70B684288023303EB92130B60F3
:1077E000EEE71046704700002DE9F04FDFF828A1C2
:1077F00087B00F4600230446861C0DF1070015468E
:107800008DF8073001F0FCF9DAF804203A60DAF874
:107810000830404F03F580539B1AA7F10409A7F1E4
:107820000808B3421BD30020002D6ED004F00F03D4
:107830009B0143F0050363F30F00DAF80430C3F350
:107840000B02033233444AF822009DF80700CAF8BD
:10785000043001F0F9F9012007B0BDE8F08F0121F3
:10786000384601F016FC484601F03CFC404601F069
:1078700039FCDAF808000290C0F30B0003300AEB81
:10788000800002A9FFF792FF029B40BBC3F30B02EB
:107890000AEB8202D16803919A1C0133C3F30B03F4
:1078A0000AEB83030292D3F80CB001F00303012B1F
:1078B00023D0022B16D08346404601F016FC10B1AF
:1078C000029BCAF808305946384601F0E2FBDAF864
:1078D0000830DAF8042003F580539B1AA1E7C3F3BC
:1078E0000B00CBE7BDF80E30C3F3891303334FEA27
:1078F0001B4B02EB93030293DEE7BDF80C30C3F39E
:1079000083134FEA1B4B1344F5E7A40544F006002C
:1079100093E700BFD4D90020B8990020012907B50A
:10792000034604D08168D1F84811890707D50022A1
:107930001146184603B05DF804EB03F001B9536833
:107940000193054B00931368044A022102F0BAF830
:1079500003B05DF804FB00BF215103001751030081
:107960008368D3F848319B0703D50022114603F002
:10797000E7B8024A022102F0A5B800BF3651030061
:10798000FFF7EEBF30B599B10A4B0B4A0B49D21A3B
:10799000D20800239A4201D1052006E031F8235095
:1079A0000468A54202D10360002030BD0133F1E735
:1079B0000846FAE7D44C0300244E030064860020F6
:1079C0002DE9F84F1E4B1F4800221A7003F079FF73
:1079D000814690BB1C48DFF880801C4CDFF87CA0FF
:1079E00004F053F9A4EB0804E4084D46A54208D17D
:1079F0000023174A19469C421AD022F8231001335B
:107A0000F9E700273E4608EBC50BB54209D058F808
:107A10003610DBF8000014220CF06EFC0028C8BF02
:107A200001370136B442F0D12AF825700135DDE77F
:107A30000848A20000210CF00AFD4846BDE8F88F76
:107A4000B8990020244E0300CC540300244E0300B8
:107A5000668600200C870020D44C0300648600203A
:107A600007B5019001A8FFF78DFF30B9019A044BCB
:107A700053F8320003B05DF804FB0020FAE700BFC2
:107A8000D44C0300002310B5CB604B60034B8B60DC
:107A90000C460121FFF7E4FF206010BDD85403001D
:107AA000094B013903EBC000032909D8DFE801F0D5
:107AB0000A02040604207047007970474079704735
:107AC0000020704702207047D44C030030B5124CA0
:107AD00000EB400054F8215002FA00F3072202FAAA
:107AE00000F06B400D4A03406B40C3F3821044F832
:107AF000213002EB8101C3F3C202824238BF024649
:107B0000C3F34220824203F0070338BF0246934288
:107B100038BF13464B8030BD0C87002064860020A0
:107B200013B50446019101A8114693B1FFF72AFF4E
:107B300010B1002002B010BD01990B4A04EB4400C3
:107B400052F8212007238340134023FA00F0C0B2EB
:107B5000F0E7FFF717FF0028EBD1019A034B03EB87
:107B6000C2039879E6E700BF0C870020D44C0300DD
:107B7000294B2A4A2DE9F04F9B1A4FEAD30ACB68CA
:107B80005B7985B005460E461BB9254A022101F0F6
:107B900099FF244B244ADFF8A4800821284601F0ED
:107BA00091FF224A0821284601F08CFF0024544509
:107BB00002D105B0BDE8F08FF36893F8049001237B
:107BC0001A4621464846FFF7ABFF0023074601222D
:107BD00021464846FFF7A4FF01210328814683463A
:107BE000204628BF4FF00309FFF73AFF5FFA89F9F3
:107BF0000F4A58F82910034658F827000D4F0090F7
:107C0000CB4598BF1746CDE901170B4A08212846F6
:107C100001F058FF0134CAE7244E0300D44C03009E
:107C2000495103005C510300685103008651030071
:107C3000E258030047510300C3510300E854030016
:107C400013460A46C168FFF793BF00002DE9F04FC5
:107C50002DED028B054683B09B461646002A5DD06B
:107C6000DBF80070CB68554993F804A038460CF057
:107C700043FC0446F0B9012E09D1514A022128469D
:107C800003B0BDEC028BBDE8F04F01F01BBFDBF889
:107C900004304C4F57F8041B00930A2218460CF08E
:107CA0002BFB002800F083800134052C009BF1D1D0
:107CB000454A15E0454938460CF01EFC044668B9B3
:107CC000012E36D04FF00108414B424AA3EB020986
:107CD0004FEAD9030093DFF808914FE03E4A3B4654
:107CE0000221284603B0BDEC028BBDE8F04F01F045
:107CF000E9BE00231A4631465046FFF711FFA04265
:107D000011D200213046FFF7ABFE42460346022166
:107D1000284601F0D7FE0136BE42EAD103B0BDECE1
:107D2000028BBDE8F08F224631465046FFF7CEFE6B
:107D3000F1E7274F274BDFF8A480FF1AFF08002642
:107D4000EAE700213846FFF78BFE18EE101A2022D2
:107D50000CF0D2FA034608B1013716E00246019052
:107D600039465046FFF7DCFEA042019B18D322465D
:107D700039465046FFF7AAFE08F10108B045CDD2BA
:107D80005BF8283008EE103A0027009BBB42D8D1A0
:107D90005BF828304A460221284601F093FEEBE7C3
:107DA00019463846FFF75CFE0C4A0346F3E7022EFD
:107DB000E4B2BED04FF0020886E700BFD9510300FD
:107DC000E0510300E85403004B520300F751030055
:107DD000244E0300D44C0300FF510300145203004F
:107DE0003752030013460A46C168FFF72FBF70479A
:107DF000034BD3E90130C31A58425841704700BFC2
:107E0000B89900202DE9F04786B0FFF7F1FF06464C
:107E1000002840F01A818E4C04F58045A861BFF31C
:107E20004F8FA3680293C3F30B03033304EB830068
:107E300002A9FFF7BBFC029B10B1AA69002A68D017
:107E4000C3F30B02991C013304EB8202C3F30B034F
:107E500004EB8303D268DB68049302F00303022B74
:107E60000392029160D1BDF80E307A489DF80C6003
:107E7000C3F38919B9F5487FC84628BF4FF448783D
:107E800008F1080168F38F13C1F30901ADF80E3052
:107E900003F02FFDC6F3C2060746002800F0BD80A0
:107EA00003F056FD03A938460023082203F062FDC3
:107EB0000299C843C0F30B000130C1F30B01033139
:107EC000B8EB800F4FEA800A04EB810129D9A8EBB7
:107ED0000A085FFA8AFA08235246384603F04AFD38
:107EE0005FFA88F85C490AF108034246384603F015
:107EF00041FD029B09F1030903EB9903B04602938C
:107F0000AB69002B4ED12E69DFF860A14FF0070955
:107F10006FE062689A4286D8A260304606B0BDE83B
:107F2000F08708234246E1E7012B76D1BDF80C60CB
:107F30004848C6F38311062928BF062161F3891634
:107F4000023101F00F018900ADF80C6003F0D1FCA3
:107F5000C6F3C206074600285FD003F0F9FC0023F1
:107F6000082203A9384603F005FD4FF00008BDF8CC
:107F70000C20C2F383124FEA8803904503F10803F3
:107F800001D3B046BCE702994A1CC1F30B0103318F
:107F9000029204EB81010422384603F0EBFC08F165
:107FA0000108E4E7384603F0D7FCFFF721FF80F033
:107FB0000100C6B2B1E7F3685A79C2B11B79BDF8C6
:107FC000101003EB43025AF8211009FA02F3B8F13A
:107FD000050F03EA010323FA02F308BF4FF0030879
:107FE000434504D3336839461B6830469847F368E5
:107FF0001E68002EDFD1384603F0AEFC0DF10700FD
:108000008DF8076000F0FCFDAB690BB9029BA36023
:108010009DF8070000F018FEC7E72C6974B90F4BF4
:108020005B88012BC1D90E4B0E480F49C01AC008FE
:10803000000440F0020000F067F8B6E7236820462D
:108040009B689847E3681C68E8E7002665E700BF7F
:10805000B8990020244E0300C49900208C8600208B
:10806000D44C0300244D0300685203000C87002009
:108070002DE9F34704460E46924601A9012218460F
:108080009946FFF7B1FB1E4F20B3019D4FF000084A
:10809000AA1CC84508EB020127D11A48002100F0AC
:1080A000BDFF80F31000000440EA1440E4006B1CA4
:1080B00004F03804C3F30B03C5F30B0544F00104CB
:1080C00007EB8303033544EA881444EA8624D86026
:1080D00047F825403B781BB1FFF794FE0028FBD101
:1080E000FFF785FE02B0BDE8F087C1F30B0107EB97
:1080F00081015AF82830CB6008F10108C9E700BFB8
:10810000B8990020D4D9002000231A46FFF7B0BF49
:1081100007B50123019201AAFFF7AAFF03B05DF89A
:1081200004FB07B5CDE9002302236A46FFF7A0FF51
:1081300003B05DF804FB1FB5CDE90123069B039353
:1081400001AA0323FFF794FF05B05DF804FB0000CC
:108150002DE9F84388461A490B69054600241A465A
:1081600082B9EA6814719BB90D611360154B164E04
:10817000F61AF608002703F10709B7420DD1204689
:10818000BDE8F883D2681079A04212D01268E7E700
:10819000DB68196811601D60E8E719F83720EB68A3
:1081A00042453946187928BF4246FFF78FFC013710
:1081B000E3E701340A2CD2D14FF0FF34DFE700BFF0
:1081C000B8D90020D44C0300244E030038B5084B26
:1081D00003F58042012514691D7004B938BDE368B8
:1081E0005D71236820465B689847E3681C68F4E784
:1081F000B899002030B5C38885B004460D4633B128
:10820000144A00921449154A284603F04EF9217A7F
:1082100005291DD0637A4BB1A088FFF741FC104BB4
:10822000104953F82020284603F03FF9227A0E4BDC
:10823000A08853F8222003920021FFF711FC039A33
:108240000A490346284605B0BDE8304003F02DB981
:1082500005B030BD78560300605603005856030041
:10826000CC56030094590300F05603007D560300DA
:1082700007B503460846197A052911D05B7A2BB158
:10828000094A0A49019003F010F901980849019040
:1082900003F00BF9019803B05DF804EB03F0FAB8B2
:1082A000002AF8D0F2E700BF785603009459030083
:1082B000445803002DE9F04385B01F460C9D002370
:1082C00095F80C902B7306460C4690462946384686
:1082D000FFF790FFB8F1060F09D8DFE808F00412A5
:1082E000181F283340003146284603F0DEF80022EC
:1082F00029463846FFF7BCFF85F80C9005B0BDE86D
:10830000F08322683146284603F0CFF8EFE7D4E93E
:1083100000233146284603F0C8F8E8E7A368009335
:108320003146D4E90023284603F0BFF8DFE7E368CD
:108330000193A36800933146D4E90023284603F053
:10834000B4F8D4E723690293E3680193A368009328
:108350003146D4E90023284603F0A7F8C7E763694C
:10836000039323690293E3680193A3680093314662
:10837000D4E90023284603F098F8B8E708292DE946
:10838000F74F80460E4617461C463DD800251B7BFE
:108390002573214610460193FFF72CFFDFF88CA0D0
:1083A000DFF88CB0AE4232D918F805205946204685
:1083B00003F07BF80135082DF4D11B49DFF874A0D8
:1083C000DFF874B0204603F070F84FF000094E4516
:1083D00024D918F809507E2D1ED828460BF080FDB0
:1083E000002814BF2A462E225946204603F05DF885
:1083F00009F10109B9F1080FE9D1012221463846F6
:10840000FFF736FF019B237303B0BDE8F08F5146A1
:10841000204603F04AF8CDE72E22E5E751462046F4
:1084200003F043F8E4E700BF915603008D560300C4
:10843000875603008F5603004A6E0300C30710B52A
:1084400007D4F023054A4008145C23401943115413
:1084500010BD0901C9B20F23F4E700BF80DA002084
:1084600030B5094B1C78094B196800239C4202DC8B
:108470000022104630BD11F83350854201EBC30293
:10848000F7D00133F2E700BF70DA0020A0DA002055
:1084900013B504460191FFF7E3FF38B143682BB1F0
:1084A0000199204602B0BDE81040184702B010BD47
:1084B000034B044819680022490800F069BA00BF5C
:1084C00074DA0020D887002010B5C0B2FFF7C8FFCB
:1084D0000446007806F074F863785A1E53425341FC
:1084E000834208D1044BD3E90023134303D1BDE8F1
:1084F0001040FFF7DDBF10BD78DA002037B5430824
:10850000374AD35CC2074CBF1B0903F00F03044674
:108510000D46042B25D8DFE803F003262F3C40004E
:10852000F9B10121FFF78AFF00230DF107008DF853
:10853000073000F065FB0120A4F12003C4F1200105
:10854000284A20FA01F100FA03F30B43A040D2E9D4
:10855000004120430B43C2E900039DF8070000F0EF
:1085600073FB03B030BD002918BF0221204603B0C1
:10857000BDE83040FFF762BF49B10321FFF75EFF5E
:108580000121204603B0BDE83040FFF781BF012143
:10859000ECE70029E5D10421E8E709B10321E5E78B
:1085A000FFF74CFF29462046FFF772FF0DF1070049
:1085B0008DF8075000F024FB0120A4F12003C4F142
:1085C0002001084A20FA01F100FA03F30B43A0400E
:1085D000D2E9004124EA000021EA0303BBE700BF1F
:1085E00080DA002078DA00202DE9F041124E134F96
:1085F00000243378A34208DC114BD3E90023134352
:1086000018D0BDE8F041FFF753BF3D6805EBC40843
:1086100015F8340005F0D4FF98F801305A1E534283
:108620005341181A4142414115F83400FFF766FFE3
:108630000134DEE7BDE8F08170DA0020A0DA002026
:1086400078DA0020092AF7B505460C4616463ED9C9
:1086500005F0BCFEE8B11F4B1F481D601F4B204FAB
:108660001C70204B002120221E600BF0F0FE1E4BE0
:1086700000200021C3E90001013CE4B20326FF2CE5
:108680000DD11A4A1A48002103B0BDE8F04000F0AD
:108690006DB905F057FE0028DDD003B0F0BD9DF8A0
:1086A000063015F834008DF8046005EBC40223F0A1
:1086B00007038DF8063001A993788DF805303A4606
:1086C00005F08EFE013CE4B20028D8D0E5E7072093
:1086D000E3E700BFA0DA002080DA002070DA002093
:1086E000C984020074DA002078DA0020E9850200EB
:1086F0003457030070B5084D084E00242B789C4277
:1087000001D3002070BD3368012113F8340005F057
:10871000E7FE0134F2E700BF70DA0020A0DA0020A3
:1087200073B5114D114E00242B789C4215D30023B4
:108730000DF107008DF8073000F062FA0C4B0021B4
:108740000020C3E900019DF8070000F07DFA094808
:1087500002B0BDE8704000F049B9336813F8340046
:1087600005F00CFF0134DFE770DA0020A0DA00200A
:1087700078DA0020D88700201FB50021039001AAD5
:1087800044F20100CDE9011100F004F805B05DF8F4
:1087900004FB000008B572B6FFF718FDFFF732FBC7
:1087A0000028FBD1084BD3F8F020D20700D500BE3B
:1087B000BFF34F8FD968054A01F4E0610A43DA60DC
:1087C000BFF34F8F00BFFDE700ED00E00400FA05A6
:1087D00010B5D0E90243D1E90202A04272EB0303D3
:1087E0002CBF0120002010BD08B50A4800F06DFB29
:1087F000094AD2E90031C018084BD3E9002341F1FE
:108800000001904271EB030303D210F1807041F13B
:10881000000108BD0C880020A8DA002010DB002031
:1088200037B505460C460A4801A900F082FB60B145
:108830000570446001A9064800F0A5FB18B1054881
:1088400000F048FB002003B030BD0420FBE700BF70
:10885000F88700200C880020294B73B51E78044649
:108860001EB90026304602B070BD0028F9D0FFF7CF
:10887000BBFFD4E902239042994139D300230DF183
:1088800007008DF8073000F0BBF923692BB94FF0D2
:10889000FF324FF0FF33C4E902239DF8070000F0D8
:1088A000D3F9D4E90530984700250DF107008DF87C
:1088B000075000F0A5F92369C3B1D4E90212B2F15F
:1088C000FF3F08BFB1F1FF3F05D05B1842F1000246
:1088D000C4E9023235469DF8070000F0B5F9002DD5
:1088E000BFD00848214603F005FBBBE71D46F2E771
:1088F000B3F1FF3F08BFB2F1FF3FB2D0F1E700BFD5
:10890000B0DA00205857030013B5114B114918680D
:10891000019008231048582200F0F8FA044698B94C
:108920000E4A0F4801A900F0B3F9044660B90C489B
:10893000012100F0ADFA01230A4A0948194600F066
:108940000FFA094B01221A70204602B010BD00BF79
:1089500054570300B4DA0020F8870020498A020047
:108960000C880020FFFF7F00B0DA002030B56AB12C
:1089700003684FF0FF344FF0FF355A614A1E5142F1
:10898000C3E9024551411961002030BD0720FCE7D1
:10899000F7B5044600250DF1070017460E468DF881
:1089A000075000F02DF9D4E90223B3F1FF3F08BFCF
:1089B000B2F1FF3F07D1FFF717FF301841F1000177
:1089C000C4E9020101259DF8070000F03DF955B109
:1089D0002369A76103B126612146002003B0BDE8E9
:1089E000F040FFF71DBF284603B0F0BD37B5054680
:1089F00000240DF107008DF8074000F001F9D5E9DA
:108A00000223B3F1FF3F08BFB2F1FF3F1FBF4FF09A
:108A1000FF324FF0FF33C5E9022301249DF8070020
:108A200000F012F934B12946012003B0BDE830400E
:108A3000FFF7F6BE204603B030BD0000014800F04D
:108A400044BA00BF0C8800202DE9F743064600F029
:108A500027FA40B1624AD2E9003113F1807341F143
:108A60000001C2E900310021304600F028FA38B197
:108A70005C4C236823B12068FFF7EEFE00232360DF
:108A80000121304600F01BFA20B1FFF7ADFE564B36
:108A9000C3E900015548534C01A900F084FA4FF096
:108AA000FF384FF0FF39A0B9DFF844814D4D404603
:108AB00003F036FA002800F08580D0E90223B3F1F4
:108AC000FF3F08BFB2F1FF3F32D1404603F022FA28
:108AD000EDE70378012B20D0022B08D1444D284626
:108AE00003F018FA002877D0C0E90289F7E75BB9EC
:108AF0004168D1E90223B3F1FF3F08BFB2F1FF3F64
:108B000002D03B4803F0F6F901A9384800F076FAA4
:108B100001A9364800F047FAC5E741682368994241
:108B200002D100232360EFE7314803F0FCF9EBE7C3
:108B3000296891B12968D1E9020182428B412FD283
:108B40002B68D3E90223B3F1FF3F08BFB2F1FF3F27
:108B500003D02968404603F0CDF9404603F0DAF926
:108B6000D0E902490746FFF73FFE201A69EB0109E9
:108B7000012879F1000318DBB0F5350F13D3FFF7A7
:108B80005DFF1C4A02441C484FF49603002100F08C
:108B900007F990B92B6813B9304600F0D9F82F6067
:108BA00003B0BDE8F0832246EDE71348002100F052
:108BB0007CF93846FFF750FE01E00D28F9D000237C
:108BC0002B6074E7074B1B68002BE9D1304603B0DC
:108BD000BDE8F04300F0C0B8084B01221A7093E7DB
:108BE000A8DA002018DB002010DB0020F887002026
:108BF00058570300FFFFB4000C880020B0DA0020B3
:108C000070B5EFF3108672B60C4A946801239CB9D4
:108C100093600B4B0B4DD3F8801029401160C3F8C3
:108C20008050D3F8841051604FF0FF32C3F8842095
:108C3000047006B962B670BD0370FAE71CDB002051
:108C400000E100E0FC06FFBD084B9A6810B55AB180
:108C500050B9EFF3108172B6054A1C6814605C6865
:108C60005460986001B962B610BD00BF1CDB0020E3
:108C700000E100E0435882B03BB100234350435829
:108C80000193019B012002B070471846FBE70000EA
:108C9000F8B5264C4379264D44F8232005EBC30351
:108CA000244E1B7973B17388012B09D92248234BB9
:108CB0002349C01AC008000440F00200FFF724FA5C
:108CC0000820F8BD03680A88C3F8082590F9044015
:108CD0008B7802795B01002CDBB221DB19490F197B
:108CE00087F800330123640902F01F0203FA02F23D
:108CF00041F82420437905EBC30245F8330073881B
:108D00000121022B117109D90B480C4B0E49C01AD5
:108D1000C008000440F00300FFF7F6F90020D0E798
:108D20000A4902F00F028B54E4E700BF30DB002059
:108D300028DB002094860020344D0300D44C03002F
:108D40006457030000E100E08657030014ED00E0E3
:108D5000036801221A607047036801225A60704755
:108D600073B501F15005AD000068ADB24FF4803429
:108D70008C400026C0F80843C0F84843465101F52E
:108D8000A8714559019522F07F42019D40F82120AC
:108D9000C0F844430BB1C0F8044302B070BD0000FA
:108DA0002DE9F74F0D4622F07F4402684FF48037DB
:108DB00005F150068F408046B60002EB8500C2F8F0
:108DC0004873B6B2C2F80873D2F8041599464FF04A
:108DD000000BD0F84035C0F8401542F806B05B1AD9
:108DE0009259009223F07F43012B009A4FEA850AA3
:108DF0000CD1264B4FF4806043F001039847D8F81C
:108E0000003043F806B09B590193019BD8F800103D
:108E1000D1F80465C1F84473A31B23F07F43012BF1
:108E20001CD11A4B05F5A875013443F0010341F834
:108E300025404FF480609847D8F80030D3F80435C7
:108E40009E4209D1D8F800300020C3F84473C3F81B
:108E5000047303B0BDE8F08F0D20FAE78A44C9F12E
:108E6000FF13CAF84045D1F80405221A013A22F04E
:108E70007F4203F57F439342EED3002AE2D10134CF
:108E8000CAF84045D1F804359842DAE7A057030004
:108E900003680222C3F8442309B1C3F804237047CE
:108EA00000684FF48271FFF7E5BE4FF4803303FA98
:108EB00001F10368C3F84813C3F808137047503131
:108EC0008900006889B2FFF7D5BE0368D3F80405AE
:108ED0007047000090F90430002B09DB5A0901218A
:108EE00003F01F0301FA03F34032024941F8223034
:108EF000704700BF00E100E0024B034A1B681068A6
:108F0000184700BF30DB002028DB002010B561B11E
:108F1000B2FBF3F403FB1424A4B244B9C0E9001477
:108F200084608281C381204610BD0E20FCE70920A9
:108F3000FAE737B550E8013F9DB2C48925448489DA
:108F4000A54228BF2D1B0489A54202BFBFF32F8F66
:108F5000002207E0C5EA030540E80154002CE9D1EE
:108F60004FF001028DF803200193019A0A609DF8E9
:108F7000031001F0FF0321B1006810FA82F003B082
:108F800030BD1846FBE70A884B889A4209D150E861
:108F9000012FC2EA024240E80123002BF7D1012051
:108FA00070470020704737B550E8023F1FFAA3F51D
:108FB000C488A54202BFBFF32F8F00220DE0C489F1
:108FC00025448489A54228BF2D1BC3EA054540E8F6
:108FD0000254002CE8D14FF001028DF803200193D8
:108FE000019A0A609DF8031001F0FF0321B10068A7
:108FF00000EB124003B030BD1846FBE70A884B88EF
:109000009A4209D150E8022FC2EA224240E80223E4
:10901000002BF7D1012070470020704710B50346A0
:1090200053E8000F0A4643E8002494F0000FF7D1FC
:1090300010BD10B5034653E8000F40EA010243E8B3
:10904000002494F0000FF6D110BD10B5034653E88C
:10905000002F42EA010043E8000494F0000FF6D12B
:1090600010BD10B5034653E8000F00EA010243E8C3
:10907000002494F0000FF6D110BD10B5034653E85C
:10908000002F02EA010043E8000494F0000FF6D13B
:1090900010BD10B5034653E8002F02EB010043E872
:1090A000000494F0000FF6D110BD10B5034653E84C
:1090B000002FA2EB010043E8000494F0000FF6D16A
:1090C00010BD10B5034653E8002F8A422CBF501A3A
:1090D000104643E8000494F0000FF4D110BD0121C4
:1090E000FFF7A7BF0121FFF7B0BF0021FFF7B9BF0E
:1090F0000021FFF7C2BF00002DE9F0478368D3F8D5
:109100004831C3F340059B0788B0074606D50022C7
:10911000114608B0BDE8F04701F012BD012906D99B
:109120001E4A022108B0BDE8F04700F0CBBC1C4C41
:109130001C4EDFF874A04FF06408A946361B1C23B0
:10914000B6FBF3F6AE4204F11C0402D108B0BDE850
:10915000F08754F81C0C54E90623017900689A1A28
:109160001B1ADBB2039308FB03F3B3FBF2F3CDE965
:10917000019334F8043C0093CDE9061254F8083CFE
:1091800011FB08F13846B1FBF2F1CDE9042152465A
:10919000082100F097FC0135D4E700BFA657030073
:1091A000244E0300944E0300B957030010B590B14C
:1091B000D0E9012301689B1ADBB20A60013BDBB2F4
:1091C000FF2B026802D10020107110BD11684C1CE9
:1091D00014600B70F2E70E20F7E737B50546002460
:1091E0000DF107008DF80740FFF70AFD2A686B684C
:1091F000116899420ED9481E106011F8013CEC68C4
:10920000298B01FB0344AB6811791B1ADBB299422D
:1092100038BF13719DF80700FFF716FD204603B015
:1092200030BD37B5054600230DF107000C468DF81B
:109230000730FFF7E5FC2A681368591C1160E968DC
:10924000641A298BB4FBF1F41C709DF80700FFF73A
:10925000FBFC03B030BD30B18A68B2F8483143F04E
:109260002003A2F848317047436810B59C686068D5
:10927000036801219B689847A36810B903221A70FC
:1092800010BD0422FBE7096800680BF035B9000047
:109290002DE9F843089E1D460C46F1B9194E1A49AE
:1092A000891BB2EBD10F4FEAD10905D2174F043613
:1092B00007EB8207A14502D100232B6009E056F895
:1092C00034803868D8F800100BF016F918B9C5F8D2
:1092D0000080BDE8F8830134ECE70028ECD0017889
:1092E000436839B13146104698473368002BE3D0C4
:1092F0002E60EEE7110103EB02125B58002BDBD06E
:109300002A60E6E7384C0300804C030040860020CA
:1093100030B583680546D3F8400187B0E8B1002333
:10932000092203A9019002F02FFBAB68049AC3F84D
:1093300040210024234601988DF81440092203A9F6
:10934000CDE9034402F016FB019802F0BCFAAB68C9
:10935000D3F8400118B9C3F83C0107B030BD23462B
:1093600003A9092202F010FBA8680394D0F8400179
:109370002346092203A902F0FDFAEEE708B10BF03B
:10938000E2B8704710B584680068FFF7F7FFE37F25
:109390001844637EB0FBF3F203FB1200B0FA80F0D6
:1093A000400910BD10B584680068FFF7E7FFE37F50
:1093B000627EA07653FA80F3B3FBF2F102FB113325
:1093C00001332375A37F53FA80F00131B0FBF2F330
:1093D00002FB1300A1750130591C6075E17504F1A1
:1093E000140010BD10B584680068FFF7C7FFA37FA5
:1093F0001844637EB0FBF3F203FB1200B0FA80F076
:10940000400910BD07B58368DA7E8A421ED01B2250
:109410008DF800205B228DF8012031228DF802208A
:109420003B228DF8032033228DF8042001F12F0216
:109430008DF805206D22D9768DF8062000228DF852
:109440000720044900696A4602F02FF803B05DF86E
:1094500004FB00BF945903000A4609B1FFF7D2BFCD
:109460008168CA760069024A024902F01EB800BF4C
:109470001F5D03009459030007B583681A7F8A4271
:1094800018D01B228DF800205B228DF80120342299
:109490008DF8022001F12F028DF803206D2219773B
:1094A0008DF8042000228DF80520044900696A46E1
:1094B00001F0FBFF03B05DF804FB00BF945903000B
:1094C0002DE9F743002506460F461446056020782F
:1094D00040B10AF000FD68B1002304F8013B336895
:1094E0000B2BF4D933680022284647F8232003B019
:1094F000BDE8F08333685A1C326047F823400546C4
:1095000094F80080B8F1000FE9D0002D77D1B8F1C0
:10951000270F05D0B8F15C0F79D0B8F1220F66D1D2
:109520002046FFF72BFF611C024620460AF08DFD06
:109530004546E5E72046FFF721FF611C024620462D
:109540000AF083FD0025DBE7302826D102234FF007
:109550000008E05CA0F13001C9B207295FFA83F985
:1095600018D8013341EAC801052B5FFA81F8F0D120
:10957000994609F1FF31214420460191FFF7FEFE93
:109580000230A0EB0902019920460AF05EFD04F8C2
:10959000018BB5E7B9F1020FEBD178282DD102216B
:1095A0004FF00008635CA3F13002D2B2092AC8B2BE
:1095B0000AD842EA081303295FFA83F802D14FF070
:1095C0000409D6E70321EDE7A3F16102052A03D8D8
:1095D000573B43EA0813EEE7A3F14102052A01D8FD
:1095E000373BF6E7022808D04FF00309C1E74046B1
:1095F0000AF071FC00287FF472AF013480E7A845BF
:1096000098D0B8F15C0FF8D1607885429CD12046A3
:10961000FFF7B4FE04F101080246414620460AF075
:1096200014FD44466CE72DE9F34105460F46144608
:10963000002614B902B0BDE8F081686803682246CC
:10964000D3F80C80B91901ABC047019B1E44E41A42
:10965000002BEED1AB681A78032AEAD0D3F8482160
:109660009206FBD5B3F848216FF34512A3F84821C1
:10967000DFE700000A46014901F017BFC8580300A0
:1096800011B10069FFF7F6BF70470000014901F012
:109690000CBF00BFE1580300014A024901F005BFB9
:1096A000305D030094590300014A024901F0FDBEF8
:1096B0001C5D030094590300014A024901F0F5BE04
:1096C000185D0300945903000A4619B10249006964
:1096D00001F0EBBE704700BFCE5803000A4619B137
:1096E0000249006901F0E1BE704700BFD458030091
:1096F00038B50546FFF756FE837902788178013345
:109700009A42044601D1012913D0012904D9013913
:10971000C9B22846FFF7D8FF2378A1798B4209D92F
:10972000013B591AC9B22846FFF7D8FFAB6800229F
:10973000DA7738BD0131C91AC9B22846FFF7A0FF50
:10974000F4E7F8B50546FFF72DFE8778C67804469E
:109750002846FFF717FE18B92846FFF743FE10B159
:109760002869FFF793FFB74208D161782378C91AB7
:109770002846C9B2BDE8F840FFF7B0BFA378E1784A
:10978000C91AC9B22846FFF79FFF237861788B4238
:10979000EDD9591A2846C9B2BDE8F840FFF770BFA5
:1097A0002DE9F04F044685B00E4690460025705DC9
:1097B0000AF091FB20BB5FFA88FA3046FFF7DEFD26
:1097C000A3685B7E401BA3EB080B584506EB05091D
:1097D00018D94A46002712F8011B03930846029243
:1097E00001910AF078FBDDE9022318B101990A29F9
:1097F00031D0BB4608EB07018B422BD90137EAE792
:109800000135D4E74B460027B84217D013F8012B97
:109810000A2A05EB070A1BD1206901F03BFE4946E5
:109820003A462046FFF7FFFE2069FFF72FFF5FFA59
:1098300088F120460AF10105FFF722FF206971191E
:1098400001F033FE206905B0BDE8F04FFFF71EBF01
:109850000137D9E75F46206901F01CFE3A464946C8
:109860002046FFF7E0FE3D44705D0AF034FB38B956
:109870002069FFF70BFF51462046FFF701FF9CE7E9
:109880000135F1E72DE9F34105468068424F002498
:1098900080222146A0308DF803400AF0D8FD3F49D0
:1098A000286901F002FE286901F0F4FD4FF47A7690
:1098B00047F00107686803680122D3F810800DF1B2
:1098C000030101ABC047019B5BB94FF6C010B8471D
:1098D000019B002BEED1013EB6B2002EEAD10D2045
:1098E00035E09DF80330AA681B2B48D092F8A010F1
:1098F0001B29EDD1522B42D11444002384F8A0300F
:1099000092F8A1105B291FD102F1A20602211D4687
:1099100016F8010B4C1C3B28E1B264B21AD1002CA2
:1099200020DB01F1A0041444002314F8010BD8B982
:10993000FA2B28BFFA23FA2D13752B4628BFFA23DA
:10994000937582F8A00002E082F8A0300B2002B0EC
:10995000BDE8F08105EB850300EB4303303B802934
:109960009DB2D5D10C20F2E703EB830300EB43005B
:109970004E1C303883B23006F1B2F3D4D5E711195A
:109980000134E4B2092C81F8A030A1D9002382F877
:10999000A0300420DBE700BF405D0300375D03001B
:1099A00038B50546FFF7FEFC027843789A42044634
:1099B0008378C27801D1934213D09A4205D9D21A42
:1099C0000B492869D2B201F070FD237861788B428F
:1099D00008D9591AC9B22846FFF780FEAB689A7FAA
:1099E000DA7738BDC91AC9B22846FFF749FEF5E74C
:1099F000DA580300F8B51E46C3685B6805469860F0
:109A00004068036817461C68284A2B46A04704464E
:109A1000002842D1686901F054FF044600283CD177
:109A200001464FF4A672A8680AF011FDA968204803
:109A3000B1F848311F4A43F02003A1F84831B1F88A
:109A4000483167F38203A1F84831B1F8483143F057
:109A50000803A1F8483101230B7045F218030B836A
:109A6000121A154B4FEAD20C21460430614516D12B
:109A7000072A04D9114B104804220AF003FB66B1EF
:109A80009DF81810E868FEF763FB0028A1BFEB689B
:109A9000DB6801225A71B8BF04242046F8BD50F893
:109AA00031703F6843F8047B0131DFE757920200D1
:109AB000384C0300804C030040860020879202004F
:109AC000FFF7B1BD0CB473B506AB044653F8046B95
:109AD00001938368D3F848516D0719D5DD7E8D4217
:109AE00016D0B3F81B50FFF7B7FC206901AA314626
:109AF00001F05AFDE9B22046FFF7AEFC290A02D078
:109B00002046FFF7B9FC02B0BDE8704002B07047D4
:109B1000206901AA314601F047FDF4E7826800217F
:109B2000D18382F820100368014A0321FFF7CABFDE
:109B30009459030070B583681E78012E04461AD12B
:109B40004068036800219B689847054688B908214A
:109B50002046FFF757FC31462046FFF78DFC206971
:109B6000064901F0A2FCA36802221A702046FFF702
:109B7000D5FF284670BD0825FBE700BFE05803006D
:109B8000F8B504468068867FB3187F2B0F461546CC
:109B900038DC002A36D0C37FF61A03F120011344C3
:109BA0002033F6B20144721C18440AF04EFAA06841
:109BB000C37F20332A46394618440AF046FAA7687C
:109BC00007F12000FFF7DAFBFB7F0F4AB87720335D
:109BD0003B4420460821FFF775FFA368DA7F154450
:109BE000DD772046FFF7CEFB18B92046FFF7FAFBDA
:109BF00010B12069FFF74AFD26B12046BDE8F840C4
:109C0000FFF79FBDF8BD00BF945903002DE9F04157
:109C100004468068D0F84861827FC37FC6F300089D
:109C2000D51A16F001060F46EDB23CD17E2A3ED879
:109C30003DB103F12001213301442A4618440AF0C2
:109C400004FAA368DA7F1A4482F82070002E6AD1E1
:109C50009A7F0132D2B29A77134483F82080002D84
:109C60006AD02046FFF79EFB8278C3789A4220D1C3
:109C7000A268D37F2033134408212046314AFFF7DE
:109C800021FFA91BC9B22046FFF728FDA268D37F98
:109C90000133D3772046FFF775FBF0B12069BDE8AB
:109CA000F041FFF7F3BC7E2ACBD9002DC9D1BDE826
:109CB000F0812069FFF7F8FCA268D37F20331344BA
:109CC0000821204A2046FFF7FDFE2069FFF7E4FC4B
:109CD00020690121FFF7CEFCD8E72046FFF782FB81
:109CE0000028E4D02046FFF75DFBC2788378013A74
:109CF000D21A12F0FF02054603D01349206901F081
:109D0000D4FB2069FFF7C2FCE978AB78C91A20467A
:109D1000C9B2FFF7D9FC297801392046C9B2BDE89C
:109D2000F041FFF7ADBC002D9BD1987F0130C0B250
:109D30009877034483F82050044920693A4601F09B
:109D4000B4FBA3E794590300DA5803004A6E0300FA
:109D500070B5836886B00025CDE90355D3F844215A
:109D60008DF8145004460E46002945D1002A3ED0F5
:109D7000FFF7BEFCA0683346D0F84401092203A9CE
:109D800001F002FEA668049BB57FC6F84431002BA3
:109D900052D106F1A00108460191FFF7EFFA0199AF
:109DA00038B306F120000AF085FBA0682030FFF7E9
:109DB000E5FA8DF814009DF81430A268AB42D37711
:109DC000937702D22069FFF777FCA3682C4A2046DC
:109DD00020330821FFF776FE2046FFF7D3FA18B9A3
:109DE0002046FFF7FFFA10B12069FFF74FFC06B0DD
:109DF00070BD86F82000D8E7D3F840119142F6D024
:109E0000D3F83C31002BF2D0FFF772FCA668D6F8ED
:109E1000440140BB06F1200108460191FFF7AEFA6C
:109E2000D6F83C310199C6F8443110F0FF0517D03F
:109E300006F1A0000AF03EFBA06803A9D0F8440197
:109E40000023092201F0A0FDA0689DF8142000F174
:109E500020010923D0F84401013201F095FDAAE761
:109E600086F8A050E8E72B46092203A901F08CFDF3
:109E7000A368039A9DF81450C3F84421DCE700BF9F
:109E80009459030038B504468068C37F857FED1A76
:109E900015F0FF053BD003F12101203301442A4690
:109EA00018440AF0D2F8A268937F013B93772046CA
:109EB000FFF778FA8278C3789A4214D1A268D37FE8
:109EC000203313442046124A0821FFF7FBFD206986
:109ED0000F49104A01F0E9FA691E2046C9B2BDE8EF
:109EE0003840FFF7FBBB2069FFF7DEFB2069FFF777
:109EF000E3FBA268D37F203313442046044A0821A1
:109F0000FFF7E0FD2069BDE83840FFF7C5BB38BD6D
:109F1000945903002C5D03002DE9F041C3685B6890
:109F200090B004460D461868002203A901F061FEB6
:109F3000002840F08A808DB1039801F00DFDA268E1
:109F4000D2F838310133C2F8383103F00703012B5E
:109F500004D00125284610B0BDE8F0812046FFF767
:109F600021FA81780129064604D90139C9B220466F
:109F7000FFF7AAFB3178012904D90139C9B220467B
:109F8000FFF7ACFB2069FFF797FB2DB1304A0221A8
:109F90002046FFF797FDDDE700230822039804A978
:109FA00001F0F2FC069B0793059B08939DF8103087
:109FB0008DF8255003F00302012A25D1BDF81020A9
:109FC000049E0398C3F3C203C2F383178DF82430B1
:109FD000BA0008230AA901F0D7FCC6F39526236925
:109FE00000933A4607AB0AA93046FEF763F9039897
:109FF00001F0B2FCE3685B680022186803A901F075
:10A00000F8FD0028C8D0A4E7022AF0D1BDF81260FC
:10A01000C3F3C203C6F389168DF824304FF0080845
:10A02000082E374628BF0827434603983A460AA910
:10A0300001F0AAFCF61B236907AA39460AA8B8440E
:10A04000FEF79CF9002EEBD1D1E7002582E700BF97
:10A05000E3580300436801219868FFF75DBFF7B537
:10A0600047680191BD68AB681E78042E0ED0386831
:10A0700001A901F0ECFC044650B9019801F068FC1C
:10A08000032E03D121462846FFF746FF03B0F0BD5B
:10A09000F11E18BF01212846FFF73EFFE7E7000049
:10A0A0002DE9F04F83468068A7B0102100F5A47019
:10A0B000FEF7CBFFDBF808301B78022B7ED10023A4
:10A0C0000D93DBF80400036801221C690DF13301D4
:10A0D0000DABA0470D9B002B55D09DF93330002BC5
:10A0E000EFDB01F09BFCDBF808406378012B00F00C
:10A0F0004F84022B00F05384002B40F01E859DF806
:10A1000033500D2D1FD00A2D1DD0B4F8482163F314
:10A110008D12A4F84821092D00F0F48100F2E181AC
:10A12000002DCED0082D00F0C083284609F0D8FEBF
:10A130000028C6D0D4F848311E07C3F3C00040F150
:10A140001584294614E3D4F8483113F47F5F05D011
:10A15000D4F84831C3F387139D42DCD1B4F84831B9
:10A16000A67F65F38D13A4F84831B6BBC4F84461EB
:10A17000DBF81000FFF78AFADBF8083002221A70C9
:10A180005846FFF7CBFC00215846FFF7C5FEA8B1A3
:10A19000DBF80030B64A03215846FFF793FCDBF8A2
:10A1A0000830D3F84821120708D55846B04A203362
:10A1B0000821FFF787FC5846FFF7C3FADBF81000C9
:10A1C00001F068F9DBF808006FF0100100F5A470E9
:10A1D00027B0BDE8F04FFEF750BF94F82030002BB9
:10A1E00061D1DBF8085005F12000FFF7C7F8002621
:10A1F00010F0FF04C5F8446124D0D5F83C010028D4
:10A2000000F091803346092219A901F0BDFB9DF8A9
:10A210006C309C4240F08780DBF80800092300F195
:10A22000A001621CD0F83C0101F0AEFBDBF8085045
:10A2300005F1A00105F120000AF05EF9002870D1B7
:10A2400085F8A0005846FFF7ABFB5846FFF79AF891
:10A2500018B9DBF81000FFF719FADBF8082019A984
:10A26000203210A8FFF72CF9109B002B80D000287B
:10A2700040F0A2807F4E804D199BAD1BED08044637
:10A28000A54240F0A0807D4A009202217C4A5846B7
:10A29000FFF718FC70E70135B5F5807F04D1002386
:10A2A00084F820309DE700256319EFB293F8200071
:10A2B00009F011FE0028EED16FB104F12000721CEC
:10A2C000521B411909F0C1FEDBF80820937FDB1B0C
:10A2D000DBB29377D377DBF80860B57F05F11F0712
:10A2E0003744BA465FFA87F953460293187809F063
:10A2F000F2FD5FFA8AF8A9EB0804029BE4B20AF1C6
:10A30000FF3A0028F0D19F423FF46BAF2C1BA8EB23
:10A31000090334442B44DBB284F82000B377F3778D
:10A320005FE785F8A060082604F10A05DBF8140051
:10A33000294601F0DEFA0446002837D0DBF8083061
:10A34000D3F83C01B0B9C3E94F44CDE919009B7F74
:10A350008DF86C3019A920460023092201F00AFB70
:10A36000DBF808108A7F092301322031204601F0F2
:10A3700001FB67E70023092219A901F005FBDBF8BF
:10A3800008001A9400230922D0F83C0119A901F011
:10A39000F1FA00231A93DBF80830D3F83C21199224
:10A3A0009A7F8DF86C20C3F83C41D3E75846FEF7FE
:10A3B000AFFF013EBAD145E70346324A0221584673
:10A3C000FFF780FBD8E672680293184611680AF01E
:10A3D00093F83746029B083618B10134A542BFF402
:10A3E0004FAFDBF8080000211022043011910AF071
:10A3F0002EF87C68E36833B194E80F00DBF808506E
:10A40000043585E80F00D4F80890DFF880A019AE75
:10A410004FF0000801250027109BAB4212D9746849
:10A42000514620460AF068F820B1174920460AF044
:10A4300063F868BBDBF80820B2F8483143F0020348
:10A44000A2F84831DBF808301B69002B43D0109983
:10A4500019AA02EB8802A1EB080158469847DBF8DD
:10A460000830B3F848216FF34102A3F8482183E68E
:10A4700094590300384C0300804C03002559030015
:10A48000F1590300115903003C59030039590300E5
:10A4900015AB0093484611AB3A462946FEF7F8FE45
:10A4A000781CCFD0119C002CCCD0216870680AF0A9
:10A4B00023F801370028AFD1E3683BB194E80F00DF
:10A4C000DBF80870043787E80F00A846D4F8089036
:10A4D000013504369FE7A84A02215846FFF7F2FAF1
:10A4E000BDE71B2D0BD07F2D7FF41FAED4F8483174
:10A4F0001F077FF5E6AD5846FFF7C4FCE1E50123F1
:10A500006370DEE5D4F8483119077FF5DAADA37F33
:10A51000C3F17F0313F0FF0304933FF4D2ADE27F56
:10A5200004F1200104F1A00009F068FFDBF80850F5
:10A53000EB7F2B440024D87F83F8A04009F0CBFCAC
:10A54000031B18BF012305F1A0020590C5F8444183
:10A5500019A90EA80693FEF7B3FF1998FEF70EFF90
:10A56000CDE90F44C3B20293254627460394A24681
:10A5700026460E9B2BB1069A013B1344AB4200F2D8
:10A580008C80059B002B3DD126AB03EB850353F854
:10A59000340CFEF7F3FEC3B2029326AB03EB850344
:10A5A0004FF00009099309F10103079311AB0093E0
:10A5B0004A460FAB29463846FEF76AFE0F9B002B32
:10A5C00054D01968099B029A53F8340C0B9109F086
:10A5D00093FE0890C0B9039B0B990133039308467F
:10A5E000109B0A93FEF7CAFE0A9B5FFA80F893B9A4
:10A5F000029B049AA8EB03039A4201DDDBB20493A9
:10A60000CA4626E00023C7E7A046DDF81C90444672
:10A61000C9E74E46F9E7A045049B38BFA0465FFA5C
:10A6200088F8B3B115AB0093324610AB38462946D3
:10A63000FEF72EFE0F9B089E1868109B1C68029A5E
:10A640009119F3B2425CFAB9049A9A4228BF1A46A9
:10A6500004920F9B1093079B002BDAD1474A0421E9
:10A660005846FFF72FFA44464FF0FF36002F40D0F0
:10A670000F9B002B3DD00E9B069A0135EDB2134483
:10A680009D42FFF476AF34E0615C9142DCD101364B
:10A69000B6F5807FD3D1FF23D6E726AB03EB850346
:10A6A0004FF00008079311AB009342460FAB2946C9
:10A6B0003846FEF7EDFDB8F1FF3F05D12F4A0421E2
:10A6C0005846FFF7FFF9FCE4DDF83C90B9F1000FC4
:10A6D0003FF4F7AC079BD9F8001053F8340C09F09D
:10A6E0000BFF08F101080028DDD1D9F80870002F10
:10A6F000C1D1039B002B3FF4E4AC012B5ED13B782E
:10A700003BB111AB0093324610AB29463846FEF7F9
:10A71000BFFD109B1C682046FEF730FE029B98424E
:10A7200005D02344049A19465846FFF729FADBF866
:10A730000840E57F631993F8200009F0CCFBF8B9D5
:10A74000D4F84831DA0712D5B4F8483160F3000381
:10A75000A4F8483120215846FFF758FADBF80820C2
:10A76000B2F8483143F00103A2F84831A9E42021AE
:10A770005846FFF74BFAA4E443590300615903001C
:10A78000A37FAB427FF69DAC5846FEF70BFEDBF88D
:10A7900008208478D37F0133D3775846FEF702FE32
:10A7A0008378A34205D1DBF810000121FEF762FF98
:10A7B00087E4DBF81000FEF769FF82E4DBF808307D
:10A7C000CB4E00225A7726AB03EB850306930AF1A2
:10A7D0000103059311AB5246009329460FAB38464F
:10A7E000FEF756FD0F9B029AD3F800A0069B514638
:10A7F00053F8340C09F080FD90BB039B3046013BBD
:10A800000393FEF7BBFDDBF8083007935A7E04EB99
:10A810000008A2EB00095046FEF7B0FD079B5A7FE7
:10A820005FFA88F8511CB9FBF8F95FFA89F9597792
:10A83000B2FBF9F309FB1322A8EB0008D2B25FFACE
:10A8400088F882B9AB4ACDF800A0334607215846B4
:10A85000FFF738F941465846FEF712FF039B4BB10C
:10A86000DDF814A0B3E7A44A534607215846FFF782
:10A8700029F9EFE7DBF80030A04A58460321FFF73B
:10A8800021F9DBF808309C4A203308215846FFF7AD
:10A8900019F95846FEF755FF109B049A1968029B58
:10A8A00058461944FFF76CF90BE4D4F848311B07FC
:10A8B0007FF507ACA67F002E3FF403ACE07F0028B5
:10A8C0003FF4FFAB361A00F12001F6B21F30721CC4
:10A8D0002144204409F0B9FBDBF80830DA7F013A63
:10A8E000DA779A7F013A9A77C6B32A468449DBF829
:10A8F000100000F0DAFD5846FEF754FD8278C37868
:10A900009A4213D1DBF80820D37F20331344294621
:10A91000794A5846FFF7D6F8DBF81000FEF7CCFE70
:10A9200031465846FEF7DAFEFFF7CBBBDBF81000E6
:10A93000FEF7BAFEDBF81000FEF7BEFEDBF80820DB
:10A94000D37F2033134458466B4A2946FFF7BAF8A1
:10A95000DBF81000FEF7A0FEFFF7B3BB694A6649BB
:10A96000DBF8100000F0A1FDFFF7ABBBA27F7E2A51
:10A970003FF6A7ABE17F4B1CDBB2E37721442344D6
:10A98000013281F8205083F82000A277FFF799BBAD
:10A990009DF833305B2B40F0D0800223B0E50023DC
:10A9A0006370D4F8483119077FF5EDAB9DF833306B
:10A9B000313B1B2B3FF685AB01A252F823F000BFC1
:10A9C000E1AA020015AB020035AB0200D3AA0200D7
:10A9D000C3A00200C3A00200C3A00200C3A00200E3
:10A9E000C3A00200C3A00200C3A00200C3A00200D3
:10A9F000C3A00200C3A00200C3A00200C3A00200C3
:10AA000031AA02003DAA020041AA02008FAA020058
:10AA1000C3A00200D7AA0200C3A00200E5AA020058
:10AA2000C3A00200C3A00200C3A0020019AB020031
:10AA300001215846FFF78CF9FFF743BB0021F8E7E7
:10AA40005846FEF7AFFC037842789A42044604D198
:10AA50008178C27891423FF434AB62799A4210D146
:10AA60002949DBF81000012200F01FFD61795846EA
:10AA7000FEF734FEDBF80820D37F0133D377FFF7EE
:10AA800020BBDBF810000121FEF7F4FDF2E7584689
:10AA9000FEF788FC8379027801339A42044603D199
:10AAA0008378012B3FF40DAB012ADBF810000BD1AA
:10AAB000164900F0FAFC61795846FEF7E1FDDBF833
:10AAC0000820D37F013BD9E71149012200F0EDFCBA
:10AAD000F5E7032363705846FEF762FFFFF7F1BA0C
:10AAE000032363705846FEF703FEFFF7EABA00BF80
:10AAF0008E5603008D5903009459030093590300A7
:10AB00004A6E0300335D0300DA580300CE58030099
:10AB1000D458030003236370D4F84831B4F84821B3
:10AB200003F0010383F0010363F30002A4F848215A
:10AB3000FFF7C7BA03236370D8E40023E0E400BF43
:10AB40002DE9F04F8BB0836817466C4A009204469B
:10AB50006B4A5B680D460821FEF7B4FFA668706873
:10AB6000FEF70CFCB168033082B211B12046FEF74B
:10AB700017FE644A00212046FEF7A4FF002F3DD0B7
:10AB8000002D3BD04FF00C0AA9460AFB075A0826B5
:10AB9000D9F80400FEF7F2FB8046D9F80000FEF772
:10ABA000EDFB4044B04209F10C0988BF86B2CA45AA
:10ABB000EED106F10408544B544A00931FFA88F86A
:10ABC00006F107090821204643461FFA89F9FEF7D6
:10ABD00079FF4F494A462046FEF7E2FD2DB1DFF8E6
:10ABE0002CB14FF0000ABA450AD1A368D3F80C8003
:10ABF000B8F1000F3ED10BB0BDE8F08F0826D8E7C2
:10AC0000D5E9002373B32AB30192424A0092082186
:10AC1000414A2046FEF756FF6868FEF7AFFB0390F7
:10AC20002868FEF7ABFB0399B31C591A091AC9B27D
:10AC30002046FEF725FD394920693A2200F035FC0F
:10AC4000A96899B14A462046FEF7AAFD0AF1010A11
:10AC50000C35C8E7009343465A4608212046FEF7C4
:10AC600031FFEDE7002AEBD00092F4E72069FEF710
:10AC70000DFDEBE700220592174606AE009605ABE8
:10AC80000121404602F10109FEF702FB059D3DB19D
:10AC90002868FEF773FBB84200D987B24A46EDE751
:10ACA000B9F1010FA7D01E4ADFF860A0294620465F
:10ACB000FEF708FF2A46BD1CADB205AB0096012188
:10ACC000404602F10109FEF7E3FA059B002B92D002
:10ACD0001B68009308212B4652462046FEF7F2FEE1
:10ACE000059B596831B17A1D92B22046FEF758FD96
:10ACF0004A46E2E72069FEF7C9FCF9E73C5D03003C
:10AD00008E59030097590300465D0300A1590300C3
:10AD1000A9590300B85E0300BC5903004A6E030042
:10AD2000C559030000221146FFF70ABF022910B5DA
:10AD3000044608D18368D3F848319B0703D5BDE8A2
:10AD40001040FFF7EFBF2069054A064900F0ADFB50
:10AD50002069054A0349BDE8104000F0A6BB00BFCA
:10AD6000285D030094590300235D0300012906D0E8
:10AD7000022906D18368D3F848319B0701D5FFF734
:10AD8000D1BF024A0221FEF79DBE00BF4359030016
:10AD900038B58368D3F84821C2F3400592070C46C2
:10ADA00006D500221146FFF7CBFE2C46204638BDC3
:10ADB0000029FBD05B68024A0221FEF783FEF5E71B
:10ADC000D3590300012937B50546144604D103B011
:10ADD000BDE83040FFF7A6BF023918BF0121FFF7D9
:10ADE000D7FF48B963680193044B0093044A236872
:10ADF00002212846FEF766FE03B030BD2151030054
:10AE0000EE590300012907B504D103B05DF804EB46
:10AE1000FFF788BF02290AD153680193084B0093BA
:10AE20001368084AFEF74EFE03B05DF804FB8CBFC2
:10AE30000121002103B05DF804EBFFF7A9BF00BFBB
:10AE400021510300EE590300013910B518BF01214B
:10AE50000446FFF79DFF40B9044A0549206900F008
:10AE600024FBA36845F218021A8310BD125D03008B
:10AE7000945903000129F7B50446154633D1856876
:10AE8000FEF700FD18BBA36820691F7D9E7DFA2197
:10AE9000FEF7F0FB20691D49FA2200F006FB204670
:10AEA000FEF7F0FC98B9A368197D6976A368C91B01
:10AEB0009B7D2B762046C9B2FEF710FC297E891BAC
:10AEC000C9B2204603B0BDE8F040FEF7FDBBA36861
:10AED00045F218021A830E4A0421204603B0BDE849
:10AEE000F040FEF7EFBD022994BF00210121FFF7DA
:10AEF0004FFF48B96B680193064B00932B68064AD5
:10AF000002212046FEF7DEFD03B0F0BDDA58030053
:10AF1000F759030021510300EE5903002DE9F041D8
:10AF2000013986B018BF01210546FFF731FF40BB4C
:10AF3000AB68DFF85480D3F840610446EEB1082CCA
:10AF40001BD030460023092203A900F01DFD9DF807
:10AF50001420A968304609230132A03100F014FD05
:10AF6000AB68049EA0330093671C23464246002131
:10AF70002846FEF7A7FD3C46E0E7AB68002283F8D1
:10AF8000A02006B0BDE8F081315A0300013910B5A8
:10AF900018BF01210446FFF7FBFE30B9A368B3F8E0
:10AFA000482160F38202A3F8482110BD013910B591
:10AFB00018BF01210446FFF7EBFE30B9A268B2F8D2
:10AFC000483143F00403A2F8483110BD013910B5EF
:10AFD00018BF01210446FFF7DBFE30B9A368B3F8C0
:10AFE000482160F3C302A3F8482110BD013910B510
:10AFF00018BF01210446FFF7CBFE30B9A268B2F8B2
:10B00000483143F00803A2F8483110BD022973B556
:10B010000D4694BF0021012104461646FFF7B8FEF5
:10B02000014658B9022D0BD1736801930C4B009364
:10B030000C4A336829462046FEF744FD02B070BD35
:10B04000A368094AD3F8483113F0080F074B18BF1B
:10B050001346074A204602B0BDE87040FEF732BDF5
:10B0600021510300EE590300CC6A0300F66A030085
:10B070003B5A0300013910B518BF01210446FFF700
:10B0800087FE48B9A368C3F83801E3685B68BDE888
:10B090001040186800F0F5BD10BD00007FB5013903
:10B0A00018BF01210446FFF773FE0546B8B9E368EF
:10B0B0005B681E68304600F0E1FDB268A168C3B26B
:10B0C000CDE9013264204343B3FBF2F3DBB20093DA
:10B0D000D1F83831034A29462046FEF7F3FC04B084
:10B0E00070BD00BF4C5A030010B500201C4606F08E
:10B0F000BBFE2060002010BD83681868FDF776BC99
:10B1000010B541680024C1E900230C7206F01EFF4F
:10B11000024B01221A70204610BD00BF34DB002014
:10B1200010B50446002006F007FF20B16368002038
:10B13000D3E90021904763680120D3E900219047BB
:10B14000A36822461868BDE8104040F26661FDF72A
:10B150001FBC000043681B7A70B505460E46CBB194
:10B1600083681868FDF742FC30F00803044601D1FB
:10B1700016B10024204670BD6B681B7A63B1AB68C2
:10B180002A46186840F26661FDF702FC044606F0A4
:10B19000DDFEEFE70029ECD1054AA8680021FDF7A4
:10B1A000E5FB6B6801221A7204460028E7D0E1E74C
:10B1B00021B102002DE9F74F1F461B4BD3F8F030A9
:10B1C000DB078946144604D400203C6003B0BDE888
:10B1D000F08F164BDFF858B04FF00508002643F00B
:10B1E000010A224609EB0601002006F085FE05460D
:10B1F00098B99BF8003063B10A2301934FF47A4069
:10B20000D047019B013BF8D1B8F1010805D18BF87B
:10B210000080002E18BF3446D6E70123641B8BF84C
:10B2200000302E44DDD1F4E700ED00E0C05E030005
:10B2300034DB00201A60C0681A4600F0F4BD00003C
:10B2400010B4074C0378E35C23B15DF8044B043081
:10B2500004F07AB85DF8044B0C3003F083BD00BFF6
:10B26000C0DD00204069054A0378D35C13B1043087
:10B2700004F024B90C3003F03FBE00BFC0DD002055
:10B280000378044AD35C13B1043003F0CDBF0C3013
:10B2900003F000BDC0DD002010B504464069FFF793
:10B2A000EFFFA368BDE810401868FDF79FBB0000E2
:10B2B00037B5FF2304460093C06801236A4601A9FD
:10B2C00000F0ECFC98B9009888B163690B4D0199C6
:10B2D000C2B21878285C60B1181D04F083F830B948
:10B2E000A3682246186840F26661FDF751FB03B07F
:10B2F00030BD03F10C0003F085FDF0E7C0DD002058
:10B3000038B5436893F8283004460D460BB383687C
:10B310001868FDF76BFB30F008030ED175B160695A
:10B32000FFF7AEFF616860690022083102F0ECFEB1
:10B3300068B96368012283F8292038BD636893F8EF
:10B34000283043B12046BDE83840FFF7B1BF0620A2
:10B35000F3E70029E3D1064AA0680021FDF706FBC8
:10B360006368012283F828200028EBD0E5E700BFBE
:10B3700065B2020073B50378FF26012B05460C4623
:10B38000019623D0022B18D0F3B9017A206900F07E
:10B390008AFD01AA206901960123694600F00CFD8F
:10B3A000019A22B100996069D2B2FFF749FF636840
:10B3B0000120D3E90021904706E0017AE06800F01F
:10B3C000A5FC2046FFF774FF02B070BD017AE0686B
:10B3D00000F09CFC2B7A002BF3D063680020D3E9AB
:10B3E00000219047EDE7000037B51A6005461A4680
:10B3F000006900F0A2FC044608BB6869134A0378A0
:10B40000D35CFBB1043003F093FFC0B9FF23019379
:10B410002869012301AA694600F0CEFC78B99DF89D
:10B42000042000996869FFF70BFF6B6893F82930D7
:10B43000044623B118B90199286900F034FD20466B
:10B4400003B030BD0C3003F081FCDEE7C0DD00202E
:10B4500038B504464068C0E900230023038501F1A4
:10B4600020020B46083053F8045B40F8045B93421B
:10B47000F9D1074A60690C6102F046FE054628B919
:10B48000E06800F002FC206900F0FFFB284638BDB0
:10B4900075B30200826810B504462AB14369016899
:10B4A000006998470023A36010BD0EB403B503994B
:10B4B00021B104AB01AA019300F076F802B05DF867
:10B4C00004EB03B070470A2938B504460D4602D193
:10B4D0000D21FFF7F8FFA3682268591CA160D5541D
:10B4E000D4E901329A4204D32046BDE83840FFF740
:10B4F000D1BF38BD2DE9F84F9846DDE90A4315461E
:10B5000082460F460A464FF00109AA420FD2C145B2
:10B5100038BFC14613F0010B01D16CB900240126DC
:10B52000B8F1010F1BD908F1FF386E43F8E709F1B4
:10B530000109B2FBF5F2E8E79B070ED5B8F1000F61
:10B540000CBF30262026A145E9D2013C31465046A9
:10B55000FFF7B9FF002CF6D1E0E72026F3E7B7FBB1
:10B56000F6F39D42E1D9DFF83C80B7FBF6F3504695
:10B5700018F8031006FB1377FFF7A5FF3346AB421D
:10B58000B6FBF5F6F1D2BBF1000F02D00CB1A1452C
:10B5900001D3BDE8F88F20215046013CFFF793FF0F
:10B5A000F4E700BFFC5E03002DE9F74F05461746A0
:10B5B0008846002900F03E8118F8011B49B92B7B11
:10B5C000002B00F03781284603B0BDE8F04FFFF7AD
:10B5D00061BF252940F0B780002698F800302D2B58
:10B5E000424608F1010823D0302B24D02B2B25D044
:10B5F00000242A2B02F1010123D13B681A1D1B688C
:10B600003A601C440A4613782E2B26D101324FF0A3
:10B61000000A104610F8011BA1F1300CBCF1090F13
:10B620001DD80A2303FB0A13A3F1300A0246F0E7F0
:10B6300046F00106D1E746F00206CEE746F00406E2
:10B64000CBE711F8013CA3F130000928DBD80A222E
:10B6500002FB0434303C0A46CBE74FF0000A12F8F4
:10B66000011B01F0FB0068289046F8D0782909D822
:10B670006F290CD8632962D022D8252963D0582994
:10B6800000F0888098F80030002B95D197E770394A
:10B690000829F7D801A353F821F000BF0FB8020022
:10B6A00085B6020085B60200A5B7020085B6020085
:10B6B00083B7020085B6020085B6020095B7020086
:10B6C000642901D06929DDD13A68D2F80090111DB2
:10B6D00089EAE9723960A2EBE9724FF0010B092A9D
:10B6E00035DCD34538BFD3462CB1B9F1000F01DBAF
:10B6F000720700D5013CB30702D5BAF1000F03D0A1
:10B70000F00701D44CBB0024B9F1000F2DDAC9F1C8
:10B7100000092D212846FFF7D6FE06F00302022A73
:10B7200004D1BAF1000F01D11CBB0024CDE90046C1
:10B7300053460A2249462846FFF7DCFEA2E73B684B
:10B740001A1D19783A602846FFF7BDFE9AE70A23CA
:10B750000BF1010BB2FBF3F2C1E7A345D4D22021D8
:10B760002846013CFFF7AFFECCE77107D5D52B216A
:10B77000D0E7A345DAD230212846013CFFF7A3FEEB
:10B78000D2E73968CDE900460A1D3A6053460A22DD
:10B790000968D0E739680A1D3A60CDE9004653468A
:10B7A0001022F5E73B681A1D3A6016F00106D3F83F
:10B7B000009024D1B9F1000F03D0484608F0C3FE31
:10B7C0000646B4421DD809F1FF3919F8011F0029B6
:10B7D0003FF458AF2846FFF776FEF6E728460136D5
:10B7E000FFF771FE19F806100029F7D1A642BFF441
:10B7F00049AF20212846013CFFF765FEF6E7002609
:10B80000F0E720212846013CFFF75DFED9E73B68C1
:10B810001A1D3A60302128461C68FFF754FE782133
:10B820002846FFF750FE00220823CDE900322146CA
:10B83000102280E703B0BDE8F08F00BF2DE9F84F7C
:10B84000B0F806A04579D2F800B09DF828900AFB20
:10B8500005F5043D88460BEB0301A94203F10404FE
:10B8600088BFA5EB030BB4FBFAF607460AFB1644A8
:10B87000C2F800B04EB9AAEB04055D4528BF5D468D
:10B88000BBF1000F04D1BDE8F88F3F68013EF1E73E
:10B89000043408EB06003C442A46B9F1000F0DD0F1
:10B8A0002146ABEB050B08F0A9FDDA452E443F68B5
:10B8B00055464FF0000428BF5D46E1E701462046AB
:10B8C000EFE7FDF773BCF8B546790146721E0546F1
:10B8D000002393422D6803D30024A64202D8F8BD6A
:10B8E0000133F6E70F682846FDF79BFC0134394623
:10B8F000F3E72DE9F843068BCD1C0746FDF76DFCF9
:10B90000043E35440446B5FBF6F5F0B14FF48073C0
:10B91000EDB28380C680013D076081464FF000088C
:10B92000A84512D23846FDF758FC064648B163795F
:10B930000133637108F10108C9F80000076081460E
:10B94000EEE72046FFF7BFFF34462046BDE8F88308
:10B9500001210430FDF79DBB10B5012104460430E0
:10B96000FDF7A3FBC0B220B92046BDE81040FFF7A9
:10B97000AABF10BD1FB503920022009203AAFFF7D1
:10B980005DFF05B05DF804FB1FB503920122009234
:10B9900003AAFFF753FF05B05DF804FB41DF7047D2
:10B9A000064B10B500241C70054B1C60BFF35F8F65
:10B9B0000449054800F088FA204610BD40DB00200D
:10B9C00044DB0020185F030038DB002007B50023AC
:10B9D0000DF107008DF80730FDF712F9F1EE103A7E
:10B9E00023F09F03E1EE103ABFF35F8F0A4B402232
:10B9F000C3F884219DF80700FDF726F908F006F842
:10BA000020B103B05DF804EBFFF7C8BF20BF40BF13
:10BA100020BF03B05DF804FB00E100E0704702685E
:10BA200013685268934291BFD01A80680130801821
:10BA300088BFC01A7047036881681A685B688B42C8
:10BA400034BF01330023D31A58425841704773B5AD
:10BA5000002304460DF107000D468DF80730FDF771
:10BA6000CFF82046FFF7E7FF10B1237C002B3BD136
:10BA70002368A1685E685A688A4234BF0132002296
:10BA80005A6028B11A6891428CBF013200221A60B4
:10BA9000E2686368511E072920D8DFE801F004102E
:10BAA0001F141F1F1F182A789A552046FFF7B7FF4B
:10BAB00023689A68824200D29860002415E02A88A0
:10BAC00023F81620F1E72A6843F82620EDE7D5E9A8
:10BAD000000103EBC603C3E90001E6E7294602FBC8
:10BAE000063008F08BFCE0E704249DF80700FDF722
:10BAF000ABF8204602B070BD13B5002304460DF12B
:10BB000007008DF80730FDF77BF82046FFF787FF29
:10BB100004469DF80700FDF797F8204602B010BDD7
:10BB20002DE9F04F8368D3F84831C3F340059B07F4
:10BB30008BB0064606D5002211460BB0BDE8F04F8B
:10BB4000FEF7FEBF012906D9204A02210BB0BDE84D
:10BB5000F04FFDF7B7BF1E4C1E4BDFF88090DFF8AB
:10BB600080A01B1B1C22B3FBF2F8A84502D10BB02E
:10BB7000BDE8F08FE36809932368A768D3F808B09D
:10BB80002046FFF7B9FF94F810E0134A642303FB43
:10BB900000F1BEF1000F18BF4A4603FB0BF3B3FBE5
:10BBA000F7F3CDE9043BB1FBF7F1099B0191CDE936
:10BBB0000672CDE9020700935246636908213046B8
:10BBC000FDF780FF01351C34CFE700BFA657030007
:10BBD000804C0300D44C0300245F03002D5F03005E
:10BBE000395F0300036818685B68C31A58425841FC
:10BBF000704773B5002305460DF107000C46164645
:10BC00008DF80730FCF7FCFF2846FFF7EBFF002814
:10BC100032D12B6819682EB91A68A868824238BFD9
:10BC2000561C1E60EA686B68501E07281ED8DFE8A5
:10BC300000F0040E1D121D1D1D165B5C23700024F8
:10BC40009DF80700FDF700F8204602B070BD33F8FC
:10BC500011302380F3E753F821302360EFE703EB43
:10BC6000C103D3E90023C4E90023E8E701FB023163
:10BC7000204608F0C3FBE2E70524E1E70368986883
:10BC80007047036800229A607047836800225A60F8
:10BC9000C3E904229A60DA601A6070472DE9F04126
:10BCA0000646884617461D4683B9B0687368D0E9D2
:10BCB000031403F1010C0A1B62450ED100243C6001
:10BCC00015B3FDF715FA0020BDE8F0818068FDF797
:10BCD00006FA0028E9D01120F6E701EA0302234022
:10BCE0009A4238BF64443B682CBFACEB0204641A30
:10BCF0009C4228BF1C4633683C601344C8F800309F
:10BD0000C3681C44C460DEE72846DDE7034680685C
:10BD10005B68826810B50469013323449B1A8B4227
:10BD200009D31144C0E90211FDF7DFF9002814BF5F
:10BD30000020082010BD0420FCE72DE9F84F07463D
:10BD400080688A469046FDF7CAF9814688BBD7E9E4
:10BD500001431A69013414449A68A41AD8F80020DF
:10BD6000944228BF1446C8F800407E689D6835405C
:10BD70000136A6EB050B5C4509D9386851462844C5
:10BD80005A4608F03BFBAD1B2C44DA444D4638685C
:10BD900022465146284408F031FBB868D8F8002004
:10BDA00083681344C0E90233FDF7A2F94846BDE8B1
:10BDB000F88F4FF01109F9E72DE9F04106460F46DB
:10BDC0001446984673B9B068816842698D1A11D1DA
:10BDD0002560B8F1000F02D00430FDF789F928463C
:10BDE000BDE8F08180680430FDF779F90028EAD0D9
:10BDF0001125F4E77368D4F800C01A4019408A424C
:10BE00000BD2654500D2256033681A443A60436915
:10BE10002268134443610025E1E701339B1A63451F
:10BE200038BF2360F0E72DE9F84306468068043008
:10BE30000F469146FDF753F9804688BBB2681369F7
:10BE40009568ED1AD9F800309D4228BF1D46C9F803
:10BE5000005073681169946819401C40A14228BFC2
:10BE60005C1C641AA54208D9336838461944224636
:10BE700008F0C4FA2D1B2744002133682A461944D0
:10BE8000384608F0BBFAB068D9F8002003691344BB
:10BE9000C0E904330430FDF72BF94046BDE8F883D0
:10BEA0004FF01108F9E7806808B582680369D21A73
:10BEB0008A4207D31944C0E904110430FDF718F988
:10BEC000002008BD0420FCE70B684A6843609342E9
:10BED00008BF0023016008BF43607047436843B157
:10BEE0000268916852680B449342436004BF002388
:10BEF0004360704770B5446806460D46206818B127
:10BF0000B3682946984718B923682B60256070BD2F
:10BF10002468F3E74368186808B102681A6070473C
:10BF20004368186870474368186800B970478842CA
:10BF300003D102681A600120704703460068F4E7E5
:10BF400010B50D49A1F59472914201D800200FE07F
:10BF50008C1AE30F03EBE4035B1002EBC30452F80B
:10BF60003330834205D802D204F10802ECE760685E
:10BF700010BD2146E8E700BF1065030008B5FFF7D4
:10BF8000DFFF024B002808BF184608BDD36303003B
:10BF900001F01F024B090121914000EB8300FDF7E6
:10BFA00054B801F01F0301229A404B0900EB8300B3
:10BFB000D143FDF762B84B0901F01F0150F823008F
:10BFC000C84000F00100704743681B681847000034
:10BFD000024B5B6803B11847704700BF4CDB002081
:10BFE000020600F00F034CBF02480348DB00184470
:10BFF000704700BF58DB0020A0DB002008B5FFF72A
:10C00000EFFF016009B14B681968416008BD00008D
:10C01000024B0146D3E90002104700BFA0DB00201D
:10C0200038B5831EDBB2062B98BF1A4A1A4D98BF4B
:10C03000D25C2B78A3F10203DBB288BF0022062B6F
:10C040009ABF1449CB5C00239342044603D0B2B19B
:10C05000124801F0C9FF022C14D0A4F1080042429A
:10C0600042412B78022B0FD0A3F108014B424B41E8
:10C07000934202D052B103F095FF2C7038BD01F00D
:10C08000EDFFE8E70122ECE70123F1E703F080FF91
:10C09000F3E700BF2E65030008DD002014880020B0
:10C0A0000378052B73B504460BD12F4AD2F884349C
:10C0B000D2F88024D2B222B92C4ADBB2052B08BFB9
:10C0C000144623782BBB2A4B1D68DDB98DF804502C
:10C0D000284D01A8FCF794FD2B6813B9264B628804
:10C0E0001A8001212348FCF7D4FF9DF80400FCF7D7
:10C0F000ABFD224B1B6813B10121204698472B68EA
:10C1000002B070BD2B6860889B6898472B685D689B
:10C11000DBE71B4801A9FCF70CFF05460028EFD020
:10C120002368036000260DF103008DF80360FCF71F
:10C1300067FD114B0F481B88026801339B1AEB8087
:10C140003146FCF76BFFA8809DF80300FCF77CFDEF
:10C1500001A90B48FCF717FF084B1B680146002B91
:10C16000CED020469847CBE70070024048650300D8
:10C17000FCDC002004DD0020E8DB00204CDB00209C
:10C180001C880020FFF78CBF012805D0022805D0AD
:10C1900030B90448FFF784BF0348FBE70348F9E7D9
:10C1A000704700BF406503003C6503004465030021
:10C1B0000148FFF775BF00BF4C6503002DE9F04F44
:10C1C00087B000260546884691461F4602966B6852
:10C1D00000225C682946012302A8A047044638B91A
:10C1E0008DF8060004908246564503D8052028E0C5
:10C1F0000136ECE76B680DF10602D3F804B029466E
:10C20000012304A8D8476B680DF10702D3F804B0E6
:10C210002946012304A8D8479DF8073043459DF8D7
:10C22000063013D14C450FD1109A13603B7087F83C
:10C2300001806A68023B54682946BA1C04A8A047DA
:10C24000002007B0BDE8F08F0134E4B26A68023B19
:10C25000D2F804B02946002204A8D8479DF8063039
:10C260009A44C1E72DE9F743082305462D492E4896
:10C270004FF48472FCF74AFE002851D12B4803F09A
:10C28000A7FE0446002847D1294B1870294B186097
:10C29000294B014618604822284808F0D8F8284859
:10C2A0004822214608F0D3F8264B8DB9C3E9005542
:10C2B0001D72002004F0FAFA18B1852801D0FCF7AD
:10C2C0005BFA214F002697F8089007F1090810E063
:10C2D00095E8070083E80700EBE7A3782344394695
:10C2E000985CFFF78BFE01356378EAB29342F4D88D
:10C2F0000136F4B2A14504D904EB440444440025BA
:10C30000F2E70B2310488DF8043001A9FFF75CFE1B
:10C31000044608B103F024FD204603B0BDE8F083D5
:10C320000324F9E7EADB00201C88002085C1020015
:10C3300008DD0020F4DC0020F8DC002058DB0020C1
:10C34000A0DB00204CDB00206065030010B503F08B
:10C35000D7FD10B90823184610BD03F0D9FD0446D7
:10C360000028F7D1044804F0D5FA03460028F2D09B
:10C37000FCF702FA2346EEE73865030003F0FABC47
:10C3800004F040B94FF08043D3F83824920702D527
:10C390000348FFF785BED3F83824D107F4D470479B
:10C3A0005165030007B5822301A88DF80430FFF71B
:10C3B00077FE03B05DF804FB2DE9F74300F10901B6
:10C3C00090F80890054600270E46FBB24B452AD24E
:10C3D00091F801800024E3B298450AD98B780A19B4
:10C3E0000134D05CFFF7FCFD0368002BF3D0112073
:10C3F00028E001370331E8E7A27823442946985C16
:10C40000FFF7FCFD01376278FBB29A42F4D808F1DD
:10C4100001082B7A5FFA88F4A34216D904EB44048E
:10C4200034440027EFE74FF00008F2E713681A687A
:10C43000002AFBD11D6001A90B2328468DF804308A
:10C44000FFF7C2FD03B0BDE8F083014BEFE700BF8B
:10C45000F4DC0020024B1878003818BF0120704728
:10C4600000DD0020030710B5044604D403F0D8FE15
:10C47000204604F095F92046BDE8104004F03AB992
:10C4800004F006B9014B1868704700BFF4DC0020C7
:10C49000F0B50A4B0246186878B1057A0023861D6C
:10C4A000DCB2A54201D80368F5E7013303EB43078B
:10C4B000F75D9742F4D101B10C70F0BDF4DC0020BF
:10C4C0001146FFF781BD08B500F00F03082B07D810
:10C4D000FFF786FD006818B1BDE80840FFF774BD9E
:10C4E000102008BD38B5054B05461C6804B938BD99
:10C4F00029462046FFF768FD2368F6E7F4DC0020B4
:10C5000038B5074B05461C680CB9062038BD2946CE
:10C510002046FFF759FD0628F8D12368F3E700BF4E
:10C52000F4DC002013B50446019103F097FD50B1EF
:10C53000064B1B78022B06D10199204602B0BDE8BC
:10C54000104003F09BBD082002B010BD08DD0020A4
:10C5500013B50446019103F081FD50B1064B1B78E1
:10C56000022B06D10199204602B0BDE8104003F02D
:10C57000FFBD082002B010BD08DD0020F8B54368FB
:10C580009B6805460C46164613B92EB1072002E0FB
:10C5900098470628F9D0F8BD2B7AA34213D909355C
:10C5A00004EB44042C446778F3B29F4201D8002086
:10C5B000F1E762789A4208D9A219A378D05CFFF714
:10C5C00051FF0136F0E77378FFDE00231B78FBE7AD
:10C5D0004368DB6870B505460C4603B198472B7A73
:10C5E000A34213D9093504EB44042C440025667892
:10C5F000EBB29E4200D870BD62789A4209D96219A6
:10C60000A378D05C04F044F80135F1E700235B78AF
:10C61000FFDE00231B78FBE743681B6903B1184763
:10C620001846704770B5084B1C6804B970BD267A6F
:10C630000025E9B28E4201D82368F5E700222046A2
:10C64000FFF79CFF0135F4E7F4DC002070B5084BE0
:10C650001C6804B970BD267A0025E9B28E4201D863
:10C660002368F5E72046FFF7B3FF0135F5E700BF84
:10C67000F4DC002038B503780F2B044610D9A3F161
:10C68000800283F08003052B00D938BD052AFCD831
:10C69000DFE812F067002C00490073007E00E00024
:10C6A0000F2BF2D801A252F823F000BFB3C702004B
:10C6B000E3C7020043C8020007C8020025C8020001
:10C6C00055C8020067C802008BC6020091C802006C
:10C6D00095C8020099C802008BC602008BC60200F2
:10C6E0008BC602008BC602005FC802006B48FFF7D2
:10C6F0008FFC6A48FFF7F6FE0D20FFF769FCFFF795
:10C70000A5FF00F0CCF9664B1B6853B9654B187A4E
:10C7100000F0010003F0D0FB0120BDE83840FFF736
:10C720007FBC0120F4E7FFF791FF03F049FF0020F1
:10C73000FFF776FC5C48FFF7D5FE5B48FFF768FC27
:10C740000E20FFF745FC594B1B78023BDBB2062B52
:10C750009BD8574AD35C002B97D0BDE8384001F0F6
:10C760007DBC524B1B78062B05D003F0FD03052B37
:10C770008BD10220D1E70820CFE74C4B1B78032B4D
:10C7800083D103F059FF00283FF47FAF0420C4E7B2
:10C79000464B1B78032B05D103F04EFF10B104204C
:10C7A000FFF73EFC03F0BEFB00283FF46EAF06200F
:10C7B000B3E73E4B1B78032B01D0082B02D13D4839
:10C7C000FFF758FF0020FFF703FC354B1D68002DD5
:10C7D0003FF45BAF28462146FFF7F6FB2B685D6808
:10C7E000F5E7FFF733FF00F051F90220FFF718FCDF
:10C7F0000120FFF7EDFB2046FFF70AFC2046BDE8CD
:10C800003840FFF76FBE294B1B78082B06D102205A
:10C81000FFF706FC03F0D0FB0320EAE70520FFF753
:10C82000FFFBF9E70320FFF7D3FB2348FFF7F0FBFB
:10C830002148FFF757FE1D4B1B78062B99D1072087
:10C840006BE70320FFF7ECFB0220FFF7C1FB20465C
:10C85000FFF748FE2046BDE83840FFF7D9BB0F2060
:10C86000FFF7B6FBCAE78078FFF7BAFB21464368BB
:10C870000068984700283FF408AFA07802073FF40B
:10C8800004AF03073FF501AFBDE8384003F0BABC81
:10C890000820E5E70920E3E70A20E1E75065030007
:10C8A000F8DC00204CDB00204F65030008DD002091
:10C8B0002E6503004E6503004D65030073B5244EDD
:10C8C00000230193336823B922492348FCF76BFB0B
:10C8D00030603468ECB1A58885B1E388B3F5006FAA
:10C8E00024BF0023E380E388ADF806305A1C013DE5
:10C8F000E280A58001A8FFF7BDFE07E02046FFF714
:10C90000B9FE14491448FCF779FB3560012002B0E8
:10C9100070BD124B18680028F9D00DF103008DF896
:10C920000340FCF76DF90E4B0C481A88B2F5006F06
:10C9300028BF1C801A88ADF80620511C19800121DF
:10C94000FCF7BFFB9DF80300FCF77EF9D2E700BFC0
:10C950000CDD002048DB00201C88002004DD0020C6
:10C96000E8DB0020002070472DE9F04F2DED028B11
:10C970004B6885B080460C4601926BB90B681B680A
:10C980001B684BB98D683DB9C0E90055284605B014
:10C99000BDEC028BBDE8F08F03F030FC019BE76833
:10C9A0009F4228BF1F4604F110034FF0000A08EE13
:10C9B000103A8146564601254FB3A3686168BB42D1
:10C9C0009B4628BFBB4629B35A4609EB060007F031
:10C9D00015FD00236360A268E368A2EB0B02A3EBE2
:10C9E0000B03A260E360A7EB0B075E440ABBBAF13E
:10C9F000000F03D02268126812682260DBB123683E
:10CA0000DBB963601EB1019BB34288BF0025C8E952
:10CA10000096BBE7002BDED021684B6818EE100AA9
:10CA2000D3F804A009EB06025B46D0474FF0010A99
:10CA3000D1E7002BC0D10025BEE700230293216877
:10CA40004B680022D3F804B002A80123D84708B9E4
:10CA50002061B1E7A3680133A360F0E7084B1A78BF
:10CA600082420CD0052818BF064A187018BF1378E8
:10CA700005481CBF23F002031370FFF7FBBD70478E
:10CA80001CDD002038DD00207065030008B50020A3
:10CA9000FFF7E8FCBDE808408020FFF7E3BC08B5DD
:10CAA0000020FFF7EDFCBDE808408020FFF7E8BC60
:10CAB00038B505460C4603F02FFCA84205BFD4E963
:10CAC0000001034B1020C3E9000108BF002038BD5E
:10CAD0003CDD00207FB5C38893421E4628BF164622
