:020000022000DC
:1070000000000420757302005D7302005F730200CC
:1070100061730200637302006573020000000000E8
:107020000000000000000000000000006773020084
:1070300069730200000000006B7302006D730200B0
:10704000618B02006F730200B98E0200E58D0200B1
:107050006F7302006F730200E58B02006F73020012
:107060006F7302006F7302006F730200498D02009C
:107070006F7302006F7302006F7302006F73020080
:107080006F730200B97F02006F7302006F7302001A
:107090006F7302006F730200659D02006F73020040
:1070A0006F7302006F7302006F7302006F73020050
:1070B0006F7302006F730200000000000000000008
:1070C0006F7302006F7302006F7302006F73020030
:1070D0006F7302006F7302006F7302006F73020020
:1070E0006F7302006F7302006F73020000000000F4
:1070F000000000006F730200000000006F730200C8
:10710000000000000000000000000000000000007F
:10711000000000000000000000000000000000006F
:10712000000000000000000000000000000000005F
:10713000000000000000000000000000000000004F
:10714000000000000000000000000000000000003F
:10715000000000000000000000000000000000002F
:10716000000000000000000000000000000000001F
:10717000000000000000000000000000000000000F
:1071800000000000000000000000000000000000FF
:1071900000000000000000000000000000000000EF
:1071A00000000000000000000000000000000000DF
:1071B00000000000000000000000000000000000CF
:1071C00000000000000000000000000000000000BF
:1071D00000000000000000000000000000000000AF
:1071E000000000000000000000000000000000009F
:1071F000000000000000000000000000000000008F
:10720000354936480A1A02D0072291438D4634493F
:1072100034480A1A06D00722914381F309880222D2
:1072200082F3148830483149314A00F044F831483B
:107230003149324A00F03FF831483249324A00F0D1
:107240003AF832483249334A00F035F83248334987
:10725000334A00F030F833483349344A00F02BF811
:1072600033483449344A00F026F83448344900227F
:1072700000F02CF833483449002200F027F8334856
:107280003349091A082902DB002202604160314AB1
:1072900090471F481F49884205D00268043003B454
:1072A000904703BCF7E700208646EC46002000210B
:1072B000294A9047FEE7884207D0521A05D0037842
:1072C00001300B700131013AF9D17047884202D088
:1072D00002700130FAE770470000042000E003204C
:1072E00000000420000004206CAF02005033002096
:1072F000A4330020BC730200BC73020094A00200FF
:107300006CAF0200503300205033002000A3020075
:1073100000A3020000A3020000A3020000A30200D9
:1073200000A3020000A3020000A302006CAF020051
:10733000C0AF0200A4330020A4330020A4330020F7
:10734000725900207459002074590020745900208B
:10735000747900208B730200BD930200FEE7FEE704
:10736000FEE7FEE7FEE7FEE7FEE7FEE7FEE7FEE7F5
:1073700000F002B8FFF7FCBF0B484FF0070188434D
:1073800085460A488047FFF73BBF094809490A4A32
:10739000884207D0521A05D0037801300B700131B2
:1073A000013AF9D170470000000004202D88020046
:0C73B00028A20200783200205033002098
:1073BC007047000007B5044B0093044A402300F0CB
:1073CC0030F803B05DF804FBDD730200A533002038
:1073DC002DE9F84388461446B2B10F4B0F4E0325E6
:1073EC00002743F00109224608EB0701002002F0B8
:1073FC006BF80744241A48B933782BB14FF47A4010
:10740C00C847013D02D13570BDE8F88301233370C4
:10741C00002CE8D1F8E700BF00A30200A433002041
:10742C007047F0B595B01D46164608460C4601F05F
:10743C00BBF81A9B0D93CDE9086500252B460C2251
:10744C0005A920460A958DF82C500C9501F0C8F82A
:10745C00079B0293069B03939DF814308DF81150F3
:10746C0003F00302012A1DD1BDF81420059DC3F3BE
:10747C00C203C2F383168DF81030B2000C230EA990
:10748C00204601F0ADF8C5F3952508AB00933246C4
:10749C0002AB0EA9284600F03DFC204601F088F80E
:1074AC0015B0F0BD022AF8D1BDF81650C3F3C203D3
:1074BC00C5F389158DF810300C27082D2E4628BFE2
:1074CC0008263B4632460EA9204601F089F8AD1B32
:1074DC0008AB02AA31460EA8374400F07FFC002D01
:1074EC00EBD1DAE7014B01221A70704726340020E9
:1074FC007047000070B50E4D06460FCD88B06C4637
:10750C000FC495E80F00002E84E80F00094A0A48C2
:10751C004FF0060308BF00226946009301F0FAFE03
:10752C0008B100F0D3FC054B1E7008B070BD00BF55
:10753C0014A30200F174020050330020E533002044
:10754C0008B5044801F006FEBDE808400020FFF72E
:10755C00D1BF00BF5433002007B5044B0093044A3D
:10756C004023FFF75EFF03B05DF804FB817502005A
:10757C00E633002010B5084C08480023D2B2237023
:10758C0001F05EFE08B100F0A1FC054B1A7812B1B7
:10759C002378002BFBD010BD263400205433002060
:1075AC00E53300200378024613F0040006D003F004
:1075BC000300012803D0022809D0012070470B6872
:1075CC0012880333C2F3831213440B6070470B68A9
:1075DC005288033303EB92130B60EEE72DE9F04F67
:1075EC00DFF820A187B00F4600230446C61C0DF11E
:1075FC00070015468DF8073000F09AFCDAF80420E5
:10760C003A60DAF80830404F03F500639B1AA7F193
:10761C000409A7F10808B3421BD30020002D6DD03C
:10762C0004F00F039B0143F0050363F30F00DAF83A
:10763C000430C3F30A02033233444AF822009DF8A3
:10764C000700CAF8043000F097FC012007B0BDE831
:10765C00F08F0121384600F0D6FC484600F0EBFCD8
:10766C00404600F0E8FCDAF808000290C0F30A008B
:10767C0003300AEB800002A9FFF794FF029B10B1C4
:10768C00C3F30A00F4E7C3F30A020AEB8202591CA3
:10769C00D2680392C1F30A010AEB810102F00302E2
:1076AC000333012AC96802931ED0022A24D1BDF8E3
:1076BC000E20C2F3891203324FEA114B03EB9203F3
:1076CC000293404600F0BAFC10B1029BCAF8083095
:1076DC005946384600F097FCDAF80830DAF80420FE
:1076EC0003F500639B1A96E7BDF80C20C2F38312D6
:1076FC004FEA114B1344E3E78346E2E7A40544F059
:10770C00060094E7F83400201455002030B50446E8
:10771C00084681B1094B0A4A0A49D21AD2080023F9
:10772C009A4201D1052006E031F8235020688542A9
:10773C0002D12360002030BD0133F1E7E0A002004C
:10774C00B8A10200783200202DE9F84F0546084612
:10775C00002D42D0224C0023237004F5005400F07D
:10776C009DFB2048E56000F0D8FE814690BB1E488A
:10777C00DFF878801E4CDFF87CA000F0F4FFA4EB5F
:10778C000804E4084D46A54208D100231A4A1946BC
:10779C009C421AD022F823100133F9E700273E4609
:1077AC0008EBC50BB54209D058F83610DBF80000D1
:1077BC00142202F0BEFB0028C8BF01370136B442C8
:1077CC00F0D12AF825700135DDE70C48A200002124
:1077DC0002F0F6FB4846BDE8F88F4FF00709F9E7D1
:1077EC00F8340020B8A102008CA30200E0A0020033
:1077FC00B8A10200783200207A320020E432002056
:10780C0007B5019001A8FFF781FF30B9019A044B2D
:10781C0053F8320003B05DF804FB0020FAE700BF18
:10782C00E0A00200094B013903EBC000032909D881
:10783C00DFE801F00A020406042070470079704763
:10784C00407970470020704702207047E0A002008A
:10785C0070470000034BD3E90130C31A584258411A
:10786C00704700BFF83400202DE9F04786B0FFF7D1
:10787C00F1FF0646002840F02381924C04F5005598
:10788C00A861BFF34F8FA3680293C3F30A030333BA
:10789C0004EB830002A9FFF785FE029B48B1AA699D
:1078AC003AB962689A42F0D8A260304606B0BDE898
:1078BC00F087591CC1F30A0104EB8101C3F30A02DE
:1078CC00C968049104EB8202991CD2680392C1F33B
:1078DC000A01033304EB8101029302F00303C9682C
:1078EC000591022B5AD1BDF80E3077489DF80C60EB
:1078FC00C3F38919B9F1500FC84628BF4FF050088F
:10790C0008F10C0168F38F13C1F30901ADF80E30C7
:10791C0000F01BFEC6F3C2060746002800F0B88034
:10792C0000F042FE0C220DEB02010023384600F061
:10793C004DFE0299CB43C3F30A030133C1F30A0191
:10794C000331B8EB830F4FEA830204EB810122D998
:10795C005FFA82FA0C23A8EB0A08384600F036FED0
:10796C005FFA88F80AF10C03584903F0FC0342460D
:10797C00384600F02BFE029B09F1030903EB990337
:10798C00B0460293AB69002B47D12E69DFF840A1BA
:10799C004FF0070968E00C234246E9E7012B77D149
:1079AC00BDF80C604848C6F38311062928BF062190
:1079BC0061F38916033101F00F018900ADF80C60F9
:1079CC0000F0C3FDC6F3C2060746002860D000F0E5
:1079DC00EBFD0C2200230DEB0201384600F0F6FD06
:1079EC004FF00008BDF80C20C2F383124FEA880355
:1079FC00904503F10C0301D3B046C3E702994A1C2E
:107A0C00C1F30A010331029204EB810104223846CE
:107A1C0000F0DCFD08F10108E4E7384600F0C8FD91
:107A2C00FFF718FF80F00106F6B23EE7F3685A79CB
:107A3C00C2B11B79BDF8101003EB43025AF82110A8
:107A4C0009FA02F3B8F1050F03EA010323FA02F372
:107A5C0008BF4FF00308434504D3336839461B680D
:107A6C0030469847F3681E68002EDFD1384600F088
:107A7C009FFD0DF107008DF8076000F059FAAB6916
:107A8C000BB9029BA3609DF8070000F075FAC7E7DD
:107A9C002C6974B90F4B5B88012BC1D90E4B0F4865
:107AAC000F49C01AC008000440F0020000F070F842
:107ABC00B6E7236820469B689847E3681C68E8E7AC
:107ACC000026F2E6F8340020B8A1020004350020AC
:107ADC00E432002098320020E0A0020020A1020035
:107AEC0061A302002DE9F34704460E46924601A914
:107AFC00012218469946FFF771FD224F68B3019D8C
:107B0C004FF00008EA1CC84508EB020130D10021F7
:107B1C001D4800F055FA80F310006B1CC3F30A03E8
:107B2C0007EB8303000440EA1440D860174BE400D1
:107B3C00DB68984704F03804AB1CC3F30A03C5F3A5
:107B4C000A0544F0010407EB8303033544EA881467
:107B5C0044EA8624D86047F825403B781BB1FFF7F0
:107B6C0083FE0028FBD1FFF773FE02B0BDE8F0875F
:107B7C00C1F30A0107EB81015AF82830CB6008F1F8
:107B8C000108C0E7F834002014550020F8540020F8
:107B9C0000231A46FFF7A6BF07B50123019201AADD
:107BAC00FFF7A0FF03B05DF804FB07B5CDE9002398
:107BBC0002236A46FFF796FF03B05DF804FB1FB57E
:107BCC00CDE90123069B039301AA0323FFF78AFF48
:107BDC0005B05DF804FB000038B5084B03F5005206
:107BEC00012514691D7004B938BDE3685D71236803
:107BFC0020465B689847E3681C68F4E7F83400207B
:107C0C00F0B5C38885B005460E4633B1284A0092BC
:107C1C002849294A304600F074FA297A052945D0BA
:107C2C006B7A4BB1A888FFF7FDFD244B244953F820
:107C3C002020304600F065FA224B2C681B68B4FB00
:107C4C00F3F4214B1868B4FBF0F34FF47A7E00FB8D
:107C5C0013444FF461610EFB04F4B3FBF1F23C27C7
:107C6C0001FB1231B4FBF0FCB1FBF7F300FB1C443D
:107C7C0007FB13110EFB04F40091B4FBF0F4134951
:107C8C00CDE901C4304600F03CFA2A7A104BA888A2
:107C9C0053F822400021FFF7B3FD0E49034622465C
:107CAC00304605B0BDE8F04000F02BBA05B0F0BD91
:107CBC00B8A30200A0A3020098A3020048A40200EB
:107CCC00BDA30200B4550020B0550020C0A3020093
:107CDC006CA40200DCA3020010B5037A052B0C4641
:107CEC000FD0437A23B1084A0849204600F009FA1C
:107CFC000749204600F005FA2046BDE8104000F088
:107D0C00F5B9002AF8D0F3E7B8A30200BDA302002E
:107D1C00B5A302002DE9F04385B01F460C9D00234E
:107D2C0095F80C902B7306460C469046294638461F
:107D3C00FFF766FFB8F1060F09D8DFE808F0041268
:107D4C00181F283340003146284600F0DAF900228B
:107D5C0029463846FFF7C0FF85F80C9005B0BDE802
:107D6C00F08322683146284600F0CBF9EFE7D4E9DE
:107D7C0000233146284600F0C4F9E8E7A3680093D5
:107D8C003146D4E90023284600F0BBF9DFE7E3686D
:107D9C000193A36800933146D4E90023284600F0F0
:107DAC00B0F9D4E723690293E3680193A3680093C5
:107DBC003146D4E90023284600F0A3F9C7E76369EC
:107DCC00039323690293E3680193A36800933146FC
:107DDC00D4E90023284600F094F9B8E708292DE9E6
:107DEC00F74F80460E4617461C463DD800251B7B98
:107DFC002573214610460193FFF702FFDFF888A098
:107E0C00DFF888B0AE4232D918F805205946204622
:107E1C0000F077F90135082DF4D11D49DFF874A075
:107E2C00DFF874B0204600F06CF94FF000094E45B5
:107E3C0024D918F809507E2D1ED8284602F03CF89B
:107E4C00002814BF2A462E225946204600F059F924
:107E5C0009F10109B9F1080FE9D10122214638468F
:107E6C00FFF73AFF019B237303B0BDE8F08F514637
:107E7C00204600F046F9CDE72E22E5E75146204694
:107E8C0000F03FF9E4E700BFECA30200E6A3020018
:107E9C00F0A30200EEA30200F2A30200084A10B500
:107EAC000123084C13600021A04204D801B11360D7
:107EBC00054B186010BD40085B000121F4E700BFC2
:107ECC00B455002040420F00B05500201FB50021D2
:107EDC00039001AA44F20100CDE9011100F004F86D
:107EEC0005B05DF804FB000008B572B6FFF774FE30
:107EFC00FFF7BAFC0028FBD1084BD3F8F020D207CF
:107F0C0000D500BEBFF34F8FD968054A01F4E0617C
:107F1C000A43DA60BFF34F8F00BFFDE700ED00E0CE
:107F2C000400FA05014800F03DB800BF6C33002096
:107F3C0070B5EFF3108672B60C4A946801239CB9A5
:107F4C0093600B4B0B4DD3F8801029401160C3F894
:107F5C008050D3F8841051604FF0FF32C3F8842066
:107F6C00047006B962B670BD0370FAE7B85500200C
:107F7C0000E100E0FC06FFBD084B9A6810B55AB151
:107F8C0050B9EFF3108172B6054A1C6814605C6836
:107F9C005460986001B962B610BD00BFB85500209E
:107FAC0000E100E00368D3F804057047024B034A74
:107FBC001B681068184700BFCC550020C455002022
:107FCC0010B5034653E8000F0A4643E8002494F02A
:107FDC00000FF7D110BD10B5034653E8002F42EA4D
:107FEC00010043E8000494F0000FF6D110BD10B569
:107FFC00034653E8000F00EA010243E8002494F022
:10800C00000FF6D110BD10B5034653E8002F02EB5C
:10801C00010043E8000494F0000FF6D110BD10B538
:10802C00034653E8002FA2EB010043E8000494F050
:10803C00000FF6D110BD0121FFF7CDBF0021FFF7D6
:10804C00D6BF10B590B1D0E9012301689B1ADBB201
:10805C000A60013BDBB2FF2B026802D100201071D9
:10806C0010BD11684C1C14600B70F2E70E20F7E782
:10807C0037B5054600240DF107008DF80740FFF7D2
:10808C0057FF2A686B68116899420ED9481E106018
:10809C0011F8013CEC68298B01FB0344AB681179A6
:1080AC001B1ADBB2994238BF13719DF80700FFF71A
:1080BC0063FF204603B030BD37B5054600230DF1F4
:1080CC0007000C468DF80730FFF732FF2A6813685B
:1080DC00591C1160E968641A298BB4FBF1F41C700B
:1080EC009DF80700FFF748FF03B030BD826810B55C
:1080FC0004462AB143690168006998470023A360CC
:10810C0010BD0EB403B5039921B104AB01AA0193C0
:10811C0000F076F802B05DF804EB03B070470A2962
:10812C0038B504460D4602D10D21FFF7F8FFA368C0
:10813C002268591CA160D554D4E901329A4204D367
:10814C002046BDE83840FFF7D1BF38BD2DE9F84FC8
:10815C009846DDE90A43154682460F460A464FF01B
:10816C000109AA420FD2C14538BFC14613F0010B19
:10817C0001D16CB900240126B8F1010F1BD908F10B
:10818C00FF386E43F8E709F10109B2FBF5F2E8E7B5
:10819C009B070ED5B8F1000F0CBF30262026A14549
:1081AC00E9D2013C31465046FFF7B9FF002CF6D11D
:1081BC00E0E72026F3E7B7FBF6F39D42E1D9DFF8C1
:1081CC003C80B7FBF6F3504618F8031006FB137708
:1081DC00FFF7A5FF3346AB42B6FBF5F6F1D2BBF188
:1081EC00000F02D00CB1A14501D3BDE8F88F2021BE
:1081FC005046013CFFF793FFF4E700BF9CA402003C
:10820C002DE9F74F054617468846002900F03E81B8
:10821C0018F8011B49B92B7B002B00F0378128463D
:10822C0003B0BDE8F04FFFF761BF252940F0B780E0
:10823C00002698F800302D2B424608F1010823D077
:10824C00302B24D02B2B25D000242A2B02F101011A
:10825C0023D13B681A1D1B683A601C440A461378EC
:10826C002E2B26D101324FF0000A104610F8011BBC
:10827C00A1F1300CBCF1090F1DD80A2303FB0A1322
:10828C00A3F1300A0246F0E746F00106D1E746F0CA
:10829C000206CEE746F00406CBE711F8013CA3F149
:1082AC0030000928DBD80A2202FB0434303C0A4691
:1082BC00CBE74FF0000A12F8011B01F0FB00682815
:1082CC009046F8D0782909D86F290CD8632962D048
:1082DC0022D8252963D0582900F0888098F80030DE
:1082EC00002B95D197E770390829F7D801A353F8DB
:1082FC0021F000BF73840200E9820200E9820200CF
:10830C0009840200E9820200E7830200E98202008C
:10831C00E9820200F9830200642901D06929DDD1C8
:10832C003A68D2F80090111D89EAE9723960A2EB23
:10833C00E9724FF0010B092A35DCD34538BFD3461F
:10834C002CB1B9F1000F01DB720700D5013CB3076A
:10835C0002D5BAF1000F03D0F00701D44CBB0024B6
:10836C00B9F1000F2DDAC9F100092D212846FFF7CC
:10837C00D6FE06F00302022A04D1BAF1000F01D195
:10838C001CBB0024CDE9004653460A224946284628
:10839C00FFF7DCFEA2E73B681A1D19783A60284605
:1083AC00FFF7BDFE9AE70A230BF1010BB2FBF3F2C8
:1083BC00C1E7A345D4D220212846013CFFF7AFFEEC
:1083CC00CCE77107D5D52B21D0E7A345DAD23021E4
:1083DC002846013CFFF7A3FED2E73968CDE90046F9
:1083EC000A1D3A6053460A220968D0E739680A1D0B
:1083FC003A60CDE9004653461022F5E73B681A1D5A
:10840C003A6016F00106D3F8009024D1B9F1000FB0
:10841C0003D0484601F007FE0646B4421DD809F1C8
:10842C00FF3919F8011F00293FF458AF2846FFF710
:10843C0076FEF6E728460136FFF771FE19F80610AE
:10844C000029F7D1A642BFF449AF20212846013CB0
:10845C00FFF765FEF6E70026F0E720212846013CF1
:10846C00FFF75DFED9E73B681A1D3A6030212846BC
:10847C001C68FFF754FE78212846FFF750FE0022B7
:10848C000823CDE900322146102280E703B0BDE875
:10849C00F08F00BF2DE9F84FB0F806A04579D2F85F
:1084AC0000B09DF828900AFB05F5043D88460BEBBF
:1084BC000301A94203F1040488BFA5EB030BB4FB31
:1084CC00FAF607460AFB1644C2F800B04EB9AAEBFE
:1084DC0004055D4528BF5D46BBF1000F04D1BDE826
:1084EC00F88F3F68013EF1E7043408EB06003C448A
:1084FC002A46B9F1000F0DD02146ABEB050B01F06C
:10850C0036FDDA452E443F6855464FF0000428BF2F
:10851C005D46E1E701462046EFE7FFF792BDF8B56F
:10852C0046790146721E0546002393422D6803D3FB
:10853C000024A64202D8F8BD0133F6E70F6828469E
:10854C00FFF7BAFD01343946F3E72DE9F843068B02
:10855C00CD1C0746FFF78CFD043E35440446B5FBA5
:10856C00F6F5F0B14FF48073EDB28380C680013D17
:10857C00076081464FF00008A84512D23846FFF735
:10858C0077FD064648B163790133637108F1010840
:10859C00C9F8000007608146EEE72046FFF7BFFFF1
:1085AC0034462046BDE8F88301210430FFF72BBD8B
:1085BC0010B5012104460430FFF731FDC0B220B9DB
:1085CC002046BDE81040FFF7AABF10BD1FB50392AF
:1085DC000022009203AAFFF75DFF05B05DF804FBD3
:1085EC001FB503920122009203AAFFF753FF05B0B7
:1085FC005DF804FB026813685268934291BFD01A6D
:10860C0080680130801888BFC01A70470368816881
:10861C001A685B688B4234BF01330023D31A58426B
:10862C005841704773B5002304460DF107000D4601
:10863C008DF80730FFF77CFC2046FFF7E7FF10B101
:10864C00237C002B3BD12368A1685E685A688A4260
:10865C0034BF013200225A6028B11A6891428CBF93
:10866C00013200221A60E2686368511E072920D883
:10867C00DFE801F004101F141F1F1F182A789A55E9
:10868C002046FFF7B7FF23689A68824200D29860B1
:10869C00002415E02A8823F81620F1E72A6843F80D
:1086AC002620EDE7D5E9000103EBC603C3E9000181
:1086BC00E6E7294602FB063001F059FCE0E704240A
:1086CC009DF80700FFF758FC204602B070BD036808
:1086DC0018685B68C31A58425841704773B5002339
:1086EC0005460DF107000C4616468DF80730FFF7CE
:1086FC001FFC2846FFF7EBFF002832D12B681968C6
:10870C002EB91A68A868824238BF561C1E60EA68E7
:10871C006B68501E07281ED8DFE800F0040E1D12EF
:10872C001D1D1D165B5C237000249DF80700FFF7D0
:10873C0023FC204602B070BD33F811302380F3E7E0
:10874C0053F821302360EFE703EBC103D3E9002397
:10875C00C4E90023E8E701FB0231204601F007FCE5
:10876C00E2E70524E1E7836800225A60C3E90422AA
:10877C009A60DA601A6070470B684A6843609342EB
:10878C0008BF0023016008BF43607047436843B1D2
:10879C000268916852680B449342436004BF002303
:1087AC004360704710B50D49A1F59472914201D800
:1087BC0000200FE08C1AE30F03EBE4035B1002EBD9
:1087CC00C30452F83330834205D802D204F10802B4
:1087DC00ECE7606810BD2146E8E700BFB4A90200D1
:1087EC0008B5FFF7DFFF024B002808BF184608BD8D
:1087FC0078A802004FF08053D3F830010D2804D034
:10880C00A0F11003584258417047012070470000F6
:10881C00024AD2F80034002BFBD0704700E0014034
:10882C0010B5FFF7E7FF40B14FF080430022C3F8CB
:10883C000C21C3F81021C3F83825FFF7DBFF002803
:10884C0046D04FF080524E4BD2F80414C3F820158A
:10885C00D2F80814C3F82415D2F80C14C3F8281550
:10886C00D2F81014C3F82C15D2F81414C3F8301520
:10887C00D2F81814C3F83415D2F81C14C3F84015E8
:10888C00D2F82014C3F84415D2F82414C3F84815B0
:10889C00D2F82814C3F84C15D2F82C14C3F8501580
:1088AC00D2F83014C3F85415D2F83414C3F8601548
:1088BC00D2F83814C3F86415D2F83C14C3F8681510
:1088CC00D2F84014C3F86C15D2F84424C3F87025C0
:1088DC00FFF790FF48B14FF08043D3F80024D20744
:1088EC0044BF6FF00102C3F800244FF08053D3E96A
:1088FC004C230D2A39D1022B02D8224AD35C3BB12E
:10890C004FF01023D3F808224FF08043C3F85825BA
:10891C004FF01023D3F80022002A03DBD3F80432E3
:10892C00002B28DA184901234FF01020C1F8043528
:10893C001224FFF76DFFC0F80042FFF769FFC0F883
:10894C000442FFF765FF0023C1F80435FFF760FF11
:10895C00BFF34F8F0D490E4BCA6802F4E06213430C
:10896C00CB60BFF34F8F00BFFDE7102AD0D1032B94
:10897C00C6D8084AC2E7084B084A1A6010BD00BFA7
:10898C0000C00040B4A9020000E0014000ED00E08E
:10899C000400FA05B7A90200743300200090D0033C
:1089AC0038B5074C051E04F1080318BF1C46236894
:1089BC002BB11A6822605B6828469847F7E738BDE8
:1089CC00D855002020B9054B01225A70FFF7E8BF9B
:1089DC00012802D1014A9070F8E77047D055002069
:1089EC0020B9034B01225A70FFF7DABF704700BF62
:1089FC00D055002038B50E4C2378B3B90D486360C0
:108A0C00A3602361E36000F075F8054601F08AF974
:108A1C0008B900F07BF801232370074BD3F800341E
:108A2C000BB10123A370284638BD8525F5E700BF9F
:108A3C00D0550020D18902000000014037B50D4C03
:108A4C0000230DF107008DF80730FFF771FAE3688A
:108A5C00013BE360E36833B9074BD3F8005415B915
:108A6C0000F066F8A5709DF80700FFF785FA03B0D3
:108A7C0030BD00BFD055002000000140012813B5C7
:108A8C000CD0032820D038B9134B0122C3F8802016
:108A9C00BFF34F8FBFF36F8F02B010BD0F4C00238D
:108AAC000DF107008DF80730FFF742FA23780BB968
:108ABC00FFF7A0FFE3689DF807000133E360012393
:108ACC00A370FFF759FAE7E700F020F802B0BDE811
:108ADC001040FFF7B3BF00BF00E100E0D05500200D
:108AEC0000F18040002382B0036003680193019B76
:108AFC0002B07047044B0246187918B91A6001226B
:108B0C001A71704785207047E4550020074B1A688E
:108B1C00D20704D4C02283F8002301221A604FF03C
:108B2C0080430122C3F81825704700BF00E100E024
:108B3C004FF0804208B50223C2F808334FF482701C
:108B4C00FFF7CEFF0123D360D2F81834DB03FBD43C
:108B5C0008BD00004FF0804210B5D2F8003153B17F
:108B6C004FF48070FFF7BCFF0123C2F808330B4BA6
:108B7C0000201B6898474FF08042D2F8043163B153
:108B8C004FF48270FFF7ACFF0223C2F80833034B9B
:108B9C00BDE810401B680120184710BDE4550020AB
:108BAC0000F1804000F5C040002382B003600368F0
:108BBC000193019B02B07047800000F1A040D0F8F7
:108BCC00002722F44032C0F80027D0F8003743EADF
:108BDC000143C0F8003770472DE9F74F00244E4D84
:108BEC0001944FF48072012102F1804303F5C043DC
:108BFC0090B21B68012B06D1D5F804330B4202D07E
:108C0C00FFF7CEFF0C430432B2F5907F4FEA4101DF
:108C1C00EAD1414BD3F87C31012B0CD14FF4BE700F
:108C2C00FFF7BEFF4FF0A04344F00044D3F82025DB
:108C3C000192C3F82025E3B2D3B1384F00250126A9
:108C4C00344210D0AB0003F1804303F5C043D3F89A
:108C5C001005D3F8101557F8253023B1C1F3014195
:108C6C00C0F3042098470135082D4FEA4606E7D19A
:108C7C00002C48DA294D4FF0A048294E4FF000093E
:108C8C00012716F9013B5A1C31D0C3F3C20202A9C9
:108C9C000A44DCB212F8042C03F03F0A03F0070379
:108CAC0007FA03F31A4222D00AF5E073504658F83B
:108CBC002330C3F3014BBBF1020F0CBF0321022184
:108CCC00FFF77AFF07FA0AF3C8F8203505EB0A0319
:108CDC0093F9303055F823304BB1A109032904D056
:108CEC00BBF1020F12D1012901D15046984709F16D
:108CFC000109B9F1040FC4D1D8F820350193C8F893
:108D0C002035002BB9D103B0BDE8F08FBBF1030FB8
:108D1C00EDD10229E8E700BF00600040EC550020CF
:108D2C003C5600200020704770470023435082B00F
:108D3C0043580193019B02B0704700002DE9F041AC
:108D4C00224E234FDFF88C8000254FF48034D7F867
:108D5C00043306F5A041234289B20CD0336853B1D9
:108D6C00C7F848433846C7F80843FFF7DEFFD8F882
:108D7C000030E8B298470135032D4FEA440406F160
:108D8C000406E4D11248D0F80433DA070AD5D0F837
:108D9C0000313BB14FF48071FFF7C7FF0D4B04203E
:108DAC001B6898470A48D0F804339B070CD5D0F8B9
:108DBC0004314BB14FF48271FFF7B7FF054BBDE89F
:108DCC00F0411B6805201847BDE8F08140B1004018
:108DDC0000B0004048560020124BD3F8182182B046
:108DEC00EAB10022C3F81821D3F818310193019B82
:108DFC000D4BD97FFF2907D0987F01228A404FF075
:108E0C00A04148B1C1F80C2500225A771A72D3E957
:108E1C000021064802B01047C1F80825F4E702B05B
:108E2C00704700BF003000404C56002054560020C4
:108E3C000023435082B043580193019B02B070470A
:108E4C000A4610B54FF48E71FFF7F2FF136A916862
:108E5C00C95C136A01331362C0F81C1510BD8B6911
:108E6C000A4610B54FF4847123B9FFF7E1FFD0F82F
:108E7C00183510BDFFF7DCFF536AD168D0F8180520
:108E8C00C854536A01335362F3E700001FB5012342
:108E9C008DF80030044BCDE90110D3E9001268467F
:108EAC00904705B05DF804FB7056002030B54D4D71
:108EBC00D5F804339A0585B051D5D5F82431002B5B
:108ECC004DD04FF492712846FFF7B2FF4FF4017367
:108EDC00C5F80833444B93F829200AB901226A607B
:108EEC00404902228DF80020D1F88024C1F880245A
:108EFC0003929A690292DA6801920022C3E906226F
:108F0C006846D3E9001290473648D0F81C315BB163
:108F1C00354A5169136A99424DD992F82830002B81
:108F2C0049D11146FFF78CFF2E48D0F84431002B65
:108F3C0056D04FF4A271FFF77BFF2B4B93F82920EF
:108F4C000AB1012202609A69002A49D0586AD9688C
:108F5C0000229A6105B0BDE83040FFF797BFD5F805
:108F6C0004335B07D0D5D5F80831002BCCD01E4C80
:108F7C001C482146FFF773FF636AA2699A42C3D16A
:108F8C00E369E1684BB1A3612369E3600023606A84
:108F9C00E3616362FFF77AFFB6E794F829300BB907
:108FAC0001236B600F4B4FF40172C3F808230023AD
:108FBC00606AA361EEE70B484FF48E71FFF738FF40
:108FCC005369002BB0D051690291002391688DF840
:108FDC000030019153616846D2E900139847A3E72A
:108FEC0005B030BD00200040705600202DE9F8433C
:108FFC00534D90F804802C2303FB0853064693F83A
:10900C002A300C469146002B40F096804D49006862
:10901C00FFF788FE0746002840F0908022683068F1
:10902C00511C0BD04FF0A04101239340C1F80835DF
:10903C0002F5E0734FF0030C41F823C061684B1C40
:10904C001FBF01F5E0734FF0A04C4FF0000E4CF831
:10905C0023E0A369C0F8243594F814C0637DBCF1F7
:10906C00010F4CEA0303C0F86C35C0F81415C0F8B6
:10907C000C251DD1A268531C1FBF02F5E0734FF0E5
:10908C00A0414FF0000C41F823C0E368591C0BD0F1
:10909C004FF0A04C01219940CCF8081503F5E07174
:1090AC004FF0030E4CF821E0C0F80835C0F810253D
:1090BC002C2202FB08F2AB18C3F804902369AB50C6
:1090CC00B9F1000F20D04FF48E71247FFFF7B0FE62
:1090DC004FF4A2713068FFF7ABFE32681A4BC2F83E
:1090EC000433130B42F307326101002AC9B21EDBB1
:1090FC001648841884F800130121520903F01F0349
:10910C0001FA03F340F8223033680422C3F8002537
:10911C002C2303FB08530022C3E9062283F82920E1
:10912C005A61012283F82A203846BDE8F883084AA0
:10913C0003F00F03D154E7E70827F5E71127F3E70E
:10914C0070560020B98E02008000020000E100E0A1
:10915C0014ED00E0F8B503680579304C0022C3F833
:10916C0000252C2202FB05425268A2B12C4AC3F8FE
:10917C0008231A0B43F30733002B0CDB02F01F01FF
:10918C005B0901228A402033264941F82320BFF392
:10919C004F8FBFF36F8F0068D0F80C65D0F81415A3
:1091AC00D0F80835D0F810254FF0FF37BE42C0F884
:1091BC00147518BF06F5E076C0F80C75C0F8087584
:1091CC00C0F810751EBF4FF0A0474FF0020C47F8C7
:1091DC0026C04E1C1FBF4FF0A04601F5E0710227C0
:1091EC0046F82170511C1FBF4FF0A04102F5E072F0
:1091FC00022641F822605A1C1FBF03F5E0734FF0A2
:10920C00A042022142F82310FFF78EFD2C2303FB12
:10921C000544002384F82A306360F8BD70560020A2
:10922C008402020000E100E00279044B2C2101FBD6
:10923C0002335869003818BF01207047705600205F
:10924C002DE9F84F064690F8048089469246FFF7C0
:10925C00EBFF044600283CD1204F2C2508FB057B56
:10926C004FF48E71CBF814A0CBF80890CBF82000FB
:10927C008BF828003068FFF7DBFD30680123836032
:10928C005946FFF7DDFDDBF804305D461BBB30684B
:10929C00DBF814402B6A9C4211D83368D3F81C219C
:1092AC00002AFBD00122DA6000202C2303FB087774
:1092BC0000237B61BDE8F88F95F828303BB9D0F8D6
:1092CC001C31002BF8D05946FFF7BAFDE2E70F200E
:1092DC00EBE71120EEE72046ECE700BF70560020CC
:1092EC001FB503788DF800304368019383688DF8BF
:1092FC000830C368054A0393054B684653F8213080
:10930C0052F82110984705B05DF804FB9C560020DC
:10931C00A0560020F0B506460F4B16F804CB43F8C8
:10932C002C200E4B17460C460A6943F82C200FCC08
:10933C0089B06D460FC594E80F00002F85E80F002B
:10934C00074ACDF810C008BF3A4669463046FFF7C9
:10935C004DFE09B0F0BD00BFA05600209C56002069
:10936C00ED9202000388112B13B50C4607D0502B3D
:10937C0008D0102B01D18388238002B010BD4FF68A
:10938C00FF73F9E7C288CB899A42F6D1038A022B84
:10939C00F3D1123000F010F980F001008DF80000CC
:1093AC0002AA12E90300636A02B0BDE81040184734
:1093BC0037B515484FF48041FEF7C6F908B1FEF7F2
:1093CC0085FD124D6B88022B18D91148114C12498E
:1093DC00241AE408240444F003042046FEF7D8FBC6
:1093EC006B88022B0AD90D492046FEF7D1FB6B88FE
:1093FC00022B03D90A492046FEF7CAFB094B0193FD
:10940C00094B00221A70FEE7317F020098320020CF
:10941C00E0A0020020A1020038AA020051AA02001A
:10942C0082AA020020A107008C5800200369C268A0
:10943C0093429CBF80681B18013B981A70472DE91A
:10944C00F843D0E902940546A9EB0408406890451E
:10945C0020440F46144404D900F089FDEC60BDE8AB
:10946C00F8834246A4EB090400F081FD68682246AB
:10947C0007EB0801F0E72DE9F843C5680646894675
:10948C0017464FF000083469B3687068A54228BFCE
:10949C00E418013C621B5C1BBC4228BF3C46944256
:1094AC0028BF144649462844224600F060FDB368A4
:1094BC002544AB4208BF00253F1BA044A144F560E6
:1094CC00E1D14046BDE8F88370B5164B182400FB7B
:1094DC0004451D4404FB00331646DC6A012C0ED0F7
:1094EC00022C18D0E4B92846FFF7A0FF864204D816
:1094FC0032462846FFF7A3FF3446204670BD284667
:10950C00FFF794FF8642344628BF0446224628467D
:10951C00FFF795FFF1E72846BDE87040FFF7ABBFBA
:10952C000024EAE7F858002030B5C8B1F2B10024A5
:10953C00651C8D4206DA1588A54212D805196D787E
:10954C009D420ED1A14211D9005D48B1013880B2C3
:10955C0030B10234A3B210FA84F4A14206DB1380BA
:10956C0030BD055D01352C44A4B2E1E70020F7E7DE
:10957C00F7B500230646ADF80630144612B90020A4
:10958C0003B0F0BD09230DF10602FFF7CDFFBDF8C6
:10959C0006700546002FF2D00028F0D0204600F0CF
:1095AC0042FDA8420246EAD1F119204600F089FC9E
:1095BC00B0FA80F04009E3E7008800F00100704742
:1095CC0090DF7047A5DF7047B5DF7047F0B585B009
:1095DC000023ADF80810ADF80A106A4602A9074638
:1095EC00ADF80C30ADF80E300093ADF80430FFF749
:1095FC00E7FF054690B31B4E73886BB1FFF7F0F88D
:10960C00194C1A4903461A48241AE40824043A4609
:10961C0044F00100FEF7C9FABDF80020BDF8023095
:10962C0052EA03010BD0718849B111480E4C114913
:10963C00241AE408240444F00100FEF7B6FABDF83D
:10964C0004205AB173884BB10948074B0A491B1ABD
:10965C00DB081B0443F00100FEF79EFA284605B018
:10966C00F0BD00BFC432002078A1020008AB02009C
:10967C00E0A0020052AB020091AB0200F7B5858866
:10968C00012D0C461BD80388242B4FEAC50700F08C
:10969C00AA8016D8112B00F08180232B00F0B68005
:1096AC00102B45D03C44A37A4BB1E1882846FFF7F8
:1096BC0089FF002840F0B1804FF48073638103B0C0
:1096CC00F0BD3A2B73D0552BECD1C388CE19172B88
:1096DC00F18838BF17238B4228BF0B4633810023F8
:1096EC00B3722846FFF770FF78B1584B5B8863B1B3
:1096FC00FFF776F8564B5749024657481B1ADB08BA
:10970C001B0443F00100FEF747FAF37A002BC9D192
:10971C00A369002BC6D040F67722ADF80020328921
:10972C00ADF80250ADF80420694620469847B9E7D9
:10973C00C37B0A79CE19012B327313D0022B14D0B0
:10974C00F18833898B4205D22846FFF73BFF70B96D
:10975C000123F372317B737B8B42A3D22846FFF734
:10976C0035FF9FE70B88F380EAE74B88FBE711286E
:10977C0002D10123B372EDE7344B5B88002BE9D0A7
:10978C00FFF72EF8324B3549024633481B1ADB08DB
:10979C001B0443F00100FEF7FFF9DBE7CB19F722BE
:1097AC00DA8017229A6041F61B329A817AE7CE1939
:1097BC004389F288934228BF1346172B8A6938BF16
:1097CC001723338162B1F17A51B140F67721ADF8AC
:1097DC000010ADF80250ADF80430694620469047B1
:1097EC00002373815EE7CB19027A5A738B69002BC5
:1097FC003FF458AF00218DF805104DF67A21ADF8E5
:10980C000010ADF802508DF804208DE7CB19017AC9
:10981C001B7B994228BF1946A0E711283FF44FAF94
:10982C000A4B5B88002B3FF44AAFFEF7D9FF084B7D
:10983C000A49024608481B1ADB081B0443F00100C6
:10984C0003B0BDE8F040FEF7A7B900BFC43200205A
:10985C0078A1020018AC0200E0A00200E7AB020005
:10986C009BDF70479DDF70479EDF7047A1DF70471D
:10987C00A3DF7047AEDF704730B504880246002383
:10988C0098B2844206D9556835F813508D4203F1CD
:10989C000103F5D130BD8B6910B50C461988102920
:1098AC0013D8023189B2FEF750FE606078B1A1691D
:1098BC0000230222FEF78AFEA26960681288E16921
:1098CC000223FEF783FE002010BD0920FCE70420D4
:1098DC00FAE710B50C46C98A10290AD8FEF735FEEE
:1098EC00606040B1E28AA1690023FEF76FFE0020A0
:1098FC0010BD0920FCE70420FAE700000F4B5B8841
:10990C00F7B505460F46164663B10D480D4C00924F
:10991C00241AE40824040B462A780B4944F001006D
:10992C00FEF74DF9AB6833B1E9683A46304603B0FF
:10993C00BDE8F040184703B0F0BD00BFC8320020AE
:10994C00E0A0020080A1020054AC0200F0B58FB080
:10995C000D46012206A90646FEF7C0FE044690B944
:10996C009DF81830052B65D8DFE803F0030F1C2495
:10997C00292EBDF82A20BDF828102846FFF776FFBF
:10998C000446112C40D10FB0F0BD02A90798BDF8C8
:10999C002E200C910023FEF723FE0AA92846FFF780
:1099AC0067FFEDE7BDF828100DF12A022846FFF7F6
:1099BC0057FFE5E70AA92846FFF754FFE0E70AA995
:1099CC002846FFF751FFDBE70DF1060402AB2146F9
:1099DC0007980D9302220023FEF702FEBDF8062025
:1099EC000D9907980C940223FEF7FAFD0AA9284654
:1099FC00BDF80670FFF73EFF04460028C1D1BDF844
:109A0C000630BB4218BF0C249DF81820114B53F89C
:109A1C00223013B10798FEF782FD002206A93046CA
:109A2C00FEF75CFE002CAED02246294606A8FFF7B6
:109A3C0065FFA8E7084B5B88012BE5D90748084B65
:109A4C0008491B1ADB081B0443F00200FEF7A0F8C0
:109A5C00DAE700BFC4AC0200C8320020E0A002006C
:109A6C0080A102009EAC020037B50C4608B301B3CE
:109A7C000588112D15D181882046FFF7FDFE23881E
:109A8C00ADF80600834214D0112D14D163684FF643
:109A9C00FF7223F810200DF10601E068FEF7C2FDFD
:109AAC0007E0A5F130031F2BE5D9A5F150031F2BBF
:109ABC00E1D903B030BDA3681C2202FB0030FFF7D4
:109ACC0045FFF6E7B0DF704766DF704710B5002141
:109ADC0004464088FFF7F8FF034608B9237210BD0F
:109AEC00112801D10123F9E76368BDE8104018473C
:109AFC00F0B5054685B00C46002942D0002840D070
:109B0C000B78DE2B3DD182884B889A4204D10B7A9C
:109B1C0013B10846FFF7DAFF2B88112B33D0512BEA
:109B2C000FD0012B2DD12B7A012B2AD1A988628839
:109B3C00914226D12046237205B0BDE8F040FFF7D4
:109B4C00C5BFAE886388B3421BD1AF79022F18D141
:109B5C00AD7B2B1F022B14D800211022684600F07D
:109B6C002FFA052D18BF4FF4C0736946304618BF45
:109B7C00ADF804308DF80070FFF7A4FF08B16368EE
:109B8C00984705B0F0BD6388AA889A4204BF4FF687
:109B9C00FF736380F5E78ADF70478BDF70478CDFDC
:109BAC00704770B590F8233086B004460D46CBB1A3
:109BBC0090F82C60FFF7F1FF1422002101A800F0AF
:109BCC00FFF9334604F1240204F12E01A81CFFF71F
:109BDC00E6FF05238DF80430029018B1E36B0BB14E
:109BEC0001A8984706B070BD90F82E00C0F3C000D5
:109BFC0070472DE9F04F054687B035F8082B1B2A26
:109C0C0006460C4677D01D2A13D0102A2ED10021DF
:109C1C0001A800F0D5F906238DF80430B388ADF80F
:109C2C000C3004F12E030593E36B0295F3B101A8FC
:109C3C0075E01022002101A800F0C2F904F12E03F6
:109C4C0020460593FFF7D0FF04F1600888B102238A
:109C5C008DF8043001A8E36B02959847414600202B
:109C6C00FFF799FF29462046FFF79BFF07B0BDE899
:109C7C00F08F94F8210094F8229088B394F820A0E7
:109C8C00B6F824B0274604EB4A1A574518D10020E1
:109C9C00034601220295B9F1000F24D09A4226D135
:109CAC0000238DF8043029462046FFF77AFFE36B3A
:109CBC000BB101A8984741460020FFF76CFFD5E790
:109CCC003A46306A5946FFF753FC20370028DCD05F
:109CDC009DF80C3043F001038DF80C300123D8E7CC
:109CEC0003460246D6E710B18DF80490DBE7032358
:109CFC008DF80430DBE71422002101A800F060F994
:109D0C00327A012AB2D1E36B002BAFD004212E346E
:109D1C008DF8041005948DF808200DEB0100984780
:109D2C00A4E70000014B1878704700BF7059002061
:109D3C0007B508496846FEF71FFD019B13B903B030
:109D4C005DF804FBD3E9002090476846FEF71EFD42
:109D5C00F3E700BFF0AC0200FFF7EABF61DF70472A
:109D6C0030B5134DADF5017D4FF4FA740DF10201D0
:109D7C0003A8ADF80240FFF7F1FF70B9294601A81E
:109D8C00FEF7FAFC029B002BF0D003A8D3E90021CC
:109D9C00904701A8FEF7FAFCF4E7052805D00DF56D
:109DAC00017DBDE83040FEF791B80DF5017D30BD69
:109DBC0008AD0200024B1B780BB1FFF7D1BF704707
:109DCC00715900204BDF70471FB50E4C01A8FFF7EF
:109DDC00F9FF70B9214602A8FEF7CEFC039B002BBD
:109DEC00F4D00198D3E90021904702A8FEF7CEFCED
:109DFC00F4E7052804D004B0BDE81040FEF766B8BF
:109E0C0004B010BD20AD02007F2805D8034B185CB0
:109E1C00034B5B5C184070470020704738AD020064
:109E2C00B8AD0200A0F16103192B98BF2038704720
:109E3C00A0F14103192B98BF203070477F2805D81B
:109E4C00034B185C034B5B5C184070470020704759
:109E5C0038AD0200B8AD0200A0F16103192B98BF18
:109E6C0020387047A0F14103192B98BF2030704760
:109E7C007F299ABF017001206FF02E0070475AB1F4
:109E8C000A787F2A0AD800B1026000211960596053
:109E9C00501A18BF01207047002070476FF02E0039
:109EAC007047000008B5034B5B689B681B689847BC
:109EBC0008BD00BF9033002008B50921FFF7F2FF61
:109ECC0008BDA2B310B594460F2A19D902460B4609
:109EDC0040EA010414F0030F02D00CF1FF3C12E035
:109EEC0019461046043204330C68D0F800E0A6453D
:109EFC0006D110461946ACF1040CBCF1040FEFD896
:109F0C00BCF1010C0FD00A46034684441146184696
:109F1C0001330132047891F800E0744503D11846FE
:109F2C0011466345F2D100780B78C01A10BD0020A1
:109F3C007047D2B110B51446012A12D00A46034616
:109F4C00204400F1FF3E1146184613F8014B44B172
:109F5C00013291F800C0A44503D1184611469E4524
:109F6C00F1D100780B78C01A10BD002070478446E0
:109F7C0040EA010313F0030F18D18446202A0BD3B7
:109F8C002DE9F007B1E8F807A0E8F807A2F12002E4
:109F9C00202AF7D2BDE8F007042A07D351F8043B76
:109FAC0040F8043BA2F10402042AF7D2002A05D09F
:109FBC0011F8013B00F8013B013AF9D160467047BA
:109FCC008446002A2DD010F0030F04D000F8011B9A
:109FDC00013A26D0F7E7C9B241EA012141EA014131
:109FEC00202A12D3A2F120022DE9F0030B460C46D5
:109FFC000D460E460F4688468946A0E8FA03203ADD
:10A00C00FBD2BDE8F00320320BD0042A05D340F874
:10A01C00041B043A05D0042AF9D200F8011B013ABA
:10A02C00FBD16046704700F1010110F0030F11D015
:10A03C0010F8012B002A23D010F0030F0AD010F8CF
:10A04C00012B002A1CD010F0030F03D010F8012BA9
:10A05C00002A15D02DE970004FF001324FF08033FB
:10A06C0050F8044BA4EB020525EA04051D4000D171
:10A07C00F6E7A0F1040070BC10F8012B002AFBD10C
:08A08C00A0EB01007047000089
:08A09400ED890200000000004C
:10A09C00FF9B020090580020899602006458002013
:10A0AC00759A020078330020FD9A02008058002037
:08A0BC0071930200A45600207C
:10A0C400AC570020A8570020010000000200000047
:0CA0D40001000000C3AA0200DC320020E2
:10A0E0002EAA02000000030333AA020000000303AB
:10A0F000C1A9020000000000C7A902000000000082
:10A10000CEA9020000000000D2A902000000000059
:10A11000D6A9020000000000DBA902000000000038
:10A1200072A302000000030392A4020000000000DA
:10A13000FBA9020000000003E0A9020000000003E8
:10A1400015AA02000000000380A402000000000322
:10A1500076A3020000000003A1AA02000000000391
:10A16000FCAA020000000303DCAC020000000303B1
:10A17000BBA902000000000047AC0200000003037E
:10A18000B9AC020000000303E5AC020000000303C9
:10A19000FCAC02000000030314AD02000000030346
:10A1A000ACA4020000000000BDAA020000000003F1
:08A1B000B5A40200000000004C
:10A1B80028340020F0340020F83400203034002007
:10A1C800B03200207DA3020018000000D8560020FD
:10A1D800A0570020A8570020E0560020B4320020E5
:08A1E800A8AA02001800000003
:08A1F000898A02000000000052
:10A1F800C19D020000000000D59D02000000000083
:10A2080008A302000000000051A302005C330020F4
:10A2180034A302000000000040A3020064330020C1
:10A228000000000000000000000000000000000026
:10A238000000000000000000000000000000000016
:10A248000000000000000000000000000000000006
:10A2580000000000000000000000000000000000F6
:10A2680000000000000000000000000000000000E6
:10A2780000000000000000000000000000000000D6
:0CA28800000000000000000000000000CA
:10A2940000000000000000000000000000000000BA
:10A2A40000000000000000000000000000000000AA
:10A2B400000000000000000000000000000000009A
:10A2C400000000000000000000000000000000008A
:10A2D400000000000000000000000000000000007A
:10A2E400000000000000000000000000000000006A
:0CA2F4000000000000000000000000005E
:10A300000338FDD870470000C17302002D740200AD
:10A31000BD730200FFFFFFFFFFFFFFFFFFFFFFFF17
:10A32000FFFFFFFF00000000000000000000D6015A
:10A3300006000000657502004D750200FD74020004
:10A34000756172745F6C6F675F6261636B656E6489
:10A35000007274745F6C6F675F6261636B656E64DB
:10A36000004261636B656E647320666C757368652B
:10A3700064006170700062616C6C6F632E6C6F675B
:10A380005F6D656D706F6F6C0000000018550020E8
:10A390007F000000985500201B5B313B33316D007E
:10A3A00025734C6F67732064726F7070656420282A
:10A3B00025642925730D0A001B5B306D0025730091
:10A3C0005B253032643A253032643A253032642ECF
:10A3D000253033642C253033645D20003C25733EEA
:10A3E0002025733A200020253032780020202000DC
:10A3F0007C002563001B5B313B33306D001B5B3100
:10A400003B33326D001B5B313B33336D001B5B31E3
:10A410003B33346D001B5B313B33356D001B5B31CF
:10A420003B33366D001B5B313B33376D0065727219
:10A430006F72007761726E696E6700696E666F0099
:10A440006465627567000000B8A30200F5A302000E
:10A4500098A30200FDA3020005A402000DA40200BF
:10A4600015A402001DA4020025A4020000000000A3
:10A470002DA4020033A402003BA4020040A4020069
:10A4800061746669666F2E6D5F7265715F6669667D
:10A490006F006170705F74696D65720030313233C6
:10A4A0003435363738394142434445467077725F18
:10A4B0006D676D7400736F72746C697374004E52C3
:10A4C000465F53554343455353004E52465F4552F2
:10A4D000524F525F5356435F48414E444C45525F82
:10A4E0004D495353494E47004E52465F4552524FD5
:10A4F000525F534F46544445564943455F4E4F546F
:10A500005F454E41424C4544004E52465F455252D3
:10A510004F525F494E5445524E414C004E52465F99
:10A520004552524F525F4E4F5F4D454D004E524681
:10A530005F4552524F525F4E4F545F464F554E4407
:10A54000004E52465F4552524F525F4E4F545F533A
:10A550005550504F52544544004E52465F4552525A
:10A560004F525F494E56414C49445F504152414D14
:10A57000004E52465F4552524F525F494E56414C33
:10A5800049445F5354415445004E52465F45525230
:10A590004F525F494E56414C49445F4C454E4754DB
:10A5A00048004E52465F4552524F525F494E564107
:10A5B0004C49445F464C414753004E52465F45521A
:10A5C000524F525F494E56414C49445F44415441B9
:10A5D000004E52465F4552524F525F444154415FD4
:10A5E00053495A45004E52465F4552524F525F54AE
:10A5F000494D454F5554004E52465F4552524F52B9
:10A600005F4E554C4C004E52465F4552524F525F82
:10A61000464F5242494444454E004E52465F4552D1
:10A62000524F525F494E56414C49445F4144445257
:10A63000004E52465F4552524F525F4255535900A9
:10A640004E52465F4552524F525F434F4E4E5F430C
:10A650004F554E54004E52465F4552524F525F5234
:10A6600045534F5552434553004E52465F45525253
:10A670004F525F4D4F44554C455F4E4F545F494ECE
:10A68000495449414C495A4544004E52465F45524F
:10A69000524F525F4D555445585F494E49545F469D
:10A6A00041494C4544004E52465F4552524F525F1D
:10A6B0004D555445585F4C4F434B5F4641494C45BF
:10A6C00044004E52465F4552524F525F4D555445DD
:10A6D000585F554E4C4F434B5F4641494C454400F3
:10A6E0004E52465F4552524F525F4D555445585F4A
:10A6F000434F4E445F494E49545F4641494C45449F
:10A70000004E52465F4552524F525F4D4F44554C9A
:10A71000455F414C52454144595F494E4954494176
:10A720004C495A4544004E52465F4552524F525F83
:10A7300053544F524147455F46554C4C004E52468C
:10A740005F4552524F525F4150495F4E4F545F49EF
:10A750004D504C454D454E544544004E52465F4584
:10A7600052524F525F464541545552455F4E4F54E9
:10A770005F454E41424C4544004E52465F45525261
:10A780004F525F494F5F50454E44494E47004E522D
:10A79000465F4552524F525F4452565F5457495F8D
:10A7A0004552525F4F56455252554E004E52465FEB
:10A7B0004552524F525F4452565F5457495F45527B
:10A7C000525F414E41434B004E52465F4552524FFD
:10A7D000525F4452565F5457495F4552525F444E50
:10A7E00041434B004E52465F4552524F525F424CDE
:10A7F000455F495053505F52585F504B545F54521D
:10A80000554E4341544544004E52465F4552524FC7
:10A81000525F424C455F495053505F4348414E4E52
:10A82000454C5F414C52454144595F45584953544A
:10A8300053004E52465F4552524F525F424C455F65
:10A84000495053505F4C494E4B5F444953434F4E20
:10A850004E4543544544004E52465F4552524F5276
:10A860005F424C455F495053505F504545525F52DF
:10A87000454A454354454400556E6B6E6F776E20D4
:10A880006572726F7220636F6465000000000000E3
:10A89000BEA4020001000000CAA4020002000000E1
:10A8A000E8A402000300000009A502000400000063
:10A8B0001CA50200050000002DA5020006000000F6
:10A8C00041A502000700000059A502000800000091
:10A8D00071A502000900000089A502000A0000001D
:10A8E000A2A502000B000000BAA502000C000000A7
:10A8F000D1A502000D000000E5A502000E00000039
:10A90000F7A502000F00000006A6020010000000DC
:10A910001AA602001100000031A602001200000079
:10A9200040A602001300000055A6020080000000AF
:10A9300069A60200810000008AA6020082000000D1
:10A94000A6A6020083000000C2A602008400000048
:10A95000E0A602008500000001A7020086000000BA
:10A9600026A70200900000003DA702009100000011
:10A970005BA702009200000079A70200008200009D
:10A980008EA7020001820000ACA702000282000034
:10A99000C8A7020000840000E4A7020001840000B0
:10A9A00008A802000284000032A80200038400000C
:10A9B00057A8020000000100000001636C6F636B88
:10A9C00000434C4F434B004750494F5445005052B1
:10A9D0005300525443005350494D005541525400C6
:10A9E0006170705F74696D65722E6D5F6273705F08
:10A9F000627574746F6E5F746D72006170705F74F5
:10AA0000696D65722E6D5F6273705F616C657274E3
:10AA10005F746D72006170705F74696D65722E6D28
:10AA20005F6273705F6C6564735F746D7200414D3B
:10AA3000544300414D545300415454204D5455202B
:10AA40006578616D706C6520737461727465642ED5
:10AA500000507265737320627574746F6E203320BA
:10AA60006F6E2074686520626F61726420636F6E20
:10AA70006E656374656420746F207468652050434C
:10AA80002E00507265737320627574746F6E20347B
:10AA9000206F6E206F7468657220626F6172642E21
:10AAA0000062616C6C6F632E6D5F626C655F6761E5
:10AAB00074745F7175657565706F6F6C0071756525
:10AAC00075652E6D5F626C655F676174745F71752B
:10AAD00065756570757267655F7175657565000090
:10AAE00058580020B8570020040000002000000043
:10AAF000010000000000000000000000626C655FC3
:10AB000064625F646973630073645F626C655F674E
:10AB100061705F646174615F6C656E6774685F75B6
:10AB20007064617465282920287265717565737475
:10AB300029206F6E20636F6E6E656374696F6E207F
:10AB4000307825782072657475726E65642025737F
:10AB50002E00546865207265717565737465642094
:10AB600054582F5258207061636B6574206C656E69
:10AB700067746820697320746F6F206C6F6E672034
:10AB800062792025752F2575206F63746574732E87
:10AB9000005468652072657175657374656420631F
:10ABA0006F6D62696E6174696F6E206F66205458B4
:10ABB00020616E64205258207061636B6574206C54
:10ABC000656E6774687320697320746F6F206C6F93
:10ABD0006E67206279202575206D6963726F7365D9
:10ABE000636F6E64732E0073645F626C655F676190
:10ABF0007474635F65786368616E67655F6D7475B3
:10AC00005F72657175657374282920726574757239
:10AC10006E65642025732E0073645F626C655F67E8
:10AC2000617474735F65786368616E67655F6D7486
:10AC3000755F7265706C7928292072657475726E03
:10AC400065642025732E006E72665F626C655F67B7
:10AC500061747400534420474154542070726F63F0
:10AC600065647572652028256429206661696C65B4
:10AC700064206F6E20636F6E6E656374696F6E2003
:10AC800068616E646C65202564207769746820654E
:10AC900072726F723A203078253038582E00556E17
:10ACA000696D706C656D656E7465642047415454C0
:10ACB0002052657175657374006E72665F626C65B3
:10ACC0005F67710000000000DF98020000000000D4
:10ACD0000000000000000000A3980200626C655FA5
:10ACE0007363616E006E72665F73646800000000DB
:10ACF000F8A1020008A20200080000006E72665F60
:10AD00007364685F626C65009CA00200C4A00200CE
:10AD1000080000006E72665F7364685F736F6300A3
:10AD200094A002009CA00200080000004300000064
:10AD3000504F534958000000202020202020202080
:10AD4000206828282828202020202020202020209B
:10AD5000202020202020202048101010101010103B
:10AD60001010101010101010848484848484848443
:10AD70008484101010101010108181818181810154
:10AD800001010101010101010101010101010101B3
:10AD90000101011010101010108282828282820242
:10ADA0000202020202020202020202020202020283
:10ADB00002020210101010200007032004170201E5
:10ADC00008571040800000002CAD020030AE020099
:10ADD00044AF020053756E004D6F6E0054756500F0
:10ADE00057656400546875004672690053617400C9
:10ADF000000000004A616E00466562004D6172000D
:10AE0000417072004D6179004A756E004A756C00A0
:10AE100041756700536570004F6374004E6F760094
:10AE20004465630000000000414D00504D000000EB
:10AE300068AF020064AF020064AF020064AF0200BA
:10AE400064AF020064AF020064AF020064AF0200AE
:10AE500064AF020064AF0200FFFFFFFFFFFFFFFFD0
:10AE6000FFFFFFFFFFFF0000A4AE0200D4AD020011
:10AE7000E0AE0200F4AD020028AE020088AE02008F
:10AE800038AF020094AE0200256D2F25642F25797E
:10AE90000000000025612025622025652025542022
:10AEA0002559000053756E646179004D6F6E6461C1
:10AEB000790054756573646179005765646E6573D4
:10AEC00064617900546875727364617900467269CF
:10AED00064617900536174757264617900000000E7
:10AEE0004A616E7561727900466562727561727948
:10AEF000004D6172636800417072696C004D617948
:10AF0000004A756E65004A756C7900417567757306
:10AF1000740053657074656D626572004F63746F81
:10AF2000626572004E6F76656D626572004465639E
:10AF3000656D62657200000025483A254D3A25533B
:10AF400000000000159E0200319E02003D9E02009E
:10AF5000499E0200659E0200719E02007D9E0200D5
:0CAF60008B9E0200000000002E0000008C
:10AF6C000000000000200040000000000000000075
:10AF7C00FF00000000000000FF0000000010014076
:10AF8C00110004000090D003010000008C3300205D
:10AF9C00E0AA0200C4A00200D4A10200FFFF00003E
:10AFAC00C8AD0200C8AD0200C8AD0200C8AD0200B9
:04AFBC00C8AD02001A
:0400000320007375F1
:00000001FF
