:020000022000DC
:1070000000800020757302005D7302005F73020050
:1070100061730200637302006573020000000000E8
:107020000000000000000000000000006773020084
:1070300069730200000000006B7302006D730200B0
:10704000619502006F73020061980200359D020095
:107050006F7302006F730200E59502006F73020008
:107060006F7302006F7302006F7302004997020092
:107070006F7302006F7302006F7302006F73020080
:107080006F730200418602006F7302006F7302008B
:107090006F7302006F730200C1BF02006F730200C2
:1070A0006F7302006F7302006F7302006F73020050
:1070B0006F7302006F730200000000000000000008
:1070C0006F7302006F7302006F7302006F73020030
:1070D0006F7302006F7302006F7302006F73020020
:1070E0006F7302006F7302006F73020000000000F4
:1070F000000000006F730200000000006F730200C8
:10710000000000000000000000000000000000007F
:10711000000000000000000000000000000000006F
:10712000000000000000000000000000000000005F
:10713000000000000000000000000000000000004F
:10714000000000000000000000000000000000003F
:10715000000000000000000000000000000000002F
:10716000000000000000000000000000000000001F
:10717000000000000000000000000000000000000F
:1071800000000000000000000000000000000000FF
:1071900000000000000000000000000000000000EF
:1071A00000000000000000000000000000000000DF
:1071B00000000000000000000000000000000000CF
:1071C00000000000000000000000000000000000BF
:1071D00000000000000000000000000000000000AF
:1071E000000000000000000000000000000000009F
:1071F000000000000000000000000000000000008F
:10720000354936480A1A02D0072291438D4634493F
:1072100034480A1A06D00722914381F309880222D2
:1072200082F3148830483149314A00F044F831483B
:107230003149324A00F03FF831483249324A00F0D1
:107240003AF832483249334A00F035F83248334987
:10725000334A00F030F833483349344A00F02BF811
:1072600033483449344A00F026F83448344900227F
:1072700000F02CF833483449002200F027F8334856
:107280003349091A082902DB002202604160314AB1
:1072900090471F481F49884205D00268043003B454
:1072A000904703BCF7E700208646EC46002000210B
:1072B000294A9047FEE7884207D0521A05D0037842
:1072C00001300B700131013AF9D17047884202D088
:1072D00002700130FAE7704700800020007800203B
:1072E0000080002000800020A4E002006033002025
:1072F000F0330020BC730200BC73020038C60200E9
:10730000A4E002006033002060330020D4C80200F3
:10731000D4C80200D4C80200D4C80200D4C80200F5
:10732000D4C80200D4C80200D4C80200A4E00200FD
:1073300034E10200F0330020F0330020F03300206D
:10734000145D0020145D0020145D0020145D0020F9
:10735000146500208B730200BDA70200FEE7FEE764
:10736000FEE7FEE7FEE7FEE7FEE7FEE7FEE7FEE7F5
:1073700000F002B8FFF7FCBF0B484FF0070188434D
:1073800085460A488047FFF73BBF094809490A4A32
:10739000884207D0521A05D0037801300B700131B2
:1073A000013AF9D170470000008000205591020099
:0C73B000ECC7020078320020603300209F
:1073BC007047000007B5044B0093044A402300F0CB
:1073CC0032F803B05DF804FBDD730200F1330020EA
:1073DC002DE9F84388461446B2B10F4B0F4E0325E6
:1073EC00002743F00109224608EB0701002003F0B7
:1073FC0077FB0744241A48B933782BB14FF47A4001
:10740C00C847013D02D13570BDE8F88301233370C4
:10741C00002CE8D1F8E700BFE0C80200F0330020F0
:10742C00704703F08DBBF0B595B01D461646084667
:10743C000C4601F010FD1A9B0D93CDE90865002553
:10744C002B460C2205A920460A958DF82C500C953C
:10745C0001F01DFD079B0293069B03939DF81430CE
:10746C008DF8115003F00302012A1DD1BDF8142030
:10747C00059DC3F3C203C2F383168DF81030B2001E
:10748C000C230EA9204601F002FDC5F3952508AB8F
:10749C000093324602AB0EA9284600F0C5FC2046EC
:1074AC0001F0DDFC15B0F0BD022AF8D1BDF8165084
:1074BC00C3F3C203C5F389158DF810300C27082DC2
:1074CC002E4628BF08263B4632460EA9204601F020
:1074DC00DEFCAD1B08AB02AA31460EA8374400F007
:1074EC0007FD002DEBD1DAE7014B01221A70704732
:1074FC00723400207047000070B50E4D06460FCD5B
:10750C0088B06C460FC495E80F00002E84E80F007D
:10751C00094A0A484FF0060308BF00226946009347
:10752C0001F0B6FF08B100F05BFD054B1E7008B012
:10753C0070BD00BFF4C80200F57402006033002077
:10754C003134002008B5044802F0D8FABDE80840F0
:10755C000020FFF7D1BF00BF6433002007B5044BF8
:10756C000093044A4023FFF75EFF03B05DF804FB71
:10757C00857502003234002010B5084C08480023F1
:10758C00D2B2237002F030FB08B100F029FD054B9C
:10759C001A7812B12378002BFBD010BD7234002066
:1075AC0064330020313400200120FFF7A5BF000018
:1075BC0038B50A4DFFF735FF0421284600F058FB7B
:1075CC00074B01245C71FFF7EFFF042105F110005C
:1075DC0000F04EFB034B5C7138BD00BFCCC7020002
:1075EC006C330020743300200378024613F004003F
:1075FC0006D003F00300012803D0022809D0012093
:10760C0070470B6812880333C2F3831213440B6068
:10761C0070470B685288033303EB92130B60EEE751
:10762C002DE9F04FDFF820A187B00F460023044668
:10763C00C61C0DF1070015468DF8073000F092FEC0
:10764C00DAF804203A60DAF80830404F03F50063AA
:10765C009B1AA7F10409A7F10808B3421BD3002019
:10766C00002D6DD004F00F039B0143F0050363F371
:10767C000F00DAF80430C3F30A02033233444AF839
:10768C0022009DF80700CAF8043000F08FFE01209C
:10769C0007B0BDE8F08F0121384601F046F84846A6
:1076AC0001F05BF8404601F058F8DAF80800029057
:1076BC00C0F30A0003300AEB800002A9FFF794FF25
:1076CC00029B10B1C3F30A00F4E7C3F30A020AEBFE
:1076DC008202591CD2680392C1F30A010AEB8101A0
:1076EC0002F003020333012AC96802931ED0022A56
:1076FC0024D1BDF80E20C2F3891203324FEA114B8C
:10770C0003EB92030293404601F02AF810B1029B5E
:10771C00CAF808305946384601F007F8DAF808304C
:10772C00DAF8042003F500639B1A96E7BDF80C20E9
:10773C00C2F383124FEA114B1344E3E78346E2E7AB
:10774C00A40544F0060094E784350020A0550020E1
:10775C0030B50446084681B1094B0A4A0A49D21A87
:10776C00D20800239A4201D1052006E031F82350BB
:10777C002068854202D12360002030BD0133F1E73F
:10778C008CC6020074C70200783200202DE9F84F35
:10779C0005460846002D42D0224C0023237004F5E8
:1077AC00005400F005FC2048E56001F004FB814624
:1077BC0090BB1E48DFF878801E4CDFF87CA001F0EF
:1077CC0040FCA4EB0804E4084D46A54208D1002374
:1077DC001A4A19469C421AD022F823100133F9E7B1
:1077EC0000273E4608EBC50BB54209D058F83610B9
:1077FC00DBF80000142204F04CFE0028C8BF01374F
:10780C000136B442F0D12AF825700135DDE70C4879
:10781C00A200002104F084FE4846BDE8F88F4FF02A
:10782C000709F9E78435002074C702006CC902000F
:10783C008CC6020074C70200783200207A32002015
:10784C00EC32002007B5019001A8FFF781FF30B999
:10785C00019A044B53F8320003B05DF804FB00208E
:10786C00FAE700BF8CC60200094B013903EBC000DC
:10787C00032909D8DFE801F00A0204060420704746
:10788C00007970474079704700207047022070479C
:10789C008CC6020030B5124C00EB400054F821505D
:1078AC0002FA00F3072202FA00F06B400D4A034083
:1078BC006B40C3F3821044F8213002EB8101C3F317
:1078CC00C202824238BF0246C3F34220824203F016
:1078DC00070338BF0246934238BF13464B8030BD76
:1078EC00EC3200207832002070470000034BD3E9C3
:1078FC000130C31A58425841704700BF84350020EC
:10790C002DE9F04786B0FFF7F1FF0646002840F05E
:10791C002381924C04F50055A861BFF34F8FA368E7
:10792C000293C3F30A03033304EB830002A9FFF7AA
:10793C005BFE029B48B1AA693AB962689A42F0D8D8
:10794C00A260304606B0BDE8F087591CC1F30A01AD
:10795C0004EB8101C3F30A02C968049104EB8202AF
:10796C00991CD2680392C1F30A01033304EB810121
:10797C00029302F00303C9680591022B5AD1BDF89A
:10798C000E3077489DF80C60C3F38919B9F1500F8C
:10799C00C84628BF4FF0500808F10C0168F38F134C
:1079AC00C1F30901ADF80E3001F01DFAC6F3C206A1
:1079BC000746002800F0B88001F04DFA0C220DEBC0
:1079CC0002010023384601F058FA0299CB43C3F365
:1079DC000A030133C1F30A010331B8EB830F4FEAF9
:1079EC00830204EB810122D95FFA82FA0C23A8EB03
:1079FC000A08384601F041FA5FFA88F80AF10C03DC
:107A0C00584903F0FC034246384601F036FA029B13
:107A1C0009F1030903EB9903B0460293AB69002B00
:107A2C0047D12E69DFF840A14FF0070968E00C231D
:107A3C004246E9E7012B77D1BDF80C604848C6F304
:107A4C008311062928BF062161F38916033101F041
:107A5C000F018900ADF80C6001F0C5F9C6F3C20640
:107A6C000746002860D001F0F6F90C2200230DEB3C
:107A7C000201384601F001FA4FF00008BDF80C2065
:107A8C00C2F383124FEA8803904503F10C0301D330
:107A9C00B046C3E702994A1CC1F30A0103310292B2
:107AAC0004EB81010422384601F0E7F908F10108E2
:107ABC00E4E7384601F0D3F9FFF718FF80F0010630
:107ACC00F6B23EE7F3685A79C2B11B79BDF81010D3
:107ADC0003EB43025AF8211009FA02F3B8F1050F2F
:107AEC0003EA010323FA02F308BF4FF003084345EE
:107AFC0004D3336839461B6830469847F3681E68D0
:107B0C00002EDFD1384601F0AAF90DF107008DF8EF
:107B1C00076000F027FCAB690BB9029BA3609DF8D2
:107B2C00070000F043FCC7E72C6974B90F4B5B8866
:107B3C00012BC1D90E4B0F480F49C01AC0080004C5
:107B4C0040F0020000F070F8B6E7236820469B680E
:107B5C009847E3681C68E8E70026F2E684350020C5
:107B6C0074C7020090350020EC32002098320020BF
:107B7C008CC60200CCC6020041C902002DE9F347B5
:107B8C0004460E46924601A9012218469946FFF773
:107B9C0047FD224F68B3019D4FF00008EA1CC84511
:107BAC0008EB020130D100211D4800F09BFD80F351
:107BBC0010006B1CC3F30A0307EB8303000440EAB9
:107BCC001440D860174BE400DB68984704F0380485
:107BDC00AB1CC3F30A03C5F30A0544F0010407EB1D
:107BEC008303033544EA881444EA8624D86047F8B2
:107BFC0025403B781BB1FFF783FE0028FBD1FFF734
:107C0C0073FE02B0BDE8F087C1F30A0107EB8101F6
:107C1C005AF82830CB6008F10108C0E78435002001
:107C2C00A05500208455002000231A46FFF7A6BF5C
:107C3C0007B50123019201AAFFF7A0FF03B05DF87D
:107C4C0004FB07B5CDE9002302236A46FFF796FF34
:107C5C0003B05DF804FB1FB5CDE90123069B03932C
:107C6C0001AA0323FFF78AFF05B05DF804FB0000AF
:107C7C002DE9F84388461A490B69054600241A4633
:107C8C0082B9EA6814719BB90D611360154B164EDD
:107C9C00F61AF608002703F10709B7420DD1204662
:107CAC00BDE8F883D2681079A04212D01268E7E7D9
:107CBC00DB68196811601D60E8E719F83720EB687C
:107CCC0042453946187928BF4246FFF7E3FD013794
:107CDC00E3E701340A2CD2D14FF0FF34DFE700BFC9
:107CEC00845500208CC6020074C7020038B5084BBE
:107CFC0003F50052012514691D7004B938BDE36801
:107D0C005D71236820465B689847E3681C68F4E75C
:107D1C0084350020F0B5C38885B005460E4633B1D6
:107D2C00284A00922849294A304600F038FE297A20
:107D3C00052945D06B7A4BB1A888FFF795FD244BEC
:107D4C00244953F82020304600F029FE224B2C68A1
:107D5C001B68B4FBF3F4214B1868B4FBF0F34FF43D
:107D6C007A7E00FB13444FF461610EFB04F4B3FB09
:107D7C00F1F23C2701FB1231B4FBF0FCB1FBF7F341
:107D8C0000FB1C4407FB13110EFB04F40091B4FB25
:107D9C00F0F41349CDE901C4304600F000FE2A7A14
:107DAC00104BA88853F822400021FFF74BFD0E49D9
:107DBC0003462246304605B0BDE8F04000F0EFBD6A
:107DCC0005B0F0BD98C9020080C9020078C9020054
:107DDC0028CA02009DC90200405600203C560020D3
:107DEC00A0C902004CCA0200BCC9020010B5037A3B
:107DFC00052B0C460FD0437A23B1084A084920467C
:107E0C0000F0CDFD0749204600F0C9FD2046BDE835
:107E1C00104000F0B9BD002AF8D0F3E798C9020071
:107E2C009DC9020095C902002DE9F04385B01F469B
:107E3C000C9D002395F80C902B7306460C4690462F
:107E4C0029463846FFF766FFB8F1060F09D8DFE878
:107E5C0008F00412181F283340003146284600F061
:107E6C009EFD002229463846FFF7C0FF85F80C908E
:107E7C0005B0BDE8F08322683146284600F08FFD3E
:107E8C00EFE7D4E900233146284600F088FDE8E707
:107E9C00A36800933146D4E90023284600F07FFD07
:107EAC00DFE7E3680193A36800933146D4E900232C
:107EBC00284600F074FDD4E723690293E36801932C
:107ECC00A36800933146D4E90023284600F067FDEF
:107EDC00C7E76369039323690293E3680193A3687B
:107EEC0000933146D4E90023284600F058FDB8E74A
:107EFC0008292DE9F74F80460E4617461C463DD8FB
:107F0C0000251B7B2573214610460193FFF702FFCA
:107F1C00DFF888A0DFF888B0AE4232D918F8052017
:107F2C005946204600F03BFD0135082DF4D11D4982
:107F3C00DFF874A0DFF874B0204600F030FD4FF08D
:107F4C0000094E4524D918F809507E2D1ED8284614
:107F5C0004F062FA002814BF2A462E225946204605
:107F6C0000F01DFD09F10109B9F1080FE9D1012259
:107F7C0021463846FFF73AFF019B237303B0BDE857
:107F8C00F08F5146204600F00AFDCDE72E22E5E7A2
:107F9C005146204600F003FDE4E700BFCCC90200C7
:107FAC00C6C90200D0C90200CEC90200D2C9020063
:107FBC00084A10B50123084C13600021A04204D8D4
:107FCC0001B11360054B186010BD40085B00012126
:107FDC00F4E700BF4056002040420F003C56002002
:107FEC001FB50021039001AA44F20100CDE9011153
:107FFC0000F004F805B05DF804FB000008B572B69B
:10800C00FFF774FEFFF77CFC0028FBD1084BD3F87C
:10801C00F020D20700D500BEBFF34F8FD968054AB8
:10802C0001F4E0610A43DA60BFF34F8F00BFFDE754
:10803C0000ED00E00400FA0510B5D0E90243D1E9E7
:10804C000202A04272EB03032CBF0120002010BDE2
:10805C0008B50A4800F0E9FA094AD2E90031C0181B
:10806C00084BD3E9002341F10001904271EB03036B
:10807C0003D210F1807041F1000108BD9033002053
:10808C0048560020B0560020294B73B51E78044684
:10809C001EB90026304602B070BD0028F9D0FFF79B
:1080AC00D7FFD4E902239042994139D300230DF133
:1080BC0007008DF8073000F055F923692BB94FF004
:1080CC00FF324FF0FF33C4E902239DF8070000F0A4
:1080DC006DF9D4E90530984700250DF107008DF8AE
:1080EC00075000F03FF92369C3B1D4E90212B2F191
:1080FC00FF3F08BFB1F1FF3F05D05B1842F1000212
:10810C00C4E9023235469DF8070000F04FF9002D06
:10811C00BFD00848214600F0B3FFBBE71D46F2E78D
:10812C00B3F1FF3F08BFB2F1FF3FB2D0F1E700BFA0
:10813C0050560020B0CA020013B5114B11491868F3
:10814C00019008231048582200F07EFA044698B992
:10815C000E4A0F4801A900F04BF9044660B90C48CF
:10816C00012100F045FA01230A4A0948194600F09A
:10817C00A7F9094B01221A70204602B010BD00BFAE
:10818C00ACCA0200545600207C330020B58102009A
:10819C0090330020FFFF7F0050560020014800F074
:1081AC0044BA00BF903300202DE9F743064600F097
:1081BC0027FA40B1634AD2E9003113F1807341F1DF
:1081CC000001C2E900310021304600F028FA38B134
:1081DC005D4C236823B12068FFF756FF0023236012
:1081EC000121304600F01BFA20B1FFF731FF574B4D
:1081FC00C3E900015648544F01A900F038FA4FF07A
:10820C00FF344FF0FF35A0B9DFF848814E4D4046A2
:10821C0000F04CFF002800F08680D0E90223B3F177
:10822C00FF3F08BFB2F1FF3F33D1404600F038FFAB
:10823C00EDE70378012B21D0022B09D1DFF8148153
:10824C00404600F02DFF002877D0C0E90245F7E743
:10825C005BB94168D1E90223B3F1FF3F08BFB2F12A
:10826C00FF3F02D03B4800F00BFF01A9384800F05B
:10827C0029FA01A9364800F0FAF9C4E741683B68CD
:10828C00994202D100233B60EFE7324800F011FF26
:10829C00EBE7296891B12968D1E9020182428B414F
:1082AC002FD22B68D3E90223B3F1FF3F08BFB2F101
:1082BC00FF3F03D02968404600F0E2FE404600F044
:1082CC00EFFED0E902490746FFF7C2FE201A69EB20
:1082DC000109012879F1000318DBB0F5350F13D330
:1082EC00FFF75CFF1C4A02441C484FF49603002124
:1082FC0000F006F990B92B6813B9304600F0D8F8A5
:10830C002F6003B0BDE8F0832246EDE7134800214F
:10831C0000F07BF93846FFF7B7FE01E00D28F9D0E5
:10832C0000232B6073E7084B1B68002BE9D1304608
:10833C0003B0BDE8F04300F0BFB8094B01221A703E
:10834C0093E700BF48560020B8560020B0560020D6
:10835C007C330020B0CA0200FFFFB4009033002031
:10836C005056002070B5EFF3108672B60C4A946824
:10837C0001239CB993600B4B0B4DD3F88010294013
:10838C001160C3F88050D3F8841051604FF0FF3265
:10839C00C3F88420047006B962B670BD0370FAE7A6
:1083AC00BC56002000E100E0FC06FFBD084B9A68BB
:1083BC0010B55AB150B9EFF3108172B6054A1C686A
:1083CC0014605C685460986001B962B610BD00BF5F
:1083DC00BC56002000E100E00346405882B028B1B2
:1083EC0000225A505B580193019B012002B0704748
:1083FC00F8B5264C4379264D44F8232005EBC303EE
:10840C00244E1B7973B17388012B09D92248234B55
:10841C002349C01AC008000440F00200FFF704FC16
:10842C000820F8BD03680A88C3F8082590F90440B1
:10843C008B7802795B01002CDBB221DB19490F1917
:10844C0087F800330123640902F01F0203FA02F2D9
:10845C0041F82420437905EBC30245F833007388B7
:10846C000121022B117109D90B480C4B0E49C01A72
:10847C00C008000440F00300FFF7D6FB0020D0E753
:10848C000A4902F00F028B54E4E700BFD0560020DB
:10849C00C8560020A0320020DCC602008CC60200A8
:1084AC00BCCA020000E100E0DECA020014ED00E0EC
:1084BC00036801221A607047036801225A607047F2
:1084CC0073B501F15005AD000068ADB24FF48034C6
:1084DC008C400026C0F80843C0F84843465101F5CB
:1084EC00A8714559019522F07F42019D40F8212049
:1084FC00C0F844430BB1C0F8044302B070BD000097
:10850C002DE9F74F0D4622F07F4402684FF4803777
:10851C0005F150068F408046B60002EB8500C2F88C
:10852C004873B6B2C2F80873D2F8041599464FF0E6
:10853C00000BD0F84035C0F8401542F806B05B1A75
:10854C009259009223F07F43012B009A4FEA850A3F
:10855C000CD1264B4FF4806043F001039847D8F8B8
:10856C00003043F806B09B590193019BD8F80010DA
:10857C00D1F80465C1F84473A31B23F07F43012B8E
:10858C001CD11A4B05F5A875013443F0010341F8D1
:10859C0025404FF480609847D8F80030D3F8043564
:1085AC009E4209D1D8F800300020C3F84473C3F8B8
:1085BC00047303B0BDE8F08F0D20FAE78A44C9F1CB
:1085CC00FF13CAF84045D1F80405221A013A22F0EB
:1085DC007F4203F57F439342EED3002AE2D101346C
:1085EC00CAF84045D1F804359842DAE7F0CA0200DF
:1085FC0003680222C3F8442309B1C3F8042370476B
:10860C0000684FF48271FFF7E7BE4FF4803303FA32
:10861C0001F10368C3F84813C3F8081370475031CD
:10862C008900006889B2FFF7D7BE0368D3F8040548
:10863C0070470000024B034A1B681068184700BFC4
:10864C00D0560020C856002030B5054659B1B2FBB3
:10865C00F3F403FB1424A0B238B9C5E90010A860E8
:10866C00AA81EB8130BD0E20FCE70920FAE737B573
:10867C0050E8023F1FFAA3F5C488A54202BFBFF31E
:10868C002F8F00220DE0C48925448489A54228BF80
:10869C002D1BC3EA054540E80254002CE8D14FF0ED
:1086AC0001028DF803200193019A0A609DF80310D2
:1086BC0001F0FF0321B1006800EB124003B030BDA4
:1086CC001846FBE70A884B889A4209D150E8022FDA
:1086DC00C2EA224240E80223002BF7D10120704766
:1086EC000020704710B5034653E8000F0A4643E8D4
:1086FC00002494F0000FF7D110BD10B5034653E8D9
:10870C00002F42EA010043E8000494F0000FF6D178
:10871C0010BD10B5034653E8000F00EA010243E810
:10872C00002494F0000FF6D110BD10B5034653E8A9
:10873C00002F02EB010043E8000494F0000FF6D187
:10874C0010BD10B5034653E8002FA2EB010043E81F
:10875C00000494F0000FF6D110BD0121FFF7CDBF3E
:10876C000021FFF7D6BF000030B5F8B1D0E90143C6
:10877C0082691B1B5203DBB206D5C268818B0C4D80
:10878C0001FB03218A4209D302681460013BDBB26E
:10879C00FF2B026805D10020107130BD42F8045B3C
:1087AC00F0E711684C1C14600B70EFE70E20F4E737
:1087BC00ADBAADBA2DE9F743064600240DF107001A
:1087CC008DF80740FFF7CEFD326873681168994247
:1087DC000ED9481E106011F8013CF468B18B01FBF6
:1087EC000344B36811791B1ADBB2994238BF137179
:1087FC009DF80700FFF7DAFDC4B1B369B68BDFB2A1
:10880C00C3F307255B03A046264404EB870704D576
:10881C00DFF84090464543460CD80F4BA74212D880
:10882C000E4AA6EB85039E4210D83C46204603B068
:10883C00BDE8F0831B684B4508F10408EAD0002022
:10884C00FFF7CEFBE6E744F8043BE7E743F8042BDD
:10885C00E9E700BFADBAADBA0DF0ADBAFECAADBA1C
:10886C002DE9F3478569878BDFF810A1C5F307263F
:10887C00EDB2A1EB8505044689462F44A846C145B7
:10888C00434632D8DFF8F880A7EB8606B74233466A
:10889C0034D8A36958033FD4A369D9033FD4002625
:1088AC000DF107008DF80760FFF75CFDA369DA0393
:1088BC0007D523681A68A3689A4202D33046FFF79B
:1088CC008FFBA3699B0346D423681A68511C19605B
:1088DC00E368EB1AA58BB3FBF5F313709DF8070057
:1088EC00FFF764FD02B0BDE8F0871B68534508F143
:1088FC000408C4D00020FFF773FBC0E71B68434596
:10890C0006F10406C2D00020FFF76AFBBEE743F86D
:10891C00042B9F42FBD8BFE71A4A2B46F9E7E268C3
:10892C00AA4208D8D4E901135B1AA18BDBB201FB74
:10893C0003239D4202D30020FFF752FBE368A28B76
:10894C00EB1AB3FBF2F102FB1133002BA7D0002082
:10895C00FFF746FBA3E766682268A08B1268E36802
:10896C00B2423146B0D90A7800FB02339D4206F17F
:10897C000106F1D10020FFF733FBEDE70DF0ADBAA6
:10898C00FECAADBAADBAADBA826810B504462AB10A
:10899C0043690168006998470023A36010BD0EB4B9
:1089AC0003B5039921B104AB01AA019300F076F849
:1089BC0002B05DF804EB03B070470A2938B50446E1
:1089CC000D4602D10D21FFF7F8FFA3682268591C50
:1089DC00A160D554D4E901329A4204D32046BDE8B3
:1089EC003840FFF7D1BF38BD2DE9F84F9846DDE987
:1089FC000A43154682460F460A464FF00109AA4221
:108A0C000FD2C14538BFC14613F0010B01D16CB96F
:108A1C0000240126B8F1010F1BD908F1FF386E4371
:108A2C00F8E709F10109B2FBF5F2E8E79B070ED56F
:108A3C00B8F1000F0CBF30262026A145E9D2013C2D
:108A4C0031465046FFF7B9FF002CF6D1E0E720265F
:108A5C00F3E7B7FBF6F39D42E1D9DFF83C80B7FBB7
:108A6C00F6F3504618F8031006FB1377FFF7A5FF33
:108A7C003346AB42B6FBF5F6F1D2BBF1000F02D098
:108A8C000CB1A14501D3BDE8F88F20215046013C23
:108A9C00FFF793FFF4E700BFF6CA02002DE9F74F8A
:108AAC00054617468846002900F03E8118F8011B40
:108ABC0049B92B7B002B00F03781284603B0BDE869
:108ACC00F04FFFF761BF252940F0B780002698F8DA
:108ADC0000302D2B424608F1010823D0302B24D036
:108AEC002B2B25D000242A2B02F1010123D13B682A
:108AFC001A1D1B683A601C440A4613782E2B26D18B
:108B0C0001324FF0000A104610F8011BA1F1300C95
:108B1C00BCF1090F1DD80A2303FB0A13A3F1300A79
:108B2C000246F0E746F00106D1E746F00206CEE732
:108B3C0046F00406CBE711F8013CA3F130000928FC
:108B4C00DBD80A2202FB0434303C0A46CBE74FF058
:108B5C00000A12F8011B01F0FB0068289046F8D0BF
:108B6C00782909D86F290CD8632962D022D82529F5
:108B7C0063D0582900F0888098F80030002B95D1EC
:108B8C0097E770390829F7D801A353F821F000BFF3
:108B9C000F8D0200858B0200858B0200A58C0200D4
:108BAC00858B0200838C0200858B0200858B020072
:108BBC00958C0200642901D06929DDD13A68D2F87C
:108BCC000090111D89EAE9723960A2EBE9724FF04D
:108BDC00010B092A35DCD34538BFD3462CB1B9F18A
:108BEC00000F01DB720700D5013CB30702D5BAF1C7
:108BFC00000F03D0F00701D44CBB0024B9F1000FD7
:108C0C002DDAC9F100092D212846FFF7D6FE06F012
:108C1C000302022A04D1BAF1000F01D11CBB0024BB
:108C2C00CDE9004653460A2249462846FFF7DCFEAA
:108C3C00A2E73B681A1D19783A602846FFF7BDFE7B
:108C4C009AE70A230BF1010BB2FBF3F2C1E7A34540
:108C5C00D4D220212846013CFFF7AFFECCE77107A8
:108C6C00D5D52B21D0E7A345DAD230212846013CBB
:108C7C00FFF7A3FED2E73968CDE900460A1D3A603A
:108C8C0053460A220968D0E739680A1D3A60CDE9D3
:108C9C00004653461022F5E73B681A1D3A6016F061
:108CAC000106D3F8009024D1B9F1000F03D0484647
:108CBC0003F08BFC0646B4421DD809F1FF3919F8B4
:108CCC00011F00293FF458AF2846FFF776FEF6E760
:108CDC0028460136FFF771FE19F806100029F7D166
:108CEC00A642BFF449AF20212846013CFFF765FEA0
:108CFC00F6E70026F0E720212846013CFFF75DFE51
:108D0C00D9E73B681A1D3A60302128461C68FFF7EA
:108D1C0054FE78212846FFF750FE00220823CDE9A7
:108D2C0000322146102280E703B0BDE8F08F00BF6F
:108D3C002DE9F84FB0F806A04579D2F800B09DF8AF
:108D4C0028900AFB05F5043D88460BEB0301A9426C
:108D5C0003F1040488BFA5EB030BB4FBFAF607463A
:108D6C000AFB1644C2F800B04EB9AAEB04055D45E7
:108D7C0028BF5D46BBF1000F04D1BDE8F88F3F68FA
:108D8C00013EF1E7043408EB06003C442A46B9F1F5
:108D9C00000F0DD02146ABEB050B03F098FBDA4529
:108DAC002E443F6855464FF0000428BF5D46E1E76E
:108DBC0001462046EFE7FFF7D7BCF8B546790146E8
:108DCC00721E0546002393422D6803D30024A6424D
:108DDC0002D8F8BD0133F6E70F682846FFF740FDCF
:108DEC0001343946F3E72DE9F8438369868BC3F3E5
:108DFC000722013E52FA83F326F00306A6EB830604
:108E0C00CD1C0746FFF7D6FC35440446B5FBF6F5FA
:108E1C00F0B14FF48073EDB28380C680013D0760E2
:108E2C0081464FF00008A84512D23846FFF7C2FC25
:108E3C00064648B163790133637108F10108C9F83A
:108E4C00000007608146EEE72046FFF7B6FF344688
:108E5C002046BDE8F88301210430FFF766BC10B54D
:108E6C00012104460430FFF76CFCC0B220B9204647
:108E7C00BDE81040FFF7A1BF10BD1FB50392002243
:108E8C00009203AAFFF754FF05B05DF804FB1FB571
:108E9C0003920122009203AAFFF74AFF05B05DF886
:108EAC0004FB0000064B10B500241C70054B1C6025
:108EBC00BFF35F8F0449054800F0CCF8204610BD85
:108ECC00DC560020E056002010CB0200D4560020C7
:108EDC00026813685268934291BFD01A80680130BF
:108EEC00801888BFC01A7047036881681A685B686D
:108EFC008B4234BF01330023D31A58425841704778
:108F0C0073B5002304460DF107000D468DF80730AC
:108F1C00FFF728FA2046FFF7E7FF10B1237C002B60
:108F2C003BD12368A1685E685A688A4234BF01321B
:108F3C0000225A6028B11A6891428CBF013200227B
:108F4C001A60E2686368511E072920D8DFE801F037
:108F5C0004101F141F1F1F182A789A552046FFF75C
:108F6C00B7FF23689A68824200D29860002415E00B
:108F7C002A8823F81620F1E72A6843F82620EDE723
:108F8C00D5E9000103EBC603C3E90001E6E7294676
:108F9C0002FB063003F09BFAE0E704249DF807007F
:108FAC00FFF704FA204602B070BD036818685B68CE
:108FBC00C31A58425841704773B5002305460DF14A
:108FCC0007000C4616468DF80730FFF7CBF92846FC
:108FDC00FFF7EBFF002832D12B6819682EB91A68FD
:108FEC00A868824238BF561C1E60EA686B68501E27
:108FFC0007281ED8DFE800F0040E1D121D1D1D16DB
:10900C005B5C237000249DF80700FFF7CFF9204626
:10901C0002B070BD33F811302380F3E753F82130E0
:10902C002360EFE703EBC103D3E90023C4E900237A
:10903C00E8E701FB0231204603F049FAE2E7052498
:10904C00E1E7836800225A60C3E904229A60DA607F
:10905C001A6070470B684A684360934208BF00234C
:10906C00016008BF43607047436843B10268916870
:10907C0052680B449342436004BF00234360704723
:10908C0070B5446806460D46206818B1B368294689
:10909C00984718B923682B60256070BD2468F3E7E6
:1090AC004368186808B102681A607047436818680A
:1090BC0070474368186800B97047884203D102684A
:1090CC001A600120704703460068F4E710B50D499B
:1090DC00A1F59472914201D800200FE08C1AE30F95
:1090EC0003EBE4035B1002EBC30452F8333083420E
:1090FC0005D802D204F10802ECE7606810BD2146E5
:10910C00E8E700BF1CD0020008B5FFF7DFFF024BF9
:10911C00002808BF184608BDDFCE02004FF0805370
:10912C00D3F830010D2804D0A0F110035842584157
:10913C007047012070470000024AD2F80034002B1F
:10914C00FBD0704700E0014010B5FFF7E7FF40B1DE
:10915C004FF080430022C3F80C21C3F81021C3F850
:10916C003825FFF7DBFF002846D04FF080524E4BDE
:10917C00D2F80414C3F82015D2F80814C3F8241537
:10918C00D2F80C14C3F82815D2F81014C3F82C1507
:10919C00D2F81414C3F83015D2F81814C3F83415D7
:1091AC00D2F81C14C3F84015D2F82014C3F8441597
:1091BC00D2F82414C3F84815D2F82814C3F84C1567
:1091CC00D2F82C14C3F85015D2F83014C3F8541537
:1091DC00D2F83414C3F86015D2F83814C3F86415F7
:1091EC00D2F83C14C3F86815D2F84014C3F86C15C7
:1091FC00D2F84424C3F87025FFF790FF48B14FF024
:10920C008043D3F80024D20744BF6FF00102C3F8A7
:10921C0000244FF08053D3E94C230D2A39D1022B73
:10922C0002D8224AD35C3BB14FF01023D3F808226A
:10923C004FF08043C3F858254FF01023D3F8002289
:10924C00002A03DBD3F80432002B28DA1849012357
:10925C004FF01020C1F804351224FFF76DFFC0F851
:10926C000042FFF769FFC0F80442FFF765FF0023D7
:10927C00C1F80435FFF760FFBFF34F8F0D490E4B5C
:10928C00CA6802F4E0621343CB60BFF34F8F00BF98
:10929C00FDE7102AD0D1032BC6D8084AC2E7084BE9
:1092AC00084A1A6010BD00BF00C000401CD002006C
:1092BC0000E0014000ED00E00400FA051FD00200C0
:1092CC00983300200090D003044B1A5C0123934088
:1092DC004FF0A042C2F80C35704700BF23D00200FB
:1092EC00044B1A5C012393404FF0A042C2F808359E
:1092FC00704700BF23D00200074A4FF0A041105C1A
:10930C00D1F804350122824022EA03001340C1F84F
:10931C000805C1F80C35704723D0020038B5074C4E
:10932C00051E04F1080318BF1C4623682BB11A68EC
:10933C0022605B6828469847F7E738BDEC5600205A
:10934C0020B9054B01225A70FFF7E8BF012802D162
:10935C00014A9070F8E77047E456002020B9034B9F
:10936C0001225A70FFF7DABF704700BFE4560020A5
:10937C0038B50E4C2378B3B90D486360A3602361F4
:10938C00E36000F0B7F8054602F0FAFD08B900F00A
:10939C00BDF801232370074BD3F800340BB1012324
:1093AC00A370284638BD8525F5E700BFE45600209C
:1093BC004D9302000000014037B50D4C00230DF118
:1093CC0007008DF80730FEF7CDFFE368013BE36043
:1093DC00E36833B9074BD3F8005415B900F0A8F87B
:1093EC00A5709DF80700FEF7E1FF03B030BD00BF8C
:1093FC00E456002000000140012813B50CD00328CE
:10940C0020D038B9134B0122C3F88020BFF34F8F03
:10941C00BFF36F8F02B010BD0F4C00230DF107008E
:10942C008DF80730FEF79EFF23780BB9FFF7A0FFEE
:10943C00E3689DF807000133E3600123A370FEF796
:10944C00B5FFE7E700F062F802B0BDE81040FFF7A7
:10945C00B3BF00BF00E100E0E45600201FB5037865
:10946C008DF800304368019383688DF80830C36829
:10947C00054A0393054B684653F8213052F82110E6
:10948C00984705B05DF804FBF8560020FC56002008
:10949C00F0B506460F4B16F804CB43F82C200E4BB8
:1094AC0017460C460A6943F82C200FCC89B06D4640
:1094BC000FC594E80F00002F85E80F00074ACDF880
:1094CC0010C008BF3A466946304600F063FA09B04E
:1094DC00F0BD00BFFC560020F85600206994020035
:1094EC0000F18040002382B0036003680193019B6C
:1094FC0002B07047044B0246187918B91A60012261
:10950C001A7170478520704700570020074B1A6866
:10951C00D20704D4C02283F8002301221A604FF032
:10952C0080430122C3F81825704700BF00E100E01A
:10953C004FF0804208B50223C2F808334FF4827012
:10954C00FFF7CEFF0123D360D2F81834DB03FBD432
:10955C0008BD00004FF0804210B5D2F8003153B175
:10956C004FF48070FFF7BCFF0123C2F808330B4B9C
:10957C0000201B6898474FF08042D2F8043163B149
:10958C004FF48270FFF7ACFF0223C2F80833034B91
:10959C00BDE810401B680120184710BD0057002083
:1095AC0000F1804000F5C040002382B003600368E6
:1095BC000193019B02B07047800000F1A040D0F8ED
:1095CC00002722F44032C0F80027D0F8003743EAD5
:1095DC000143C0F8003770472DE9F74F00244E4D7A
:1095EC0001944FF48072012102F1804303F5C043D2
:1095FC0090B21B68012B06D1D5F804330B4202D074
:10960C00FFF7CEFF0C430432B2F5907F4FEA4101D5
:10961C00EAD1414BD3F87C31012B0CD14FF4BE7005
:10962C00FFF7BEFF4FF0A04344F00044D3F82025D1
:10963C000192C3F82025E3B2D3B1384F002501269F
:10964C00344210D0AB0003F1804303F5C043D3F890
:10965C001005D3F8101557F8253023B1C1F301418B
:10966C00C0F3042098470135082D4FEA4606E7D190
:10967C00002C48DA294D4FF0A048294E4FF0000934
:10968C00012716F9013B5A1C31D0C3F3C20202A9BF
:10969C000A44DCB212F8042C03F03F0A03F007036F
:1096AC0007FA03F31A4222D00AF5E073504658F831
:1096BC002330C3F3014BBBF1020F0CBF032102217A
:1096CC00FFF77AFF07FA0AF3C8F8203505EB0A030F
:1096DC0093F9303055F823304BB1A109032904D04C
:1096EC00BBF1020F12D1012901D15046984709F163
:1096FC000109B9F1040FC4D1D8F820350193C8F889
:10970C002035002BB9D103B0BDE8F08FBBF1030FAE
:10971C00EDD10229E8E700BF0060004008570020A7
:10972C00585700200020704770470023435082B0E8
:10973C0043580193019B02B0704700002DE9F041A2
:10974C00224E234FDFF88C8000254FF48034D7F85D
:10975C00043306F5A041234289B20CD0336853B1CF
:10976C00C7F848433846C7F80843FFF7DEFFD8F878
:10977C000030E8B298470135032D4FEA440406F156
:10978C000406E4D11248D0F80433DA070AD5D0F82D
:10979C0000313BB14FF48071FFF7C7FF0D4B042034
:1097AC001B6898470A48D0F804339B070CD5D0F8AF
:1097BC0004314BB14FF48271FFF7B7FF054BBDE895
:1097CC00F0411B6805201847BDE8F08140B100400E
:1097DC0000B00040645700200023435082B043582F
:1097EC000193019B02B070470A4610B54FF48E717D
:1097FC00FFF7F2FF136A9168C95C136A01331362B5
:10980C00C0F81C1510BD8B690A4610B54FF4847155
:10981C0023B9FFF7E1FFD0F8183510BDFFF7DCFFD7
:10982C00536AD168D0F81805C854536A013353628F
:10983C00F3E700001FB501238DF80030044BCDE990
:10984C000110D3E900126846904705B05DF804FB9F
:10985C006857002030B54D4DD5F804339A0585B0C6
:10986C0051D5D5F82431002B4DD04FF492712846A8
:10987C00FFF7B2FF4FF40173C5F80833444B93F86C
:10988C0029200AB901226A60404902228DF8002081
:10989C00D1F88024C1F8802403929A690292DA6884
:1098AC0001920022C3E906226846D3E900129047D0
:1098BC003648D0F81C315BB1354A5169136A99426C
:1098CC004DD992F82830002B49D11146FFF78CFF67
:1098DC002E48D0F84431002B56D04FF4A271FFF72C
:1098EC007BFF2B4B93F829200AB1012202609A6965
:1098FC00002A49D0586AD96800229A6105B0BDE89F
:10990C003040FFF797BFD5F804335B07D0D5D5F8B7
:10991C000831002BCCD01E4C1C482146FFF773FF9E
:10992C00636AA2699A42C3D1E369E1684BB1A3614E
:10993C002369E3600023606AE3616362FFF77AFFE7
:10994C00B6E794F829300BB901236B600F4B4FF439
:10995C000172C3F808230023606AA361EEE70B4889
:10996C004FF48E71FFF738FF5369002BB0D051695B
:10997C000291002391688DF8003001915361684683
:10998C00D2E900139847A3E705B030BD0020004092
:10999C00685700202DE9F843534D90F804802C2390
:1099AC0003FB0853064693F82A300C469146002BCD
:1099BC0040F096804D490068FFF7B4FE074600283A
:1099CC0040F0908022683068511C0BD04FF0A041C1
:1099DC0001239340C1F8083502F5E0734FF0030CF6
:1099EC0041F823C061684B1C1FBF01F5E0734FF0B9
:1099FC00A04C4FF0000E4CF823E0A369C0F82435BE
:109A0C0094F814C0637DBCF1010F4CEA0303C0F859
:109A1C006C35C0F81415C0F80C251DD1A268531C68
:109A2C001FBF02F5E0734FF0A0414FF0000C41F85E
:109A3C0023C0E368591C0BD04FF0A04C0121994076
:109A4C00CCF8081503F5E0714FF0030E4CF821E04B
:109A5C00C0F80835C0F810252C2202FB08F2AB1810
:109A6C00C3F804902369AB50B9F1000F20D04FF428
:109A7C008E71247FFFF7B0FE4FF4A2713068FFF7B0
:109A8C00ABFE32681A4BC2F80433130B42F30732A5
:109A9C006101002AC9B21EDB1648841884F8001331
:109AAC000121520903F01F0301FA03F340F822309D
:109ABC0033680422C3F800252C2303FB085300222F
:109ACC00C3E9062283F829205A61012283F82A204F
:109ADC003846BDE8F883084A03F00F03D154E7E792
:109AEC000827F5E71127F3E7685700206198020073
:109AFC008000020000E100E014ED00E0F8B503681E
:109B0C000579304C0022C3F800252C2202FB0542BB
:109B1C005268A2B12C4AC3F808231A0B43F307333B
:109B2C00002B0CDB02F01F015B0901228A40203361
:109B3C00264941F82320BFF34F8FBFF36F8F006886
:109B4C00D0F80C65D0F81415D0F80835D0F81025DD
:109B5C004FF0FF37BE42C0F8147518BF06F5E0761B
:109B6C00C0F80C75C0F80875C0F810751EBF4FF022
:109B7C00A0474FF0020C47F826C04E1C1FBF4FF0F9
:109B8C00A04601F5E071022746F82170511C1FBF59
:109B9C004FF0A04102F5E072022641F822605A1CF7
:109BAC001FBF03F5E0734FF0A042022142F82310CF
:109BBC00FFF7BAFD2C2303FB0544002384F82A305D
:109BCC006360F8BD685700208402020000E100E0E9
:109BDC000279044B2C2101FB02335869003818BF61
:109BEC0001207047685700202DE9F84F064690F881
:109BFC00048089469246FFF7EBFF044600283CD1CF
:109C0C00204F2C2508FB057B4FF48E71CBF814A04C
:109C1C00CBF80890CBF820008BF828003068FFF7C1
:109C2C00DBFD3068012383605946FFF7DDFDDBF86F
:109C3C0004305D461BBB3068DBF814402B6A9C4239
:109C4C0011D83368D3F81C21002AFBD00122DA602A
:109C5C0000202C2303FB087700237B61BDE8F88FE1
:109C6C0095F828303BB9D0F81C31002BF8D0594668
:109C7C00FFF7BAFDE2E70F20EBE71120EEE72046F5
:109C8C00ECE700BF685700207FB503788DF80430EF
:109C9C004368029383688DF80C30C368049303699E
:109CAC00064A8DF81430064B01A853F8213052F8AF
:109CBC002110984707B05DF804FB00BF94570020B3
:109CCC009C570020F0B50546174615F804CB124AF0
:109CDC0042F82C70114A42F82C30114B0C460FCB29
:109CEC0085B06E4686E80F002368009323798DF8C3
:109CFC00053063798DF80630A3680293002FA38991
:109D0C00084AADF80C3008BF3A466346314628463F
:109D1C0000F036F805B0F0BD9C5700209457002099
:109D2C0048D00200959C0200124BD3F8182182B047
:109D3C00EAB10022C3F81821D3F818310193019B22
:109D4C000D4BD97FFF2907D0987F01228A404FF015
:109D5C00A04148B1C1F80C2500225A771A72D3E9F8
:109D6C000021064802B01047C1F80825F4E702B0FC
:109D7C00704700BF00300040A4570020AC570020B3
:109D8C002DE9F74F90F80480644E01924FF02409AE
:109D9C0009FB08F906EB090B9A469BF81C300746A1
:109DAC000C46002B40F0B58005685D492846FFF74E
:109DBC00B9FC002840F0AF80019B46F80930CBF885
:109DCC0004A094F800E094F80CC04FF0A0420123DA
:109DDC0003FA0EF3BCF1010F94BFC2F80C35C2F8B4
:109DEC0008350EF5E073012142F823106378FF2B40
:109DFC001FBF9940C2F80C1503F5E0714FF0030931
:109E0C0018BF42F82190A27808BF4FF0FF33FF2A09
:109E1C001FBF02F5E0714FF0A04A4FF0040B4AF857
:109E2C0021B04FF0240101FB086618BF914686F85B
:109E3C002020E2783949F27708BF4FF0FF39FF2A2A
:109E4C0017D094F804A04FF0010B0BFA02FB4FF063
:109E5C00A046BAF1000F4ED0C6F80CB502F5E07270
:109E6C004FF0030B46F822B0242202FB081282F8B2
:109E7C001EA0C5F808E5C5F80C35A368C5F8109503
:109E8C00C5F82435637B003B18BF0123BCF1020FDE
:109E9C0034D0BCF1030F34D0BCF1010F01D143F02D
:109EAC000203C5F85435A379C5F8C0350723C5F8A6
:109EBC000035019BABB13B68627943F30735520126
:109ECC00002DC3F30733D2B21EDB164C661986F88D
:109EDC00002301226D0903F01F0302FA03F344F877
:109EEC002530242303FB081100234B7701230B7728
:109EFC0003B0BDE8F08FC6F808B5AFE743F0040334
:109F0C00CFE743F00603CCE7074C03F00F03E25412
:109F1C00E7E70820ECE71120EAE700BFA457002090
:109F2C00359D020000E100E014ED00E02DE9F34165
:109F3C000779474E24237B431446F2180D46517F74
:109F4C008646002940F08180F35823B114F0140F99
:109F5C0004BF0123537795E80F004FF0240C0CFB42
:109F6C00076C0CF10C0888E80F009CF81F20FF2AE6
:109F7C0008D09CF81E10012393404FF0A042C1B1B1
:109F8C00C2F80835296821B101F06043B3F1005FD4
:109F9C0006D1AA6882B102F06043B3F1005F0BD026
:109FAC00242303FB076600237377102002B0BDE85F
:109FBC00F081C2F80C35E5E7DEF800306868C3F8CC
:109FCC004415C3F84805E968C3F834250022C3F8E2
:109FDC003815C3F81821D3F818210192019A14F0FE
:109FEC00010218BF0122C3F8502514F0020218BF59
:109FFC000122C3F8402522075CBF01221A612422EA
:10A00C007A43B258B2B9D3F81821002AFBD02423D2
:10A01C0003FB0766F27FFF2A07D0B07F0123934032
:10A02C004FF0A04218B1C2F80C350020BEE7C2F8C0
:10A03C000835BBE714F004004FF0400202D0C3F81F
:10A04C000823F2E7C3F80423B0E71120AEE700BF02
:10A05C00A4570020A8DF704762DF70470388112BDC
:10A06C0013B50C4607D0502B08D0102B01D1838888
:10A07C00238002B010BD4FF6FF73F9E7C288CB897D
:10A08C009A42F6D1038A022BF3D1123000F0FDFF75
:10A09C0080F001008DF8000002AA12E90300636A47
:10A0AC0002B0BDE810401847F0B5344B97B002AA87
:10A0BC0004460E4603F1100C1746186859681546ED
:10A0CC0003C5083363452A46F7D1A11C3846FFF770
:10A0DC00C3FF08B1FDF784FFA3788DF806300DF1AE
:10A0EC00020241F2235301A90120ADF80430FFF71D
:10A0FC00B1FF08B1FDF774FF2022002106A802F081
:10A10C000FFA41F22453ADF81830A3788DF81A30B9
:10A11C00F723ADF81C3001238DF82B30BDF802006D
:10A12C0041F2010304F10A0206A9ADF8243000F053
:10A13C00B0FF08B1FDF754FF202200210EA802F059
:10A14C00EFF941F22553ADF83830A3788DF83A3059
:10A15C000423ADF83C3002238DF84530BDF80200E5
:10A16C00012304F112020EA98DF8493000F091FF81
:10A17C0008B1FDF735FF666217B0F0BDB5D002002F
:10A18C000A8840F677239A4202BF8B88033B4385AB
:10A19C00704772DF704773DF704774DF704775DF8D
:10A1AC00704776DF70477ADF70477CDF70478FDF50
:10A1BC007047B1DF704767DF70470000014B012229
:10A1CC001A707047845A0020FDF70ABF0B8840F6BE
:10A1DC007722934210B50C4609D04DF67A22934261
:10A1EC0018D021461348BDE81040FFF7C9BF124BE9
:10A1FC0001221A70114B5B88022BF2D91048114BBB
:10A20C008A881149C01AC008000440F00300FDF709
:10A21C000FFDE6E70D4B01221A70084B5B88022BF1
:10A22C00DFD90748074B0A790949C01AC00800044E
:10A23C00EBE700BFC8570020085A002098320020D6
:10A24C00CCC602008CC60200C5D00200CA59002040
:10A25C00F6D002000F4B5B88022B10B509D90E48C3
:10A26C000E4B0F49C01AC008000440F00300FDF764
:10A27C00DBFC0C4C0020FFF727F82078FFF78DFF54
:10A28C0020780121FFF787FF18B1BDE81040FDF7DA
:10A29C00A7BE10BD98320020CCC602008CC60200AE
:10A2AC0017D10200AC33002037B502AB03E9030031
:10A2BC009DF80030012B4AD0022B5CD0002B44D1EE
:10A2CC00384C6388022B09D93748384B3849C01AA7
:10A2DC00C008000440F00300FDF7A6FC0120FEF7C7
:10A2EC00F3FF344B01221A70334B1B78012BDAB27B
:10A2FC002BD1324D6B88062B25D06388032B09D9C3
:10A30C0029482A4B2E49C01AC008000440F004000A
:10A31C00FDF78AFC2B496B880B804B802A4B1888E5
:10A32C00FFF73DFF024680B1638873B11F481E4B97
:10A33C0026491B1ADB081B0443F0010003B0BDE8DF
:10A34C003040FDF775BC224B1A7003B030BD154B75
:10A35C005B88022B09D91448144B1E49C01AC0083B
:10A36C00000440F00300FDF75FFC012003B0BDE8E2
:10A37C003040FEF7B5BF0B4B5B88022B0BD90A485C
:10A38C000A4B019A1449C01AC0080004920A40F002
:10A39C000300FDF74DFC022003B0BDE83040FEF792
:10A3AC00ABBF00BF98320020CCC602008CC60200A6
:10A3BC002DD10200095A0020C8590020D0330020AA
:10A3CC0044D10200C8330020C633002065D10200FE
:10A3DC00C959002092D10200AAD10200C0B20138A2
:10A3EC0082B006280AD8DFE800F00B04040709093C
:10A3FC000400044802B070470348FBE70348F9E740
:10A40C000348F7E7CED10200C8D10200B9D102004F
:10A41C00C1D102000388212B73B5044600F0818062
:10A42C0029D8122B00F0F98006D8102B42D0112B12
:10A43C0000F0898002B070BD1F2BFBD1D0E9020166
:10A44C006B4683E80300A0881946FFF7A8FE08B105
:10A45C00FDF7C6FD9D4B5B88022BEBD99C4B9D48B1
:10A46C0022899D49C01AC0080004638940F003008A
:10A47C00FDF7E7FBDEE7522B00F0E68018D8222B25
:10A48C0000F0F0803B2BD5D1904B5B88032B09D986
:10A49C0090488F4B9149C01AC008000440F004004A
:10A4AC00FDF7C2FB8E4B13211888FFF77AFED1E023
:10A4BC00562BE8E78A4E83883380C37B894D012B6A
:10A4CC002B7033D1814B5B88022B09D98148804B8F
:10A4DC008549C01AC008000440F00300FDF7A4FB36
:10A4EC00824B1878FFF759FE3188814801F012FB36
:10A4FC0008B1FDF775FD2B78012B9BD1734B5B8855
:10A50C00022B0ED97B4B7C499888FFF767FF714B68
:10A51C0002466F481B1ADB081B0443F00300FDF7CF
:10A52C0087FB7649A088FFF742FE93E0022BD7D138
:10A53C00664B5B88022BD3D96648654B7049C01AB1
:10A54C00C0080004C8E7664E604D4FF6FF733380B9
:10A55C006B88032B0AD95F485D4B227A6949C01A74
:10A56C00C008000440F00400FDF762FB664C237841
:10A57C0063B16B88012B09D95648554B6349C01AF6
:10A58C00C008000440F00200FDF74EFB60490023B8
:10A59C00012223700A705F490A705F4A13705F4A88
:10A5AC0013705F4A137032884FF6FF739A4225D0AE
:10A5BC006B88022B09D94748454B5A49C01AC00829
:10A5CC00000440F00300FDF72FFB30881321FFF748
:10A5DC00E8FD024600283FF42DAF6B88002B3FF4BA
:10A5EC0029AF3B483B4B50491B1ADB081B0443F07B
:10A5FC00010002B0BDE87040FDF71ABB4B4B1B7855
:10A60C00022B7FF417AF374B1B78012B7FF412AF63
:10A61C0002B0BDE87040FFF71DBE414B01221A701D
:10A62C002A4B5B88022B7FF605AF294B29482289E0
:10A63C003F49C01AC0080004638940F0030002B00F
:10A64C00BDE87040FDF7FDBA002380881A46194614
:10A65C00FFF7AFFD00283FF4EDAE02B0BDE870404F
:10A66C00FDF7BEBC037A194A232B52880FD1032A5B
:10A67C007FF6E0AE164B17482E49C01AC0080004EE
:10A68C0040F0040002B0BDE87040FDF7CDBA23499C
:10A69C0001200870617A8DF80010022AA17A8DF8D9
:10A6AC0001107FF6C7AE0A4A0A4C23490098A41A37
:10A6BC00224AE408002B18BF0A46FFF78FFE240439
:10A6CC0044F0030403461E492046B8E798320020A4
:10A6DC008CC60200CCC60200E7D202001FD30200D7
:10A6EC00C6330020EA590020E7D10200AC33002029
:10A6FC000C5A0020D03300201AD20200D433002090
:10A70C0002D2020032D20200185A00204DD20200AE
:10A71C00095A0020085A0020CA5900200A5A002061
:10A72C00C959002086D2020097D20200C8590020D5
:10A73C00BED202003CD30200DED10200D5D1020011
:10A74C0068D302000A4B10B501460446188009482C
:10A75C0000F0CCFD08B1FDF743FC0648214600F0A3
:10A76C00D1FD18B1BDE81040FDF73ABC10BD00BFDB
:10A77C00D0330020EC59002013B50023CDE9003371
:10A78C00044660F30003694602208DF80030FFF7A1
:10A79C0012FD08B1FDF724FC014BDC7102B010BDB9
:10A7AC00D03300204FF0A0430322C3F8202770477A
:10A7BC002DE9F0476F4896B04FF48041FCF7E6FF67
:10A7CC0008B1FDF70DFCFCF7F3FEFDF7B5FC08B185
:10A7DC00FDF706FCFEF766FB08B1FDF701FC01F086
:10A7EC0091FB08B1FDF7FCFB634C63880022022B44
:10A7FC00079209D96148624B6249C01AC00800042B
:10A80C0040F00300FDF714FA07A9012001F024FC25
:10A81C0008B1FDF7E5FB6388022B0AD95748584B62
:10A82C00079A5849C01AC008000440F00300FDF70D
:10A83C00FFF907A801F0E8FC08B1FDF7D1FB1123E3
:10A84C0051498DF81C300E2207A8FFF7AEFC08B159
:10A85C00FDF7C6FB4D48FFF7A6FC08B1FDF7C0FBA2
:10A86C004B494C4800F02AFD08B1FDF7B9FB01AC8F
:10A87C0018220021204601F053FE01238DF80430EC
:10A88C00322303933C22444B0693002107A801F08A
:10A89C0047FE424A424B52F8041B079307A800F0AC
:10A8AC00CBF908B1FDF79CFB3C493E482246FFF72B
:10A8BC0070FC08B1FDF794FB3B4B3C48079307A990
:10A8CC0001F016F908B1FDF78BFB394D39493A48BF
:10A8DC00FFF7EAFB2888FFF735FFE879FFF74CFF15
:10A8EC00FFF7B8FCFFF75EFF344B0FCB84E80F008B
:10A8FC00334B01934FF000530393324A32480023F9
:10A90C002146FFF7DFF908B1FDF76AFB2F4F304EF8
:10A91C00304807960223002207A9CDE90973089352
:10A92C00FFF704FB2C4C2378002BFCD00023642273
:10A93C0023702A4D00922A4ADFF89890137045F044
:10A94C0001054FF002084FF0000A002207A9484603
:10A95C00CDE90768CDE90978FFF7E8FA2378002BF1
:10A96C00FCD084F800A000980028EED08001A84705
:10A97C00E7E700BFA981020098320020CCC6020094
:10A98C008CC6020086D3020099D30200C833002083
:10A99C00D9A10200EC590020000102009C330020D8
:10A9AC0002000006AC330020D5A102000C5A002096
:10A9BC00D0330020B5A20200C8570020E8D3020013
:10A9CC001C1D1E08C9A1020024D40200195A002023
:10A9DC00D833002028D40200845A002000D402006E
:10A9EC00185A00200369C26893429CBF80681B18E8
:10A9FC00013B981A70472DE9F843D0E902940546BB
:10AA0C00A9EB04084068904520440F46144404D92F
:10AA1C0001F05DFDEC60BDE8F8834246A4EB09044F
:10AA2C0001F055FD6868224607EB0801F0E72DE9B7
:10AA3C00F843C5680646894617464FF00008346946
:10AA4C00B3687068A54228BFE418013C621B5C1B0C
:10AA5C00BC4228BF3C46944228BF14464946284471
:10AA6C00224601F034FDB3682544AB4208BF0025F3
:10AA7C003F1BA044A144F560E1D14046BDE8F883FA
:10AA8C0010B5114C114AA2610223C4E90433104BD6
:10AA9C00E361A2644FF400730E4A0F492362E2642F
:10AAAC0000231022E01DA3626362E362A365636569
:10AABC00E365226501F067FD0849204601F063FD5E
:10AACC002023A37110BD00BF885A002034D402008B
:10AADC00105B0020005B00203DD4020041D402003A
:10AAEC0070B5164B182400FB04451D4404FB0033C1
:10AAFC001646DC6A012C0ED0022C18D0E4B928467C
:10AB0C00FFF770FF864204D832462846FFF773FFE2
:10AB1C003446204670BD2846FFF764FF8642344613
:10AB2C0028BF044622462846FFF765FFF1E7284672
:10AB3C00BDE87040FFF77BBF0024EAE7885A00208D
:10AB4C00FFF79EBF6DDF704779DF70477DDF704781
:10AB5C0064DF70472DE9F04F85B000250E9CBDF8E1
:10AB6C003CB0B4F800A00191074690461E46A94699
:10AB7C003A884A450DDC45B12388013BA3EB0A0317
:10AB8C009BB2FF2B3AD806F80A30002005B0BDE87E
:10AB9C00F08F7A6852F82900039000220DF10B0116
:10ABAC0003A8FFF7D5FF0028F0D19DF80B204245F4
:10ABBC0021D12288002D14BF0020022002EB0801B5
:10ABCC00014459451ADC3DB9013292B2019B2280F5
:10ABDC00B35422880132228022880DF10B013244B9
:10ABEC0003A8FFF7B5FF0028D0D121889DF80B20D2
:10ABFC000A442280012509F10109B9E70C20C5E7B7
:10AC0C002DE9F341089FBDF824801546CDE9007865
:10AC1C00022204461E46FFF79DFF50B93346102210
:10AC2C0029462046CDE9087802B0BDE8F041FFF78F
:10AC3C0091BF02B0BDE8F0812DE9F04F00231788D9
:10AC4C00138090F82D3085B006460D4614465BB344
:10AC5C00082F01D80C2028E102A8FFF773FF002869
:10AC6C0040F023812388DDF809100822EA54238858
:10AC7C0001339BB21B222380EA54238801339BB2FD
:10AC8C00EA182380E950BDF80D30938023889DF895
:10AC9C00082006339BB212F0FE0218BF012223805B
:10ACAC00EA54238801332380B378FBB1238804331F
:10ACBC00BB42CFD802A8FFF747FF002840F0F58031
:10ACCC0023880322EA54238801339BB21922238060
:10ACDC00EA542388BDF8082001339BB2E91823807D
:10ACEC00EA54120A4A70238802332380F2789AB10C
:10ACFC002388D91CB942ADD80221E95423880133E9
:10AD0C009BB201212380E95423880B449BB22380FE
:10AD1C00EA5423880B4423807268AAB12388D91C77
:10AD2C00B94297D8022192F90020E95423880133C3
:10AD3C009BB20A212380E954238801339BB22380E0
:10AD4C00EA542388013323803389002B40F0A180FF
:10AD5C00338A5BB1CDE900472B460722032106F16C
:10AD6C001000FFF74DFF002840F09F80338B5BB144
:10AD7C00CDE900472B461522142106F11800FFF7E8
:10AD8C003FFF002840F09180326A002A40F090800A
:10AD9C00D6F82480B8F1000F30D0B8F804302188F0
:10ADAC00981C8A1C0244BA423FF654AFFE283FF668
:10ADBC0051AF03336B54238801339BB2FF222380A2
:10ADCC00EA54238801339BB22380B8F80020EA545C
:10ADDC00E918120A4A702088023080B22080B8F834
:10ADEC0004205AB1D8F8081000296BD0284401F07F
:10ADFC006EFB2388B8F804201344238096F82C307B
:10AE0C00002B40F09880307800284ED03388012BEE
:10AE1C0058D0228802F1020CBC453FF61BAF01282A
:10AE2C0005D17378023313449F42FFF413AF023FF2
:10AE3C00BF1ABFB202A905EB0C00ADF80870FFF702
:10AE4C0085FE90BB3178BDF80830022900F0B9803E
:10AE5C0072789A4202D39F4280F0B180012940F06F
:10AE6C00B280974293B2C0F0AE80ADF808300821A2
:10AE7C00BDF80830FE2B3FF6EDAE22880133AB5403
:10AE8C002288013292B22280A95422881344238052
:10AE9C000BE0CDE900472B460622022106F1080003
:10AEAC00FFF7AEFE00283FF453AF05B0BDE8F08FBE
:10AEBC00B4F800C00CF10603BB423FF6CBAE1188D0
:10AECC00052901D80720F0E76FF4486E01EB0E035B
:10AEDC009BB24FF27D3E7345F4D95388052BF1D9C3
:10AEEC006FF44860181880B27045EBD94FF6FF70BC
:10AEFC00814201D09942E5D8052305F80C3023880E
:10AF0C0001339BB212212380E954238801339BB275
:10AF1C0023801188E954E818090A41702388023308
:10AF2C009BB223805288EA54E918120A4A7023888B
:10AF3C00023323802CE7B36A002BC3D04FF00008F8
:10AF4C004FF00C0A4FF0160BB16A5FFA88F20AFB4D
:10AF5C0002F201EB0209B9F80430981CFE283FF606
:10AF6C0079AE208803332B54238801339BB2238082
:10AF7C0005F803B0238801339BB223808A5AEA5424
:10AF8C00E918120A4A702088023080B22080B9F881
:10AF9C0004205AB1D9F80810002993D0284401F0A4
:10AFAC0096FA2388B9F804201344238096F82C20B1
:10AFBC0008F101085FFA88F39A42C5D823E7092102
:10AFCC0056E79F42FBD2ADF8087050E730B5C8B1D8
:10AFDC00F2B10024651C8D4206DA1588A54212D800
:10AFEC0005196D789D420ED1A14211D9005D48B171
:10AFFC00013880B230B10234A3B210FA84F4A14209
:10B00C0006DB138030BD055D01352C44A4B2E1E7AD
:10B01C000020F7E7F7B500230646ADF806301446D6
:10B02C0012B9002003B0F0BD09230DF10602FFF7A1
:10B03C00CDFFBDF806700546002FF2D00028F0D0E9
:10B04C00204601F0C2FAA8420246EAD1F119204684
:10B05C0001F0E7F9B0FA80F04009E3E7AADF7047A6
:10B06C00002301380B70042806D8DFE800F0030633
:10B07C00080A0C0011230B7070472123FBE73123C6
:10B08C00F9E71223F7E72223F5E7008800F0010027
:10B09C007047F0B58B7891B00C46012B38BF01236B
:10B0AC0000278DF80E3005460B88607CADF80C300F
:10B0BC006946ADF800708DF80270FFF7D1FFA07CE7
:10B0CC000DF10101FFF7CCFF1646237BE27B217DBE
:10B0DC0043EAC203227C43EA02139DF80220B942E0
:10B0EC0022F0190203F0190314BF022101211343AA
:10B0FC0061F342031C22394609A88DF8023001F095
:10B10C000FFA637B13F0300F14D00DF10901E07CC2
:10B11C00ADF808708DF80A70FFF7A2FF11238DF8B7
:10B12C0008309DF80A30012102AA61F342038DF820
:10B13C000A300E92637B8DF82430A37B8DF825307A
:10B14C000023CDE90633089303AB0493A388ADF831
:10B15C001C30A368CDF814D01BB1E288ADF81820D0
:10B16C000893A36973B301A90022ADF804208A7077
:10B17C001A88ADF82C205A88ADF82E205A680D91FB
:10B18C00187B0A92FFF76CFFA3690DF10501587B40
:10B19C00FFF766FFA3699A7A197A41EAC201DA7A53
:10B1AC009B7B41EA02119DF80620002B01F019014E
:10B1BC0022F0190214BF02230123114363F342014D
:10B1CC008DF80610E36903B10C93334604AA09A960
:10B1DC002846FFF743FF11B0F0BD90DF7047A5DFA5
:10B1EC007047B5DF70470000F0B52D4E7388032B08
:10B1FC0085B007460D460BD92A482B4C241AE40877
:10B20C0024040A463B46294944F00400FCF719FD86
:10B21C0000236A4602A93846ADF80850ADF80A502A
:10B22C00ADF80C30ADF80E300093ADF80430FFF7EC
:10B23C00D4FF054688B373886BB1FDF765FF1A4CD4
:10B24C001B4903461748241AE40824043A4644F0E0
:10B25C000100FCF7F6FCBDF80020BDF8023052EA04
:10B26C0003010BD0718849B10E480F4C1149241AB7
:10B27C00E408240444F00100FCF7E3FCBDF80420CE
:10B28C005AB173884BB10748074B0B491B1ADB08A3
:10B29C001B0443F00100FCF7CBFC284605B0F0BDC5
:10B2AC00CC3200208CC6020034C7020054D40200F9
:10B2BC0083D40200CDD402000CD5020088B14FF02B
:10B2CC00F7130360FB230371074A8161F723C380E3
:10B2DC001723C0E90232036141F6FB33838200205D
:10B2EC0070470E20704700BFFB1BF70030B1A1F177
:10B2FC001703E02B04D80180002070470E20704704
:10B30C000720704730B1A1F11703E02B04D841801E
:10B31C00002070470E207047072070472DE9F04F32
:10B32C008588012D87B007460C4600F2BB81038847
:10B33C00242B4FEAC50600F018812AD8112B00F0F7
:10B34C00D980232B00F08081102B7FD03444A37A3A
:10B35C00002B00F0A781E1882846FFF740FF00286A
:10B36C0040F08B814FF480736381A74B5B88032B78
:10B37C0040F29881A54BA648E288A649C01AC0089D
:10B38C0000042B4640F0040007B0BDE8F04FFCF77A
:10B39C0058BC3A2B00F0B780552BD7D1DFF8688218
:10B3AC00B0F80690B8F80230032B0BD9974B98489D
:10B3BC009949C01AC00800044B462A4640F00400C4
:10B3CC00FCF73FFCA7194A46172AFB884FF00001EF
:10B3DC0038BF1722B972B8F802109A4228BF1A4621
:10B3EC0003293A810AD9894989480095401AC0082D
:10B3FC0000048A4940F00400FCF72DFCF98828462B
:10B40C00FFF7EFFE78B1B8F8023063B1FDF77CFEC0
:10B41C007F4B834902467D481B1ADB081B0443F013
:10B42C000100FCF705FCFB7A002B8FD1A369002BE4
:10B43C008CD040F67722ADF810203A89ADF8125036
:10B44C00ADF8142004A9204698477FE7C37B0A79FE
:10B45C008F19012B3A7326D0022B27D0FA883B89FF
:10B46C00934217D2DFF8A081B8F80230032B0AD927
:10B47C00664B67486B49C01AC00800042B4640F065
:10B48C000400FCF7DEFBF9882846FFF7A8FE78B924
:10B49C000123FB72397B7B7B8B42BFF457AF284671
:10B4AC00FFF7A2FE52E70B88FB80D7E74B88FBE740
:10B4BC001128B8F802200FD10123032ABB72E9D955
:10B4CC005348524B5849C01AC00800042A4640F051
:10B4DC000400FCF7ADFBDDE7002ADBD0FDF714FE22
:10B4EC004B4B5249024649481B1ADB081B0443F0DC
:10B4FC000100EEE78B19F722DA8017229A6041F6E9
:10B50C00FB329A8122E701EB06084289B8F8063033
:10B51C009A4228BF1A463C4B5B88172A38BF172221
:10B52C00032BA8F808200AD9384B39484049C01ACF
:10B53C00C00800042B4640F00400FCF782FBA36912
:10B54C007BB198F80B2062B140F67722ADF8102051
:10B55C00B8F80820ADF81250ADF8142004A9204614
:10B56C0098470023A8F80A30F0E68389264F029307
:10B57C00C38903937B88027AB0F808A0B0F80AB0AC
:10B58C0001EB0608032B88F80D202BD91F4B204804
:10B59C002849C01AC008000440F004092B4648464C
:10B5AC00FCF74FFB7B88032B1CD923495A46484692
:10B5BC00FCF73EFB7B88032B14D9204952464846A6
:10B5CC00FCF736FB7B88032B0CD9039A1C494846A5
:10B5DC00FCF72EFB7B88032B04D9029A19494846A9
:10B5EC00FCF726FBA369002B3FF4B0AE00228DF8CC
:10B5FC0015204DF67A22ADF8102098F80D20ADF8F4
:10B60C0012508DF814201DE7CC3200208CC602009D
:10B61C0034C70200B5D702005DD6020097D60200EF
:10B62C00D6D6020062D502009FD50200F1D50200E9
:10B63C0022D6020005D7020034D7020046D70200FA
:10B64C0058D7020068D70200184B90F808805B8826
:10B65C00032B0BD9164B17481749C01AC008000406
:10B66C0043462A4640F00400FCF7EBFAA319B888CD
:10B67C00197B414528BF414612E7112812D00B4BCC
:10B68C005B887BB1FDF740FD0A4B0C49024608482C
:10B69C001B1ADB081B0443F0010007B0BDE8F04F98
:10B6AC00FCF7C6BA07B0BDE8F08F00BFCC32002063
:10B6BC008CC6020034C7020078D70200F1D5020014
:10B6CC009BDF70479DDF70479EDF7047A1DF70479F
:10B6DC00A3DF7047AEDF704730B504880246002305
:10B6EC0098B2844206D9556835F813508D4203F14F
:10B6FC000103F5D130BD00008B6910B50C461988DB
:10B70C00102922D8023189B2FDF76DFB6060F0B1CF
:10B71C00A16900230222FDF7B0FBA269E16912883E
:10B72C0060680223FDF7A9FB0A4B5B88032B0AD93F
:10B73C0009480A4B62680A49C01AC008000440F064
:10B74C000400FCF775FA002000E0092010BD04206D
:10B75C00FCE700BFD03200203CC702008CC60200C0
:10B76C0007D80200184BF7B55B8805460E461746FE
:10B77C0082B9032B25D91548154C2A78241AE408CC
:10B78C0024040B46134944F0040003B0BDE8F04018
:10B79C00FCF757BA63B10D480D4C0092241AE4081B
:10B7AC0024040B462A780C4944F00100FCF753FAA8
:10B7BC00AB6833B1E9683246384603B0BDE8F040B7
:10B7CC00184703B0F0BD00BFD03200208CC6020079
:10B7DC003CC7020073D80200AED802002DE9F0413C
:10B7EC007D4D6B88032B8EB007460E4609D97B48DE
:10B7FC007B4B7C49C01AC008000440F00400FCF7E5
:10B80C0013FA012206A93846FDF7D6FB044670BB95
:10B81C009DF81830052B00F2D080DFE803F0032BE5
:10B82C00455A6C7E6B88032B09D96C486C4B6E495E
:10B83C00C01AC008000440F00400FCF7F5F9BDF88C
:10B84C002A20BDF828103046FFF740FF0446112C83
:10B85C0040F091806B88032B09D96048604B634999
:10B86C00C01AC008000440F00400FCF7DDF90EB06B
:10B87C00BDE8F08102A90023BDF82E2007980C9199
:10B88C00FDF705FB6B88032B09D95448544B5849D9
:10B89C00C01AC008000440F00400FCF7C5F90AA95E
:10B8AC003046FFF715FFD1E76B88032B09D94B48BE
:10B8BC004B4B5049C01AC008000440F00400FCF780
:10B8CC00B3F9BDF828100DF12A023046FFF7F8FE47
:10B8DC00BCE76B88032B09D94048414B4649C01A39
:10B8EC00C008000440F00400FCF79EF90AA9304699
:10B8FC00FFF7E8FEAAE76B88032B09D93748384BCA
:10B90C003E49C01AC008000440F00400FCF78CF952
:10B91C000AA93046FFF7D8FE98E702AB0DF10604F2
:10B92C0007980D93022200232146FDF7B0FA02235B
:10B93C00BDF806200D9907980C94FDF7A8FA6B88B2
:10B94C00BDF80680032B09D92448254B2C49C01A75
:10B95C00C008000440F00400FCF766F90AA9304660
:10B96C00FFF7B8FE044600287FF471AFBDF806302F
:10B97C00434518BF0C249DF81820224B53F8223055
:10B98C0083B10798FDF719FA6B88032B0AD9144871
:10B99C00124B079A1C491B1ADB081B0443F00400CA
:10B9AC00FCF746F906A900223846FDF705FB2246AE
:10B9BC00314606A8FFF7D6FE59E76B88012BDAD97A
:10B9CC00074B06481149C01AC008000440F0020099
:10B9DC00FCF72AF9CFE700BFD03200203CC70200A9
:10B9EC008CC60200F8D8020018D90200E5D9020072
:10B9FC002BD902003FD9020067D902008ED9020070
:10BA0C00C0D902005CDA020050D80200CAD9020088
:10BA1C0010B50C46C98A102919D8FDF7E4F96060F5
:10BA2C00B8B10023E28AA169FDF727FA0A4B5B88BB
:10BA3C00032B0AD909480A4B62680A49C01AC00884
:10BA4C00000440F00400FCF7F3F8002000E00920AB
:10BA5C0010BD0420FCE700BFD03200203CC7020020
:10BA6C008CC6020007D8020037B50C4608B301B3E8
:10BA7C000588112D15D181882046FFF72DFE2388CE
:10BA8C00ADF80600834214D0112D14D163684FF623
:10BA9C00FF7223F810200DF10601E068FDF730FA73
:10BAAC0007E0A5F130031F2BE5D9A5F150031F2B9F
:10BABC00E1D903B030BDA3681C2202FB0030FFF7B4
:10BACC008DFEF6E7B0DF704766DF704710B50021DA
:10BADC0004464088FFF7F8FF034608B9237210BDEF
:10BAEC00112801D10123F9E76368BDE8104018471C
:10BAFC0060B159B10378DE2B0AD00B684360DE23AA
:10BB0C0003704FF6FF734380002070470E20704780
:10BB1C000820704728B10378DE2B04D14180002027
:10BB2C0070470E20704708207047F0B5054685B069
:10BB3C000C46002942D0002840D00B78DE2B3DD19A
:10BB4C0082884B889A4204D10B7A13B10846FFF7CE
:10BB5C00BDFF2B88112B33D0512B0FD0012B2DD1A6
:10BB6C002B7A012B2AD1A9886288914226D12046B2
:10BB7C00237205B0BDE8F040FFF7A8BFAE8863881C
:10BB8C00B3421BD1AF79022F18D1AD7B2B1F022BE7
:10BB9C0014D800211022684600F0C2FC052D18BFF5
:10BBAC004FF4C0736946304618BFADF804308DF8B9
:10BBBC000070FFF787FF08B16368984705B0F0BDC8
:10BBCC006388AA889A4204BF4FF6FF736380F5E737
:10BBDC008ADF70478BDF70478CDF704770B590F849
:10BBEC00233086B004460D46002B36D090F82C60DE
:10BBFC00FFF7F0FF1422002101A800F091FC33465E
:10BC0C00174EA81C04F1240204F12E01FFF7E4FFE7
:10BC1C007388032B054609D91248134B13491B1A79
:10BC2C00DB081B0443F00400FBF7FEFF05238DF833
:10BC3C00043073880295032B0AD90A480A4B0C4925
:10BC4C001B1ADB081B042A4643F00400FBF7F0FF29
:10BC5C001DB1E36B0BB101A8984706B070BD00BFD6
:10BC6C00C43200208CC6020024C7020074DA020021
:10BC7C007FDA020090F82E00C0F3C000704700007D
:10BC8C002DE9F04F054687B035F8082B1B2A0646E0
:10BC9C000C4678D01D2A14D0102A2FD1002101A8CF
:10BCAC0000F03EFC06238DF80430B388ADF80C3060
:10BCBC0004F12E030593E36B0295002B40F0848076
:10BCCC001CE01022002101A800F02AFC04F12E0334
:10BCDC0020460593FFF7CEFF04F1600888B10223DC
:10BCEC008DF8043001A8E36B02959847414600207B
:10BCFC00FFF76EFF29462046FFF770FF07B0BDE83F
:10BD0C00F08F94F8210094F8229088B394F820A036
:10BD1C00B6F824B0274604EB4A1A574518D1002030
:10BD2C00034601220295B9F1000F24D09A4226D184
:10BD3C0000238DF8043029462046FFF74FFFE36BB4
:10BD4C000BB101A8984741460020FFF741FFD5E70A
:10BD5C003A46306A5946FFF75DF920370028DCD0A7
:10BD6C009DF80C3043F001038DF80C300123D8E71B
:10BD7C0003460246D6E710B18DF80490DBE70323A7
:10BD8C008DF80430DBE71422002101A800F0C8FB79
:10BD9C00337A012BB2D10E4B5B88032B09D90D489A
:10BDAC000D4B0E49C01AC008000440F00400FBF70C
:10BDBC003BFFE36B002BA1D004228DF804202E3422
:10BDCC00327A05948DF8082001A8984796E700BFB1
:10BDDC00C432002024C702008CC6020095DA02008F
:10BDEC0010DF70472DE9F3411B4B1C4C1C4FE41A20
:10BDFC007B88E4082404032B064644F0040404D98D
:10BE0C00024618492046FBF713FF1749DFF85C8000
:10BE1C006846FDF71FF9019D1DB9284602B0BDE823
:10BE2C00F081D5E90031304698477B8850B1032B1F
:10BE3C0004D92A4641462046FBF7FAFE6846FDF730
:10BE4C0013F9E8E7032B04D909492A462046FBF7E6
:10BE5C00EFFE1120E2E700BF8CC6020044C70200CF
:10BE6C00D4320020B3DA020030DB0200C9DA02005F
:10BE7C00E9DA0200104B5B88032B13B504460AD990
:10BE8C000E480F4B0F491B1ADB081B04224643F0CC
:10BE9C000400FBF7CDFE0C496846FDF7DBF8019B6F
:10BEAC000BB902B010BD2046D3E90021904768467B
:10BEBC00FDF7DAF8F3E700BFD43200208CC602009D
:10BECC0044C702000CDB020048DB02000B4991F86E
:10BEDC0016335A09EC231341DB0706D5084B9A6835
:10BEEC003AB94FF480030B60704742F20200FCF742
:10BEFC0077B81A6842F480021A60704700E100E0DB
:10BF0C00BC560020F7B5194F3C7864BB184E012580
:10BF1C0020463570FFF766FF112821D02046FFF729
:10BF2C00A9FF144B8DF80340186801900DF1030024
:10BF3C00FCF718FA104901A8FFF752FF0446B0FAB3
:10BF4C0080F0400938709DF80300FCF72FFA3CB9DB
:10BF5C000A4B34701C70FFF7B9FF2846FFF78AFFB5
:10BF6C00204603B0F0BD0824FAE700BF115D0020A5
:10BF7C00105D002029DB020009800200125D002008
:10BF8C00014B1878704700BF115D002007B50849B8
:10BF9C006846FDF75FF8019B13B903B05DF804FB2D
:10BFAC00D3E9002090476846FDF75EF8F3E700BF41
:10BFBC003CDB0200FFF7EABF60DF704769DF7047C8
:10BFCC0061DF704770B51B4B1B4C1C4EE41AE40828
:10BFDC002404ADF5007D44F004044FF4FA750DF122
:10BFEC00020103A8ADF80250FFF7EAFFB8B9738855
:10BFFC00032B05D9BDF80C2011492046FBF718FE80
:10C00C00104901A8FDF726F8029B002BE7D003A8E6
:10C01C00D3E90021904701A8FDF726F8F4E705289D
:10C02C0005D00DF5007DBDE87040FBF7D9BF0DF5CF
:10C03C00007D70BD8CC602004CC70200D8320020B7
:10C04C0054DB020040DE0200024B1B780BB1FFF701
:10C05C00B9BF7047135D002030B5054685B00C465E
:10C06C00002900F0BB800023CDE901335C4A039327
:10C07C0001230A608DF804008DF8063001A94FF4F5
:10C08C00C8732020ADF80830FFF798FF78B1554BF6
:10C09C005B8863B1FDF738F8534B5449024654485A
:10C0AC001B1ADB081B0443F00100FBF7C1FD002346
:10C0BC00CDE90133039301238DF80530226840F25A
:10C0CC00011301A94020ADF80630FFF777FF78B1D6
:10C0DC00444B5B8863B1FDF717F8434B4549024667
:10C0EC0043481B1ADB081B0443F00100FBF7A0FDBF
:10C0FC000023CDE90133039322688DF80450F72314
:10C10C0001A92320ADF80630FFF758FF78B1354B65
:10C11C005B8863B1FCF7F8FF334B37490246344870
:10C12C001B1ADB081B0443F00100FBF781FD002305
:10C13C0001202268039301A9CDE901338DF8040095
:10C14C00FFF73CFF78B1274B5B8863B1FCF7DCFF52
:10C15C00254B2A49024626481B1ADB081B0443F0D0
:10C16C000100FBF765FD0023CDE9023322684FF493
:10C17C00B06301A9A1200193FFF720FF78B1194BFF
:10C18C005B8863B1FCF7C0FF174B1D49024618488A
:10C19C001B1ADB081B0443F00100FBF749FD0025CB
:10C1AC002268039501A9A020CDE90155FFF706FFF0
:10C1BC00034680B10B4B5B886BB1FCF7A5FF0A4BB8
:10C1CC00104902460A481B1ADB081B0443F0010005
:10C1DC00FBF72EFD2B46184605B030BD0E23FAE7B3
:10C1EC0078320020D83200204CC7020065DB0200F8
:10C1FC008CC60200ABDB0200F7DB02003EDC020067
:10C20C008ADC0200DBDC02002DE9F0410646D0F8A6
:10C21C000080394FFFF7D0FE3368434505467B88D5
:10C22C002CD9012B23D93548354C3649241AE4082E
:10C23C00240444F002042046FBF7F6FC7B88012B17
:10C24C0015D93368304942462046FBF7FAFC7B8807
:10C25C00012B0CD94FF080533268D3F80C312B4999
:10C26C009B0203F100539A1A2046FBF7E1FC8DBBAD
:10C27C00274B01221A702846BDE8F081032B0AD9FE
:10C28C001F481E4B2349C01AC0080004424640F008
:10C29C000400FBF7CDFC32684245E8D07B88032BC9
:10C2AC00E5D91648164B1C491B1ADB081B0443F036
:10C2BC0004042046FBF7BCFC7B88032BD7D94FF03A
:10C2CC0080533268D3F80C3114499B0203F10053AC
:10C2DC009A1AC9E77B88002BCDD02846FCF714FFAF
:10C2EC00074B0F49024605481B1ADB081B0443F099
:10C2FC000100FBF79DFCBEE7D83200208CC6020083
:10C30C004CC702002EDD02005DDD02008EDD020056
:10C31C00135D002086D30200B8DD0200E4DD0200CC
:10C32C0016DE02004BDF70471FB50E4C01A8FFF75D
:10C33C00F9FF70B9214602A8FCF78CFE039B002B79
:10C34C00F4D00198D3E90021904702A8FCF78CFEA9
:10C35C00F4E7052804D004B0BDE81040FBF740BE5C
:10C36C0004B010BD58DE02007F2805D8034B185CC2
:10C37C00034B5B5C184070470020704770DE020076
:10C38C00F0DE0200A0F16103192B98BF2038704732
:10C39C00A0F14103192B98BF203070477F2805D896
:10C3AC00034B185C034B5B5C1840704700207047D4
:10C3BC0070DE0200F0DE0200A0F16103192B98BFC1
:10C3CC0020387047A0F14103192B98BF20307047DB
:10C3DC007F299ABF017001206FF02E0070475AB16F
:10C3EC000A787F2A0AD800B10260002119605960CE
:10C3FC00501A18BF01207047002070476FF02E00B4
:10C40C007047000008B5034B5B689B681B68984736
:10C41C0008BD00BFDC33002008B50921FFF7F2FF8F
:10C42C0008BDA2B310B594460F2A19D902460B4683
:10C43C0040EA010414F0030F02D00CF1FF3C12E0AF
:10C44C0019461046043204330C68D0F800E0A645B7
:10C45C0006D110461946ACF1040CBCF1040FEFD810
:10C46C00BCF1010C0FD00A46034684441146184611
:10C47C0001330132047891F800E0744503D1184679
:10C48C0011466345F2D100780B78C01A10BD00201C
:10C49C007047D2B110B51446012A12D00A46034691
:10C4AC00204400F1FF3E1146184613F8014B44B1ED
:10C4BC00013291F800C0A44503D1184611469E459F
:10C4CC00F1D100780B78C01A10BD0020704784465B
:10C4DC0040EA010313F0030F18D18446202A0BD332
:10C4EC002DE9F007B1E8F807A0E8F807A2F120025F
:10C4FC00202AF7D2BDE8F007042A07D351F8043BF1
:10C50C0040F8043BA2F10402042AF7D2002A05D019
:10C51C0011F8013B00F8013B013AF9D16046704734
:10C52C008446002A2DD010F0030F04D000F8011B14
:10C53C00013A26D0F7E7C9B241EA012141EA0141AB
:10C54C00202A12D3A2F120022DE9F0030B460C464F
:10C55C000D460E460F4688468946A0E8FA03203A57
:10C56C00FBD2BDE8F00320320BD0042A05D340F8EF
:10C57C00041B043A05D0042AF9D200F8011B013A35
:10C58C00FBD160467047024610F0030F16D111F034
:10C59C00030F13D12DE9F0004FF001374FF080332A
:10C5AC0051F8044BA4EB070525EA04051D4002D104
:10C5BC0042F8044BF4E7A1F10401F0BC11F8013B83
:10C5CC0002F8013B002BF9D1704700F1010110F08A
:10C5DC00030F11D010F8012B002A23D010F0030FF9
:10C5EC000AD010F8012B002A1CD010F0030F03D036
:10C5FC0010F8012B002A15D02DE970004FF00132F4
:10C60C004FF0803350F8044BA4EB020525EA0405E7
:10C61C001D4000D1F6E7A0F1040070BC10F8012B0E
:0CC62C00002AFBD1A0EB010070470000C9
:08C638006993020000000000FC
:10C640008DBC02001C5A002029B30200EC590020C6
:10C6500075BA0200B033002037BB02000C5A00202C
:10C6600021A402000000000069A00200C8570020B9
:10C67000105900200C5900200100000002000000A9
:0CC6800001000000CAD30200E4320020D8
:10C68C00ABD0020000000404B0D00200000004048F
:10C69C002DD002000000000033D00200000000008A
:10C6AC003AD00200000000003ED002000000000062
:10C6BC0058D002000000000042D002000000000030
:10C6CC0052C902000000040485CA020000000000E8
:10C6DC00A2CA02000000000078D002000000000393
:10C6EC005DD002000000000392D0020000000003A5
:10C6FC0060CA02000000000390CA020000000003A0
:10C70C0056C9020000000003A8D302000000000379
:10C71C0048D4020000000404AADA02000000040459
:10C72C0027D0020000000000FAD702000000040429
:10C73C004FDA02000000040421DB020000000404B4
:10C74C0033DE0200000004044CDE02000000030390
:10C75C0006CB020000000000C4D30200000000035E
:08C76C001CCB020000000000DC
:10C77400743400207C350020843500207C34002073
:10C78400B83200205DC90200010100002000000051
:10C79400FC570020045900200C59002004580020A4
:10C7A400BC320020AFD302000101000020000000D1
:08C7B4000594020000000000E2
:10C7BC0055C002000000000035C30200000000005C
:10C7CC00E8C802000000000031C902006C330020F0
:10C7DC0014C902000000000020C9020074330020BC
:10C7EC00000000000000000000000000000000003D
:10C7FC00000000000000000000000000000000002D
:10C80C00000000000000000000000000000000001C
:10C81C00000000000000000000000000000000000C
:10C82C0000000000000000000000000000000000FC
:10C83C0000000000000000000000000000000000EC
:10C84C0000000000000000000000000000000000DC
:04C85C0000000000D8
:10C8600000000000000000000000000000000000C8
:10C8700000000000000000000000000000000000B8
:10C8800000000000000000000000000000000000A8
:10C890000000000000000000000000000000000098
:10C8A0000000000000000000000000000000000088
:10C8B0000000000000000000000000000000000078
:10C8C0000000000000000000000000000000000068
:04C8D0000000000064
:10C8D4000000000000000000000000000338FDD844
:10C8E40070470000C17302002D740200BD73020082
:10C8F400FFFFFFFFFFFFFFFFFFFFFFFFFFFFFFFF44
:10C9040000000000000000000000D6010600000046
:10C914006975020051750200017502007561727437
:10C924005F6C6F675F6261636B656E6400727474E1
:10C934005F6C6F675F6261636B656E640042616325
:10C944006B656E647320666C7573686564006170F2
:10C95400700062616C6C6F632E6C6F675F6D656DE8
:10C96400706F6F6C00000000A45500207F00000071
:10C97400245600201B5B313B33316D0025734C6F13
:10C9840067732064726F707065642028256429259C
:10C99400730D0A001B5B306D002573005B2530327C
:10C9A400643A253032643A253032642E25303364BB
:10C9B4002C253033645D20003C25733E2025733ADA
:10C9C4002000202530327800202020007C002563C0
:10C9D400001B5B313B33306D001B5B313B33326DED
:10C9E400001B5B313B33336D001B5B313B33346DD8
:10C9F400001B5B313B33356D001B5B313B33366DC4
:10CA0400001B5B313B33376D006572726F720077C8
:10CA140061726E696E6700696E666F006465627547
:10CA24006700000098C90200D5C9020078C9020055
:10CA3400DDC90200E5C90200EDC90200F5C9020022
:10CA4400FDC9020005CA0200000000000DCA020070
:10CA540013CA02001BCA020020CA02006170705F80
:10CA640074696D65722E6D5F646574656374696F56
:10CA74006E5F64656C61795F74696D65725F69642A
:10CA8400006170705F627574746F6E0061746669C2
:10CA9400666F2E6D5F7265715F6669666F006170A7
:10CAA400705F74696D65720001000600000000008B
:10CAB400445600204580020052544320696E73742A
